:1006DB00CAD5B5BDD6B8C1EEA3ACCFF2C7B0210A0F
:1006EB0000CAD5B5BDD6B8C1EEA3ACCFF2BAF321D3
:1006FB000A00CAD5B5BDD6B8C1EEA3ACCFF2D7F3BD
:10070B00210A00CAD5B5BDD6B8C1EEA3ACCFF2D382
:10071B00D2210A00CAD5B5BDD6B8C1EEA3ACCDA3C4
:05072B00D6B9210A000F
:10067400C102C100015500013F0005370000000020
:1006840000013100015700015800015600C181C129
:1006940083023C00000C45C0F9A4B0999282F88012
:1006A40090BFFF0332FEFDFB045100000000013E39
:1006B40000044000000000042100000000042500A4
:1006C400000000042900000000042D0000000002C6
:0606D400350000014400A6
:1008CB00E4FDFCC3ED9FEC9E5015E4FBFA0BBB0063
:0F08DB00010ABA07F8BBD0F50DBD00010C80E48F
:0108EA0022EB
:10091D00755704755604D294C295C296D297D2904B
:07092D00C291C292D2932295
:10093400755706755606C290D291D292C293C2944C
:07094400D295D296C2972262
:10094B00755704755604D294C295C296D297C2902D
:07095B00D291D292C2932257
:10096200755704755604C294D295D296C297D29006
:07097200C291C292D2932250
:1009F200C294C295C296C297C290C291C292C29349
:010A020022D1
:10098E00E4FFEF9006DB93600AF5993099FDC2996A
:03099E000F80EFD8
:0109A1002233
:1009A200E4FFEF9006EC93600AF5993099FDC29945
:0309B2000F80EFC4
:0109B500221F
:1009B600E4FFEF9006FD93600AF5993099FDC29920
:0309C6000F80EFB0
:0109C900220B
:1009CA00E4FFEF90070E93600AF5993099FDC299FA
:0309DA000F80EF9C
:0109DD0022F7
:1009DE00E4FFEF90071F93600AF5993099FDC299D5
:0309EE000F80EF88
:0109F10022E3
:1008620030031CE531D395575006D280D2818004E3
:10087200C280C281E531C3940A4008E4F53122C244
:0408820080C281228D
:1008860030011CE558D395565006D282D283800497
:10089600C282C283E558C3940A4008E4F55822C2CE
:0408A60082C2832265
:03000B000208AA3E
:1008AA00C0E0C0D0758CFC758A18053DE53D700224
:1008BA00053C05310558120862120886D0D0D0E0EE
:0108CA0032FB
:10073000E53E70107451253EF8E62445F8E6547FF6
:10074000F580800C7451253EF8E62445F8E6F580E6
:10075000E53E7006C2A1D2A2D2A3E53EB40106D204
:10076000A1C2A2D2A3E53EB40206D2A1D2A2C2A3E4
:0D077000053EE53EC394034003E4F53E2240
:1008EB00D2A5000000000000000000000000000086
:0A08FB0000000000000000C2A5226A
:030452001208EBA2
:1004550030A4FDD28C20A4FDC28CAF8CEFFEAD8AFA
:100465007C00E42DF53DEC3EF53CE4F58CF58AACDD
:100475003CAD3D1201C97B9A7A9979D9783F120032
:100485001EE4FBFA79C878421201271202028F4353
:100495008E428D418C40E47BE87A03F9F81202BF65
:1004A500AC00AD01AE02AF03E47B64FAF9F81202C9
:1004B500BF8F51E47BE87A03F9F8AF43AE42AD4113
:1004C500AC401202BFAC00AD01AE02AF03E47B64E9
:1004D500FAF9F81202BFAC00AD01AE02AF03E47B3E
:1004E5000AFAF9F81202BF8F52E47BE87A03F9F8A9
:1004F500AF43AE42AD41AC401202BFAC00AD01AE60
:1005050002AF03E47B0AFAF9F81202BFAC00AD01B1
:10051500AE02AF03E47B0AFAF9F81202BFAF038F0C
:0205250053225F
:10037000755705E4F535F536D3E53694A0E53594A3
:100380000F40F51204528543288542278541268572
:100390004025755717E4F535F536D3E53694A0E5D5
:1003A00035940F40F512045285433085422F854124
:1003B0002E85402D75570EE4F535F536D3E5369488
:1003C000A0E535940F40F51208EB1204558543243F
:1003D000854223854122854021E47F14FEFDFCAB4C
:1003E00028AA27A926A825C312035F4013E47F1477
:1003F000FEFDFCAB30AA2FA92EA82D12035F5013CF
:10040000120934E4F535F536D3E53694D0E5359464
:100410000740F5AF30AE2FAD2EAC2DAB28AA27A9E3
:1004200026A825D312035F4015120962E4F535F5BD
:1004300036D3E53694DCE5359405501580F3120982
:100440004BE4F535F536D3E53694DCE535940540D7
:02045000F52293
:10090500E531D395575004D2A78002C2A7E531C37C
:0809150094C84003E4F531220F
:03001B000207B920
:1007B900C0E0C0D075D010758DFF758B9C0536E5EE
:1007C900367002053505311209050544E544C3941F
:0E07D900144006754400120730D0D0D0E03234
:10052700758911758DFF758B9C758CFC758A18D232
:100537008ED2ABD2A9D2AF7F647E001208CB75579B
:100547000E30B60830B50512091D80F530B5032009
:10055700B6EF30B61A20B517D294C295C296D29785
:10056700C290D291D292C2937F327E001208CB30D2
:10057700B51A20B617D290C291C292D293C294D222
:1005870095D296C2977F327E001208CB20B5BD2048
:10059700B6BAC3E53694E8E535940340AFE4F535DC
:1005A700F5361208EB120455E47F19FEFDFCAB4348
:1005B700AA42A941A840C312035F50081209F212C8
:1005C70003708088E47F1EFEFDFCAB43AA42A9416D
:1005D700A840D312035F500302055312091D0205F9
:0105E70053C0
:10083A00C204D2937F05120003C2937FC812000339
:10084A007FC8120003D2937F32120003A29392044C
:07085A007F19120003A20444
:010861002274
:10081100E4F508F509750808C293E509C313F5095C
:10082100D2933093034309807F191200031508E521
:0808310008D3940050E2AF0966
:01083900229C
:0207E7008F0A77
:1007E900E4F50B750B08C293E50A1392937F19126E
:1007F9000003D293E50AC313F50A150BE50BD3944D
:080809000050E37F1902000317
:10077D00E4F50CFFFEFDFC12083A7FCC1207E77F73
:10078D00441207E77F0A12097912083A7FCC120743
:10079D00E77FBE1207E71208118F0C120811EF7FC9
:0B07AD0000FEEF250CFDE43EFEAF0552
:0107B800221E
:03000300DFFE22FB
:10097900AE07AF061EEF600C7FF51200037FF5127C
:05098900000380EE22D6
:10001E00EC4D6011E8497017ED33EC3304600DE4DC
:10002E00FCFFFEFD22E933E8330470F802026E1283
:10003E00023958046009E4CC248150062850090284
:10004E000278284003020275C0E0EB4A7044B98082
:10005E0006D0E0FB020264EF4E701CBD8008EBFF81
:10006E00EAFEE9FD80EBE98DF0A4FEE5F002010762
:10007E00E9CDF9EAFEEBFFEF89F0A4FCE5F0CE89BD
:10008E00F0A42EFFE435F0CD89F0A42DFEE435F07A
:10009E008067EF4E7005BD80D780C3EF8BF0A4ACA8
:1000AE00F0EE8BF0A42CFCE435F0F8EF8AF0A42CE3
:1000BE00E5F038FCE433CB8DF0A42CFCE5F03BF8F6
:1000CE00EE8AF0A42CFCE5F038F8E433CF89F0A4E6
:1000DE002CFCE5F038CF3400CE89F0A42FFFE5F0EC
:1000EE003EFEE433C98DF0A42EFEE5F039CD8AF044
:1000FE00A42FFFE5F03EFEE43DFD33D0E0FB5007BC
:10010E000BBB000F020278EC2CFCEF33FFEE33FE3C
:06011E00ED33FD0202506A
:10012400020278EC5D046005E85904700302026E73
:10013400120239580460F6EC4860F2EC7004FDFEDB
:10014400FF22C860DB2481C85009C39860025006AE
:100154000202759850CAF582E9294B4A7005AB82B0
:1001640002026475F0007C1A7880C3EF9BEE9AED6E
:1001740099400DC3EF9BFFEE9AFEED99FDE842F026
:10018400DC23ACF0D0E0FFD0E0FED0E0FDAB822079
:10019400E7101BEB60BAEC2CFCEF33FFEE33FEED03
:1001A40033FD020250E803F830E705C0F075F000B3
:1001B400EF2FFFEE33FEED33FD40B830E7C280AAE7
:1001C40075F020800E75F010800575F0087D007EB6
:1001D400007F003392D530D503120351EC33401025
:1001E400EF33FFEE33FEED33FDEC33FCD5F0ED22BF
:0E01F400E5F0247EA2D513CC92E7CDCEFF22FB
:10020200EDD2E7CD33EC3392D524814006E4FFFEF4
:10021200FDFC22FCE4CFCECDCC24E0501174FF8053
:10022200EDC3CC13CCCD13CDCE13CECF13CF0470F0
:07023200F030D5DE0203519C
:10023900E9D2E7C933E833F892D5EDD2E7CD33EC0B
:0702490033FC5002B2D52284
:10025000EC30E7100FBF000C0EBE00080DBD00040F
:100260000BEB6014A2D5EB13FCED92E7FD2274FFBB
:10027000FCFDFEFF22E480F8A2D574FF13FC7D8014
:03028000E480EF28
:030000000205E80E
:0C05E800787FE4F6D8FD75815802062FDC
:1002830075F008758200EF2FFFEE33FECD33CDCC32
:1002930033CCC58233C5829BED9AEC99E5829840B5
:1002A3000CF582EE9BFEED9AFDEC99FC0FD5F0D692
:1002B300E4CEFBE4CDFAE4CCF9A88222B800C1B9BC
:1002C3000059BA002DEC8BF084CFCECDFCE5F0CBFA
:1002D300F97818EF2FFFEE33FEED33FDEC33FCEB33
:1002E30033FB10D703994004EB99FB0FD8E5E4F9EE
:1002F300FA227818EF2FFFEE33FEED33FDEC33FCDB
:10030300C933C910D7059BE99A4007EC9BFCE99ACE
:10031300F90FD8E0E4C9FAE4CCFB2275F010EF2F13
:10032300FFEE33FEED33FDCC33CCC833C810D70713
:100333009BEC9AE899400AED9BFDEC9AFCE899F84E
:0E0343000FD5F0DAE4CDFBE4CCFAE4C8F922E1
:0E035100C3E49FFFE49EFEE49DFDE49CFC22BD
:10035F00EB9FF5F0EA9E42F0E99D42F0E89C45F0F4
:01036F00226B
:1005F400020527E493A3F8E493A34003F68001F2F1
:1006040008DFF48029E493A3F85407240CC8C33307
:10061400C4540F4420C8834004F456800146F6DFD6
:10062400E4800B0102040810204080900674E47EEC
:10063400019360BCA3FF543F30E509541FFEE493CB
:10064400A360010ECF54C025E060A840B8E493A392
:10065400FAE493A3F8E493A3C8C582C8CAC583CABD
:10066400F0A3C8C582C8CAC583CADFE9DEE780BE75
:0106DA00001F
:00000001FF
