:1006DB00CAD5B5BDD6B8C1EEA3ACCFF2C7B0210A0F
:1006EB0000CAD5B5BDD6B8C1EEA3ACCFF2BAF321D3
:1006FB000A00CAD5B5BDD6B8C1EEA3ACCFF2D7F3BD
:10070B00210A00CAD5B5BDD6B8C1EEA3ACCFF2D382
:10071B00D2210A00CAD5B5BDD6B8C1EEA3ACCDA3C4
:05072B00D6B9210A000F
:10067400C102C100015500013F0005370000000020
:1006840000013100015700015800015600C181C129
:1006940083023C00000C45C0F9A4B0999282F88012
:1006A40090BFFF0332FEFDFB045100000000013E39
:1006B40000044000000000042100000000042500A4
:1006C400000000042900000000042D0000000002C6
:0606D400350000014400A6
:10081400E4FDFCC3ED9FEC9E5015E4FBFA0BBB001A
:0F082400010ABA07F8BBD0F50DBD00010C80E446
:0108330022A2
:10086600755704755604D294C295C296D297D29003
:07087600C291C292D293224D
:10087D00755706755606C290D291D292C293C29404
:07088D00D295D296C297221A
:10089400755704755604D294C295C296D297C290E5
:0708A400D291D292C293220F
:1008AB00755704755604C294D295D296C297D290BE
:0708BB00C291C292D2932208
:10092600C294C295C296C297C290C291C292C29315
:01093600229E
:1008C200E4FFEF9006DB93600AF5993099FDC29937
:0308D2000F80EFA5
:0108D5002200
:1008D600E4FFEF9006EC93600AF5993099FDC29912
:0308E6000F80EF91
:0108E90022EC
:1008EA00E4FFEF9006FD93600AF5993099FDC299ED
:0308FA000F80EF7D
:0108FD0022D8
:1008FE00E4FFEF90070E93600AF5993099FDC299C7
:03090E000F80EF68
:0109110022C3
:10091200E4FFEF90071F93600AF5993099FDC299A1
:030922000F80EF54
:0109250022AF
:1007AB0030031CE531D395575006D280D28180049B
:1007BB00C280C281E531C3940A4008E4F53122C2FC
:0407CB0080C2812245
:1007CF0030011CE558D395565006D282D28380044F
:1007DF00C282C283E558C3940A4008E4F55822C286
:0407EF0082C283221D
:03000B000207F3F6
:1007F300C0E0C0D0758CFC758A18053DE53D7002DC
:10080300053C053105581207AB1207CFD0D0D0E015
:0108130032B2
:10073000E53E70107451253EF8E62445F8E6547FF6
:10074000F580800C7451253EF8E62445F8E6F580E6
:10075000E53E7006C2A1D2A2D2A3E53EB40106D204
:10076000A1C2A2D2A3E53EB40206D2A1D2A2C2A3E4
:0D077000053EE53EC394034003E4F53E2240
:10083400D2A500000000000000000000000000003D
:0A08440000000000000000C2A52221
:0304520012083459
:1004550030A4FDD28C20A4FDC28CAF8CEFFEAD8AFA
:100465007C00E42DF53DEC3EF53CE4F58CF58AACDD
:100475003CAD3D1201C97B9A7A9979D9783F120032
:100485001EE4FBFA79C878421201271202028F4353
:100495008E428D418C40E47BE87A03F9F81202BF65
:1004A500AC00AD01AE02AF03E47B64FAF9F81202C9
:1004B500BF8F51E47BE87A03F9F8AF43AE42AD4113
:1004C500AC401202BFAC00AD01AE02AF03E47B64E9
:1004D500FAF9F81202BFAC00AD01AE02AF03E47B3E
:1004E5000AFAF9F81202BF8F52E47BE87A03F9F8A9
:1004F500AF43AE42AD41AC401202BFAC00AD01AE60
:1005050002AF03E47B0AFAF9F81202BFAC00AD01B1
:10051500AE02AF03E47B0AFAF9F81202BFAF038F0C
:0205250053225F
:10037000755705E4F535F536D3E53694A0E53594A3
:100380000F40F51204528543288542278541268572
:100390004025755717E4F535F536D3E53694A0E5D5
:1003A00035940F40F512045285433085422F854124
:1003B0002E85402D75570EE4F535F536D3E5369488
:1003C000A0E535940F40F5120834120455854324F6
:1003D000854223854122854021E47F14FEFDFCAB4C
:1003E00028AA27A926A825C312035F4013E47F1477
:1003F000FEFDFCAB30AA2FA92EA82D12035F5013CF
:1004000012087DE4F535F536D3E53694D0E535941C
:100410000740F5AF30AE2FAD2EAC2DAB28AA27A9E3
:1004200026A825D312035F40151208ABE4F535F575
:1004300036D3E53694DCE5359405501580F3120883
:1004400094E4F535F536D3E53694DCE5359405408E
:02045000F52293
:10084E00E531D395575004D2A78002C2A7E531C334
:08085E0094C84003E4F53122C7
:03001B0002077D5C
:10077D00C0E0C0D075D010758DFF758B9C0536E52A
:10078D003670020535053112084E0544E544C39413
:0E079D00144006754400120730D0D0D0E03270
:10052700758911758DFF758B9C758CFC758A18D232
:100537008ED2ABD2A9D2AF7F647E00120814755752
:100547000E30B60830B50512086680F530B50320C1
:10055700B6EF30B61A20B517D294C295C296D29785
:10056700C290D291D292C2937F327E001208143089
:10057700B51A20B617D290C291C292D293C294D222
:1005870095D296C2977F327E0012081420B5BD20FF
:10059700B6BAC3E53694E8E535940340AFE4F535DC
:1005A700F536120834120455E47F19FEFDFCAB43FF
:1005B700AA42A941A840C312035F50081209261294
:1005C70003708088E47F1EFEFDFCAB43AA42A9416D
:1005D700A840D312035F50030205531208660205B1
:0105E70053C0
:10001E00EC4D6011E8497017ED33EC3304600DE4DC
:10002E00FCFFFEFD22E933E8330470F802026E1283
:10003E00023958046009E4CC248150062850090284
:10004E000278284003020275C0E0EB4A7044B98082
:10005E0006D0E0FB020264EF4E701CBD8008EBFF81
:10006E00EAFEE9FD80EBE98DF0A4FEE5F002010762
:10007E00E9CDF9EAFEEBFFEF89F0A4FCE5F0CE89BD
:10008E00F0A42EFFE435F0CD89F0A42DFEE435F07A
:10009E008067EF4E7005BD80D780C3EF8BF0A4ACA8
:1000AE00F0EE8BF0A42CFCE435F0F8EF8AF0A42CE3
:1000BE00E5F038FCE433CB8DF0A42CFCE5F03BF8F6
:1000CE00EE8AF0A42CFCE5F038F8E433CF89F0A4E6
:1000DE002CFCE5F038CF3400CE89F0A42FFFE5F0EC
:1000EE003EFEE433C98DF0A42EFEE5F039CD8AF044
:1000FE00A42FFFE5F03EFEE43DFD33D0E0FB5007BC
:10010E000BBB000F020278EC2CFCEF33FFEE33FE3C
:06011E00ED33FD0202506A
:10012400020278EC5D046005E85904700302026E73
:10013400120239580460F6EC4860F2EC7004FDFEDB
:10014400FF22C860DB2481C85009C39860025006AE
:100154000202759850CAF582E9294B4A7005AB82B0
:1001640002026475F0007C1A7880C3EF9BEE9AED6E
:1001740099400DC3EF9BFFEE9AFEED99FDE842F026
:10018400DC23ACF0D0E0FFD0E0FED0E0FDAB822079
:10019400E7101BEB60BAEC2CFCEF33FFEE33FEED03
:1001A40033FD020250E803F830E705C0F075F000B3
:1001B400EF2FFFEE33FEED33FD40B830E7C280AAE7
:1001C40075F020800E75F010800575F0087D007EB6
:1001D400007F003392D530D503120351EC33401025
:1001E400EF33FFEE33FEED33FDEC33FCD5F0ED22BF
:0E01F400E5F0247EA2D513CC92E7CDCEFF22FB
:10020200EDD2E7CD33EC3392D524814006E4FFFEF4
:10021200FDFC22FCE4CFCECDCC24E0501174FF8053
:10022200EDC3CC13CCCD13CDCE13CECF13CF0470F0
:07023200F030D5DE0203519C
:10023900E9D2E7C933E833F892D5EDD2E7CD33EC0B
:0702490033FC5002B2D52284
:10025000EC30E7100FBF000C0EBE00080DBD00040F
:100260000BEB6014A2D5EB13FCED92E7FD2274FFBB
:10027000FCFDFEFF22E480F8A2D574FF13FC7D8014
:03028000E480EF28
:030000000205E80E
:0C05E800787FE4F6D8FD75815802062FDC
:1002830075F008758200EF2FFFEE33FECD33CDCC32
:1002930033CCC58233C5829BED9AEC99E5829840B5
:1002A3000CF582EE9BFEED9AFDEC99FC0FD5F0D692
:1002B300E4CEFBE4CDFAE4CCF9A88222B800C1B9BC
:1002C3000059BA002DEC8BF084CFCECDFCE5F0CBFA
:1002D300F97818EF2FFFEE33FEED33FDEC33FCEB33
:1002E30033FB10D703994004EB99FB0FD8E5E4F9EE
:1002F300FA227818EF2FFFEE33FEED33FDEC33FCDB
:10030300C933C910D7059BE99A4007EC9BFCE99ACE
:10031300F90FD8E0E4C9FAE4CCFB2275F010EF2F13
:10032300FFEE33FEED33FDCC33CCC833C810D70713
:100333009BEC9AE899400AED9BFDEC9AFCE899F84E
:0E0343000FD5F0DAE4CDFBE4CCFAE4C8F922E1
:0E035100C3E49FFFE49EFEE49DFDE49CFC22BD
:10035F00EB9FF5F0EA9E42F0E99D42F0E89C45F0F4
:01036F00226B
:1005F400020527E493A3F8E493A34003F68001F2F1
:1006040008DFF48029E493A3F85407240CC8C33307
:10061400C4540F4420C8834004F456800146F6DFD6
:10062400E4800B0102040810204080900674E47EEC
:10063400019360BCA3FF543F30E509541FFEE493CB
:10064400A360010ECF54C025E060A840B8E493A392
:10065400FAE493A3F8E493A3C8C582C8CAC583CABD
:10066400F0A3C8C582C8CAC583CADFE9DEE780BE75
:0106DA00001F
:00000001FF
