:03000000020321D7
:0C032100787FE4F6D8FD75815202036875
:10051500204C5F5F5F20465F5F5F20525F5F5F201B
:10052500002020202073616665206E6F77202020D3
:10053500200020202064616E676572206E6F772031
:10054500202000202020696E707574206469737402
:0F0555002020200030313233343536373839002A
:100672001127204C5F5F5F20465F5F5F20525F5F04
:060682005F200001400AA8
:10000300E4F549F54A1206F57BFF7A057948E4FDE4
:10001300FF1204C47BFF7A0579157D01E4FF120406
:10002300C41202808F40E540B40B167B007A00793E
:1000330027750D10E4FD7FA01205A0854947854A69
:1000430048E540B40C237B007A007927750D10E452
:10005300FD7FA01204717B007A0079277D01E4FF04
:100063001204C485474985484AE540B40DB3054A9F
:10007300E54A70020549640145496003020122F51E
:1000830045754602C3E5469405E545648094804082
:10009300030201221202808F40C3E5406480948AE8
:1000A30050E2EF3395E0FE74592FF58274053EF567
:1000B30083E493FF74272546F8A6077B007A00792B
:1000C300277D01E4FF1204C4E5464545700D120285
:1000D30080EF75F064A485F041F542E5466401457F
:1000E30045700D120280EF75F00AA485F04FF550AC
:1000F300E5466402454570081202807523008F248B
:10010300E5422550FFE541354FFEE5242FF53DE55A
:10011300233EF53C0546E54670020545020087E5AA
:100123004A6402454960030201CDF545754607C39C
:10013300E546940AE5456480948040030201CD12AC
:1001430002808F40C3E5406480948A50E2EF339588
:10015300E0FE74592FF58274053EF583E493FF7432
:10016300272546F8A6077B007A0079277D01E4FF5F
:100173001204C4E5464545700D120280EF75F06424
:10018300A485F03EF53FE54664014545700D120236
:1001930080EF75F00AA485F04DF54EE546640245FF
:1001A3004570081202807551008F52E53F254EFFBE
:1001B300E53E354DFEE5522FF53BE5513EF53A055B
:1001C30046E54670020545020132E54A64034549A6
:1001D3006003020024F54575460CC3E546940FE51C
:1001E300456480948040030202781202808F40C3EA
:1001F300E5406480948A50E2EF3395E0FE74592F12
:10020300F58274053EF583E493FF74272546F8A62B
:10021300077B007A0079277D01E4FF1204C4E546D9
:100223004545700D120280EF75F064A485F043F527
:1002330044E54664014545700D120280EF75F00AEE
:10024300A485F021F522E5466402454570081202B3
:10025300807525008F26E5442522FFE5433521FEE1
:10026300E5262FF539E5253EF5380546E5467002C6
:0D02730005450201DDE4F549F54A020024CD
:03073C00DFFE22BB
:1006B600AE07AF061EEF600C7FF512073C7FF51202
:0506C600073C80EE225C
:1006CB00E4FDEDC39FE49E500B7C017B02DBFEDC63
:0406DB00FA0D80EEA6
:0106DF0022F8
:1005DA00D2A17F017E001206CBD2A07F017E00123B
:1005EA0006CBC2A17F017E001206CBC2A07F017E8C
:0405FA00000206CB2A
:10063E00C2A17F017E001206CBD2A07F017E0012E6
:0B064E0006CBD2A17F017E000206CB8C
:0203AD008F13AC
:1003AF00E4F514F515F514E513C4131313540124D0
:1003BF00FF92A1E51325E0F5137F017E001206CB16
:1003CF00D2A07F017E001206CBC2A07F017E001259
:1003DF0006CB0514E514C3940840CCD2A17F017E4F
:1003EF00001206CBD2A030A1150515E515D394C880
:1003FF0040F4C2A07F017E001206CB7F0022C2A074
:09040F007F017E001206CB7F0183
:0104180022C1
:100689008F121205DA7F7C1203AD7F801203ADAFA2
:07069900121203AD02063E40
:1006F5007F381206897F0C1206897F011206897FD1
:04070500020206B630
:100659008B1153050153070FED600343074043070F
:0906690080120689AF110206227D
:100622008F121205DA7F7C1203ADAF121203AD7F77
:0C063200401203ADAF121203AD02063EF1
:0A04C4008F088D098B0A8A0B890C42
:1004CE001206E08E0F8F10E4F50DF50EC3E50E95B6
:1004DE0010E50D950F502FAB0AAA0BA90C850E82B5
:1004EE00850D83120432FBAD09AF081206590508BB
:1004FE00E508D3941040050509E4F508050EE50E50
:06050E0070CA050D80C655
:0105140022C4
:100280007590FFC2932097063097FD7F012220963C
:10029000063096FD7F04222095063095FD7F0722CB
:1002A0002094063094FD7F0B227590FFC292209718
:1002B000063097FD7F02222096063096FD7F0522AC
:1002C0002095063095FD7F08222094063094FD7F0E
:1002D00000227590FFC2912097063097FD7F032280
:1002E0002096063096FD7F06222095063095FD7FEC
:1002F00009222094063094FD7F0C227590FFC29055
:100300002097063097FD7F0D222096063096FD7FC0
:100310000E222095063095FD7F0F227590FF7F0AF3
:0103200022BA
:1006A000D2A100D2A00000000000C2A10000000002
:0606B00000C2A0000022C0
:10070900C2A100D2A00000000000D2A10000000098
:0107190022BD
:10056400E4FEEFA806088002C333D8FC30E704D2C7
:10057400A18002C2A100D2A00000000000C2A00E0F
:10058400BE08DF0000D2A10000D2A000000030A10C
:0B05940004C2008002D200C2A00000E0
:01059F002239
:1005FE00E4FFD2A1FE00C2A00000000000D2A000C5
:10060E0000EF25E0FF30A1010F00000EBE08E6C28C
:03061E00A0000039
:0106210022B6
:10071A00C2A1000000D2A00000000000C2A0000098
:01072A0022AC
:10072B00D2A1000000D2A00000000000C2A0000077
:01073B00229B
:0205A000AE07A4
:1005A2001206A0120564200002C322AF05120564E0
:1005B200200002C322E4FDEDC3950D50161204196A
:1005C200FF120564200002C322740129F9E43AFAF9
:0705D2000D80E4120709D3BC
:0105D90022FF
:02047100AC07D6
:100473001206A0120564200002C322AF0512056410
:10048300200002C3221206A0EC04FF120564200020
:1004930002C322E4FDE50D14FFEDC39F50141205C2
:1004A300FEEF12045F12071A740129F9E43AFA0DF8
:1004B30080E31205FEEF12045F12072B120709D324
:0104C3002216
:10032D00020003E493A3F8E493A34003F68001F2E3
:10033D0008DFF48029E493A3F85407240CC8C333D1
:10034D00C4540F4420C8834004F456800146F6DFA0
:10035D00E4800B0102040810204080900672E47EB8
:10036D00019360BCA3FF543F30E509541FFEE49395
:10037D00A360010ECF54C025E060A840B8E493A35C
:10038D00FAE493A3F8E493A3C8C582C8CAC583CA87
:10039D00F0A3C8C582C8CAC583CADFE9DEE780BE3F
:010688000071
:10041900BB010689828A83E0225002E722BBFE02E1
:09042900E32289828A83E4932214
:10043200BB010CE58229F582E5833AF583E022507F
:1004420006E92582F8E622BBFE06E92582F8E222C9
:0D045200E58229F582E5833AF583E49322E3
:10045F00BB010689828A83F0225002F722BBFE017C
:02046F00F32276
:1006E000E4FFFE120419600C0FEF70010E09E970AF
:0506F000F20A80EF2278
:00000001FF
