:03000000020327D1
:0C032700787FE4F6D8FD75815202036E69
:10051B00204C5F5F5F20465F5F5F20525F5F5F2015
:10052B00002020202073616665206E6F77202020CD
:10053B00200020202064616E676572206E6F77202B
:10054B00202000202020696E7075742064697374FC
:0F055B0020202000303132333435363738390024
:100678001127204C5F5F5F20465F5F5F20525F5FFE
:060688005F200001400AA2
:10000300E4F549F54A1206FB7BFF7A05794EE4FDD8
:10001300FF1204CA7BFF7A05791B7D01E4FF1204FA
:10002300CA1202868F40E540B40B167B007A007932
:1000330027750D10E4FD7FA01205A6854947854A63
:1000430048E540B40C237B007A007927750D10E452
:10005300FD7FA01204777B007A0079277D01E4FFFE
:100063001204CA85474985484AE540B40DB3054A99
:10007300E54A70020549640145496003020124F51C
:1000830045754602C3E5469405E545648094804082
:10009300030201241202868F40C3E5406480948AE0
:1000A30050E2E5464545700D120286EF75F064A4F3
:1000B30085F041F542E54664014545700D1202861F
:1000C300EF75F00AA485F04FF550E5466402454507
:1000D30070081202867523008F24E5422550FFE540
:1000E30041354FFEE5242FF53DE5233EF53CAF407A
:1000F300EF3395E0FE745F2FF58274053EF583E4DC
:1001030093FF74272546F8A6077B007A0079277D9D
:1001130001E4FF1204CA0546E546700205450200E4
:1001230087E54A6402454960030201D1F5457546F6
:1001330007C3E546940AE5456480948040030201C1
:10014300D11202868F40C3E5406480948A50E2E571
:10015300464545700D120286EF75F064A485F03EA6
:10016300F53FE54664014545700D120286EF75F0D3
:100173000AA485F04DF54EE5466402454570081224
:1001830002867551008F52E53F254EFFE53E354D02
:10019300FEE5522FF53BE5513EF53AAF40EF33957F
:1001A300E0FE745F2FF58274053EF583E493FF74DC
:1001B300272546F8A6077B007A0079277D01E4FF0F
:1001C3001204CA0546E54670020545020134E54AB4
:1001D300640345496003020024F54575460CC3E5F5
:1001E30046940FE54564809480400302027E120228
:1001F300868F40C3E5406480948A50E2E5464545D6
:10020300700D120286EF75F064A485F043F544E5A2
:100213004664014545700D120286EF75F00AA48508
:10022300F021F522E5466402454570081202867501
:1002330025008F26E5442522FFE5433521FEE526EB
:100243002FF539E5253EF538AF40EF3395E0FE74E1
:100253005F2FF58274053EF583E493FF74272546EB
:10026300F8A6077B007A0079277D01E4FF1204CA10
:100273000546E546700205450201E1E4F549F54A04
:0302830002002452
:03074200DFFE22B5
:1006BC00AE07AF061EEF600C7FF51207427FF512F6
:0506CC00074280EE2250
:1006D100E4FDEDC39FE49E500B7C017B02DBFEDC5D
:0406E100FA0D80EEA0
:0106E50022F2
:1005E000D2A17F017E001206D1D2A07F017E00122F
:1005F00006D1C2A17F017E001206D1C2A07F017E7A
:04060000000206D11D
:10064400C2A17F017E001206D1D2A07F017E0012DA
:0B06540006D1D2A17F017E000206D17A
:0203B3008F13A6
:1003B500E4F514F515F514E513C4131313540124CA
:1003C500FF92A1E51325E0F5137F017E001206D10A
:1003D500D2A07F017E001206D1C2A07F017E00124D
:1003E50006D10514E514C3940840CCD2A17F017E43
:1003F500001206D1D2A030A1150515E515D394C874
:1004050040F4C2A07F017E001206D17F0022C2A067
:090415007F017E001206D17F0177
:01041E0022BB
:10068F008F121205E07F7C1203B37F801203B3AF8A
:07069F00121203B30206442E
:1006FB007F3812068F7F0C12068F7F0112068F7FB9
:04070B00020206BC24
:10065F008B1153050153070FED6003430740430709
:09066F008012068FAF110206286B
:100628008F121205E07F7C1203B3AF121203B37F5F
:0C063800401203B3AF121203B3020644D9
:0A04CA008F088D098B0A8A0B890C3C
:1004D4001206E68E0F8F10E4F50DF50EC3E50E95AA
:1004E40010E50D950F502FAB0AAA0BA90C850E82AF
:1004F400850D83120438FBAD09AF0812065F0508A9
:10050400E508D3941040050509E4F508050EE50E49
:0605140070CA050D80C64F
:01051A0022BE
:100286007590FFC2932097063097FD7F0122209636
:10029600063096FD7F04222095063095FD7F0722C5
:1002A6002094063094FD7F0B227590FFC292209712
:1002B600063097FD7F02222096063096FD7F0522A6
:1002C6002095063095FD7F08222094063094FD7F08
:1002D60000227590FFC2912097063097FD7F03227A
:1002E6002096063096FD7F06222095063095FD7FE6
:1002F60009222094063094FD7F0C227590FFC2904F
:100306002097063097FD7F0D222096063096FD7FBA
:100316000E222095063095FD7F0F227590FF7F0AED
:0103260022B4
:1006A600D2A100D2A00000000000C2A100000000FC
:0606B60000C2A0000022BA
:10070F00C2A100D2A00000000000D2A10000000092
:01071F0022B7
:10056A00E4FEEFA806088002C333D8FC30E704D2C1
:10057A00A18002C2A100D2A00000000000C2A00E09
:10058A00BE08DF0000D2A10000D2A000000030A106
:0B059A0004C2008002D200C2A00000DA
:0105A5002233
:10060400E4FFD2A1FE00C2A00000000000D2A000BE
:1006140000EF25E0FF30A1010F00000EBE08E6C286
:03062400A0000033
:0106270022B0
:10072000C2A1000000D2A00000000000C2A0000092
:0107300022A6
:10073100D2A1000000D2A00000000000C2A0000071
:010741002295
:0205A600AE079E
:1005A8001206A612056A200002C322AF0512056AC8
:1005B800200002C322E4FDEDC3950D501612041F5E
:1005C800FF12056A200002C322740129F9E43AFAED
:0705D8000D80E412070FD3B0
:0105DF0022F9
:02047700AC07D0
:100479001206A612056A200002C322AF0512056AF8
:10048900200002C3221206A6EC04FF12056A20000E
:1004990002C322E4FDE50D14FFEDC39F50141206BB
:1004A90004EF120465120720740129F9E43AFA0DE0
:1004B90080E3120604EF12046512073112070FD305
:0104C9002210
:10033300020003E493A3F8E493A34003F68001F2DD
:1003430008DFF48029E493A3F85407240CC8C333CB
:10035300C4540F4420C8834004F456800146F6DF9A
:10036300E4800B0102040810204080900678E47EAC
:10037300019360BCA3FF543F30E509541FFEE4938F
:10038300A360010ECF54C025E060A840B8E493A356
:10039300FAE493A3F8E493A3C8C582C8CAC583CA81
:1003A300F0A3C8C582C8CAC583CADFE9DEE780BE39
:01068E00006B
:10041F00BB010689828A83E0225002E722BBFE02DB
:09042F00E32289828A83E493220E
:10043800BB010CE58229F582E5833AF583E0225079
:1004480006E92582F8E622BBFE06E92582F8E222C3
:0D045800E58229F582E5833AF583E49322DD
:10046500BB010689828A83F0225002F722BBFE0176
:02047500F32270
:1006E600E4FFFE12041F600C0FEF70010E09E970A3
:0506F600F20A80EF2272
:00000001FF
