:030000000203B543
:0C03B500787FE4F6D8FD75813A0203FC65
:1004AD00204C5F5F5F20465F5F5F20525F5F5F2084
:1004BD00002020202073616665206E6F772020203C
:1004CD00200020202064616E676572206E6F77209A
:1004DD00202000202020696E70757420646973746B
:1004ED002020200030313233343536373839005F33
:0B04FD005F5F005F5F5F005F5F5F00FC
:1006D10004105F5F5F00040C5F5F5F0004085F5FF1
:0506E1005F0001140A96
:1000030012073C7BFF7A0479E0E4FDFF12055B7B7A
:10001300FF7A0479AD7D01E4FF12055BE5246401F9
:100023004523702FFB7A0079107532037D027FA080
:100033001205087B007A00790C7532037D047FA0DA
:100043001205087B007A00790C7532037D067FA0C8
:100053001205081203148F14D3E5146480948A40A4
:07006300F2E514640D706E5C
:10006A0078297C00FD7BFF7A0479FCFE7F0412026A
:10007A00967B007A0079297D017F0212055BE4F5FF
:10008A0021F522C3E5229403E52164809480503E41
:10009A001203148F14C3E5146480948A50E5EF3375
:1000AA0095E0FE74F12FF58274043EF583E493FF24
:1000BA0074292522F8A6077B007A0079297D017F19
:0E00CA000212055B0522E52270B9052180B502
:0600D800E514640E706ED9
:1000DE0078297C00FD7BFF7A057900FE7F041202F1
:1000EE00967B007A0079297D017F0712055BE4F586
:1000FE0021F522C3E5229403E52164809480503ECD
:10010E001203148F14C3E5146480948A50E5EF3300
:10011E0095E0FE74F12FF58274043EF583E493FFAF
:10012E0074292522F8A6077B007A0079297D017FA4
:0E013E000712055B0522E52270B9052180B588
:09014C00E514640F600302005683
:1001550078297C00FD7BFF7A057904FE7F04120275
:10016500967B007A0079297D017F0C12055BE4F509
:1001750021F522C3E5229403E521648094804003A0
:100185000200561203148F14C3E5146480948A5038
:10019500E2EF3395E0FE74F12FF58274043EF583AA
:1001A500E493FF74292522F8A6077B007A007929B4
:1001B5007D017F0C12055B0522E52270B6052180C5
:0101C500B287
:03078300DFFE2274
:1006FD00AE07AF061EEF600C7FF51207837FF51274
:05070D00078380EE22CD
:10071200E4FDEDC39FE49E500B7C017B02DBFEDC1B
:04072200FA0D80EE5E
:0107260022B0
:10062200D2A17F017E00120712D2A07F017E0012AA
:100632000712C2A17F017E00120712C2A07F017EB3
:040642000002071299
:10068600C2A17F017E00120712D2A07F017E001256
:0B0696000712D2A17F017E00020712B4
:020441008F38F2
:10044300E4F539F53AF539E538C4131313540124A7
:10045300FF92A1E53825E0F5387F017E00120712EF
:10046300D2A07F017E00120712C2A07F017E00127C
:1004730007120539E539C3940840CCD2A17F017E28
:1004830000120712D2A030A115053AE53AD394C859
:1004930040F4C2A07F017E001207127F0022C2A097
:0904A3007F017E001207127F01A7
:0104AC00222D
:1006BA008F371206227F7C1204417F80120441AFD9
:0706CA00371204410206860D
:10073C007F381206BA7F0C1206BA7F011206BA7FF6
:04074C00020206FDA2
:1006A1008B3653050153070FED60034307404307A2
:0906B100801206BAAF3602066A97
:10066A008F371206227F7C120441AF371204417F72
:0C067A0040120441AF3712044102068612
:0A055B008F2D8D2E8B2F8A308931F1
:100565001207278E348F35E4F532F533C3E533951D
:1005750035E5329534502FAB2FAA30A9318533821A
:100585008532831202D5FBAD2EAF2D1206A1052DA6
:10059500E52DD394104005052EE4F52D0533E533FF
:0605A50070CA053280C699
:0105AB00222D
:100314007F0A7590FFC2932097063097FD7F0122D4
:100324002096063096FD7F04222095063095FD7FA9
:1003340007222094063094FD7F0B227590FFC29211
:100344002097063097FD7F02222096063096FD7F87
:1003540005222095063095FD7F08222094063094CE
:10036400FD7F00227590FFC2912097063097FD7F94
:1003740003222096063096FD7F06222095063095AE
:10038400FD7F09222094063094FD7F0C227590FF96
:10039400C2902097063097FD7F0D22209606309656
:1003A400FD7F0E222095063095FD7F0F227590FF6C
:0103B4002226
:1006E700D2A100D2A00000000000C2A100000000BB
:0606F70000C2A000002279
:10075000C2A100D2A00000000000D2A10000000051
:010760002276
:1005AC00E4FEEFA806088002C333D8FC30E704D27F
:1005BC00A18002C2A100D2A00000000000C2A00EC7
:1005CC00BE08DF0000D2A10000D2A000000030A1C4
:0B05DC0004C2008002D200C2A0000098
:0105E70022F1
:10064600E4FFD2A1FE00C2A00000000000D2A0007C
:1006560000EF25E0FF30A1010F00000EBE08E6C244
:03066600A00000F1
:01066900226E
:10076100C2A1000000D2A00000000000C2A0000051
:010771002265
:10077200D2A1000000D2A00000000000C2A0000030
:010782002254
:0205E800AE075C
:1005EA001206E71205AC200002C322AF051205ACC1
:1005FA00200002C322E4FDEDC3951A50161202BC74
:10060A00FF1205AC200002C322740129F9E43AFA68
:07061A000D80E4120750D32C
:0106210022B6
:02050800AC073E
:10050A001206E71205AC200002C322AF051205ACA1
:10051A00200002C3221206E7EC04FF1205AC2000F9
:10052A0002C322E4FDE53214FFEDC39F5014120604
:10053A0046EF120302120761740129F9E43AFA0D2F
:10054A0080E3120646EF120302120772120750D313
:01055A00227E
:1003C100020003E493A3F8E493A34003F68001F24F
:1003D10008DFF48029E493A3F85407240CC8C3333D
:1003E100C4540F4420C8834004F456800146F6DF0C
:1003F100E4800B01020408102040809006D1E47EC5
:10040100019360BCA3FF543F30E509541FFEE49300
:10041100A360010ECF54C025E060A840B8E493A3C7
:10042100FAE493A3F8E493A3C8C582C8CAC583CAF2
:10043100F0A3C8C582C8CAC583CADFE9DEE780BEAA
:0106E6000013
:1001C600E709F608DFFA8046E709F208DFFA803E1B
:1001D60088828C83E709F0A3DFFA8032E309F60808
:1001E600DFFA8078E309F208DFFA807088828C8370
:1001F600E309F0A3DFFA806489828A83E0A3F60824
:10020600DFFA805889828A83E0A3F208DFFA804CFD
:1002160080D280FA80C680D4806980F280338010D4
:1002260080A680EA809A80A880DA80E280CA80333D
:1002360089828A83ECFAE493A3C8C582C8CCC583B5
:10024600CCF0A3C8C582C8CCC583CCDFE9DEE78085
:100256000D89828A83E493A3F608DFF9ECFAA9F004
:10026600EDFB2289828A83ECFAE0A3C8C582C8CC5A
:10027600C583CCF0A3C8C582C8CCC583CCDFEADE73
:10028600E880DB89828A83E493A3F208DFF980CCD5
:1002960088F0EF60010E4E60C388F0ED2402B404CE
:1002A6000050B9F582EB2402B4040050AF23234575
:0602B60082239002167382
:1002BC00BB010689828A83E0225002E722BBFE0240
:0902CC00E32289828A83E4932273
:1002D500BB010CE58229F582E5833AF583E02250DE
:1002E50006E92582F8E622BBFE06E92582F8E22228
:0D02F500E58229F582E5833AF583E4932242
:10030200BB010689828A83F0225002F722BBFE01DA
:02031200F322D4
:10072700E4FFFE1202BC600C0FEF70010E09E970C6
:05073700F20A80EF2230
:00000001FF
