:0300000002034AAE
:0C034A00787FE4F6D8FD75815202039123
:10053E00204C5F5F5F20465F5F5F20525F5F5F20F2
:10054E00002020202073616665206E6F77202020AA
:10055E00200020202064616E676572206E6F772008
:10056E00202000202020696E7075742064697374D9
:0F057E0020202000303132333435363738390001
:10069B001127204C5F5F5F20465F5F5F20525F5FDB
:0606AB005F200001400A7F
:10000300E4F549F54A12071E7BFF7A057971E4FD91
:10001300FF1204ED7BFF7A05793E7D01E4FF1204B4
:10002300ED1202A98F40E540B40B167B007A0079EC
:1000330027750D10E4FD7FA01205C9854947854A40
:1000430048E540B40C237B007A007927750D10E452
:10005300FD7FA012049A7B007A0079277D01E4FFDB
:100063001204ED85474985484AE540B40DB3054A76
:10007300E54A7002054964014549600302014BF5F5
:1000830045F546743E2546F58274053545F583E40A
:1000930093FF74272546F8A6070546E54670020533
:1000A30045640F454570DC754500754602C3E5465A
:1000B3009405E54564809480400302014B1202A934
:1000C3008F40C3E5406480948A50E2EF3395E0FEAD
:1000D30074822FF58274053EF583E493FF7427251C
:1000E30046F8A6077B007A0079277D01E4FF120416
:1000F300EDE5464545700D1202A9EF75F064A48540
:10010300F041F542E54664014545700D1202A9EF41
:1001130075F00AA485F04FF550E546640245457035
:10012300081202A97523008F24E5422550FFE541FB
:10013300354FFEE5242FF53DE5233EF53C0546E529
:1001430046700205450200B0E54A64024549600372
:100153000201F6F545754607C3E546940AE545648D
:1001630080948040030201F61202A98F40C3E54048
:100173006480948A50E2EF3395E0FE74822FF58217
:1001830074053EF583E493FF74272546F8A6077BA1
:10019300007A0079277D01E4FF1204EDE546454529
:1001A300700D1202A9EF75F064A485F03EF53FE5EA
:1001B3004664014545700D1202A9EF75F00AA48546
:1001C300F04DF54EE5466402454570081202A975E7
:1001D30051008F52E53F254EFFE53E354DFEE5527A
:1001E3002FF53BE5513EF53A0546E54670020545D8
:1001F30002015BE54A640345496003020024F545B7
:1002030075460CC3E546940FE5456480948040032E
:100213000202A11202A98F40C3E5406480948A5070
:10022300E2EF3395E0FE74822FF58274053EF58389
:10023300E493FF74272546F8A6077B007A00792705
:100243007D01E4FF1204EDE5464545700D1202A958
:10025300EF75F064A485F043F544E5466401454534
:10026300700D1202A9EF75F00AA485F021F522E5BD
:10027300466402454570081202A97525008F26E5DC
:10028300442522FFE5433521FEE5262FF539E525F3
:100293003EF5380546E54670020545020206E4F5DB
:0602A30049F54A020024A7
:03076500DFFE2292
:1006DF00AE07AF061EEF600C7FF51207657FF512B0
:0506EF00076580EE220A
:1006F400E4FDEDC39FE49E500B7C017B02DBFEDC3A
:04070400FA0D80EE7C
:0107080022CE
:10060300D2A17F017E001206F4D2A07F017E0012E8
:1006130006F4C2A17F017E001206F4C2A07F017E10
:04062300000206F4D7
:10066700C2A17F017E001206F4D2A07F017E001294
:0B06770006F4D2A17F017E000206F411
:0203D6008F1383
:1003D800E4F514F515F514E513C4131313540124A7
:1003E800FF92A1E51325E0F5137F017E001206F4C4
:1003F800D2A07F017E001206F4C2A07F017E001207
:1004080006F40514E514C3940840CCD2A17F017EFC
:10041800001206F4D2A030A1150515E515D394C82D
:1004280040F4C2A07F017E001206F47F0022C2A021
:090438007F017E001206F47F0131
:010441002298
:1006B2008F121206037F7C1203D67F801203D6AFFD
:0706C200121203D6020667C5
:10071E007F381206B27F0C1206B27F011206B27F2C
:04072E00020206DFDE
:100682008B1153050153070FED60034307404307E6
:09069200801206B2AF1102064B02
:10064B008F121206037F7C1203D6AF121203D67FD2
:0C065B00401203D6AF121203D60206674D
:0A04ED008F088D098B0A8A0B890C19
:1004F7001207098E0F8F10E4F50DF50EC3E50E9563
:1005070010E50D950F502FAB0AAA0BA90C850E828B
:10051700850D8312045BFBAD09AF0812068205083F
:10052700E508D3941040050509E4F508050EE50E26
:0605370070CA050D80C62C
:01053D00229B
:1002A9007590FFC2932097063097FD7F0122209613
:1002B900063096FD7F04222095063095FD7F0722A2
:1002C9002094063094FD7F0B227590FFC2922097EF
:1002D900063097FD7F02222096063096FD7F052283
:1002E9002095063095FD7F08222094063094FD7FE5
:1002F90000227590FFC2912097063097FD7F032257
:100309002096063096FD7F06222095063095FD7FC2
:1003190009222094063094FD7F0C227590FFC2902B
:100329002097063097FD7F0D222096063096FD7F97
:100339000E222095063095FD7F0F227590FF7F0ACA
:010349002291
:1006C900D2A100D2A00000000000C2A100000000D9
:0606D90000C2A000002297
:10073200C2A100D2A00000000000D2A1000000006F
:010742002294
:10058D00E4FEEFA806088002C333D8FC30E704D29E
:10059D00A18002C2A100D2A00000000000C2A00EE6
:1005AD00BE08DF0000D2A10000D2A000000030A1E3
:0B05BD0004C2008002D200C2A00000B7
:0105C8002210
:10062700E4FFD2A1FE00C2A00000000000D2A0009B
:1006370000EF25E0FF30A1010F00000EBE08E6C263
:03064700A0000010
:01064A00228D
:10074300C2A1000000D2A00000000000C2A000006F
:010753002283
:10075400D2A1000000D2A00000000000C2A000004E
:010764002272
:0205C900AE077B
:1005CB001206C912058D200002C322AF0512058D3C
:1005DB00200002C322E4FDEDC3950D501612044218
:1005EB00FF12058D200002C322740129F9E43AFAA7
:0705FB000D80E4120732D36A
:0106020022D5
:02049A00AC07AD
:10049C001206C912058D200002C322AF0512058D6C
:1004AC00200002C3221206C9EC04FF12058D2000A5
:1004BC0002C322E4FDE50D14FFEDC39F5014120698
:1004CC0027EF120488120743740129F9E43AFA0D54
:1004DC0080E3120627EF120488120754120732D356
:0104EC0022ED
:10035600020003E493A3F8E493A34003F68001F2BA
:1003660008DFF48029E493A3F85407240CC8C333A8
:10037600C4540F4420C8834004F456800146F6DF77
:10038600E4800B010204081020408090069BE47E66
:10039600019360BCA3FF543F30E509541FFEE4936C
:1003A600A360010ECF54C025E060A840B8E493A333
:1003B600FAE493A3F8E493A3C8C582C8CAC583CA5E
:1003C600F0A3C8C582C8CAC583CADFE9DEE780BE16
:0106B1000048
:10044200BB010689828A83E0225002E722BBFE02B8
:09045200E32289828A83E49322EB
:10045B00BB010CE58229F582E5833AF583E0225056
:10046B0006E92582F8E622BBFE06E92582F8E222A0
:0D047B00E58229F582E5833AF583E49322BA
:10048800BB010689828A83F0225002F722BBFE0153
:02049800F3224D
:10070900E4FFFE120442600C0FEF70010E09E9705C
:05071900F20A80EF224E
:00000001FF
