:10001E00D2AF12027D12025512000620B316120242
:10002E0096C2A27F0A7E0012021D20B30705083079
:10003E00B3FDD2A2E508D394024003E4F508E50827
:10004E001460101460162402701BD296D2971201FF
:10005E00AF80C8C296D29712012280BFD296C297A5
:0A006E001200CF80B612029680B196
:0D000E008F4A8D49D294C293C292D29122A2
:0D0263008F4A8D49C294D293C292D291224B
:040234007D787F78DA
:0D0238008F4A8D49D292C291D294C2932276
:0D0270008F4A8D49D292C291C294D293223E
:09029600C294C293C292C29122EB
:10007800E54AD394C84003754AC8E54AC394465034
:1000880003754A46E549D394C840037549C8E5490C
:10009800C394465003754946E522D3954A5004D285
:1000A800958002C295E522C394C84003E4F522E591
:1000B8004BD395495004D2908002C290E54BC3942B
:0700C800C84003E4F54B22E0
:1001AF00A2B5E433FFA2B4E433FEEF75F00AA42E38
:1001BF00FEBE0B077D787F7802000EBE0A077DA07A
:1001CF007F50120263BE01077D507FA0120238EEEE
:0501DF007003120296FE
:0101E40022F8
:10012200A2B6E433FFA2B7E433FEEF75F00AA42EC1
:10013200FEBE0B077D787F7802000EBE0A077D782F
:100142007F78120263BE0103120234EE701D1202A6
:10015200967F64FE12021D7D787F78120270120271
:0B016200191202347F187E0112021DEA
:01016D00226F
:070216001202967FC87E0072
:10021D007D737C00ED1D70011C144C70F7EF1F7089
:06022D00011E144E70EAF0
:0102330022A8
:1001E5007E01E4FDE4FC74232EF8E6D39405400378
:1001F500430780ECC394075004EFC313FF0E0CBCF8
:1002050008E474442DF8A607E4FF0DBD04D6D20119
:0102150022C6
:1000CF0030024F1201E5C202300147E54624F860C5
:1000DF002824EC603824CA601424F8602824427065
:1000EF002F1202167D787F7812000E8023120216CF
:1000FF007D787F7812027080171202167D787F78D4
:10010F00120263800B12021612023480031202963F
:03011F00C20122F8
:0D027D00438902E4F58CF58AD2A9D28C22C7
:0E025500438920758DA4758BA4D28ED2AB2266
:05000600D288D2A822FF
:0300030002016E89
:09016E00C0E0C0D075D000C00053
:10017700300029E548C39435500AE548C394204028
:100187000375210074232521F8A648754800052129
:10019700E521B4210CD2027521008005754800D2F3
:0101A7000057
:0701A800D000D0D0D0E032FE
:03000B0002029F4F
:03029F00054832DD
:03001B0002024599
:10024500C0E0C0D00522054B120078D0D0D0E032F6
:0300000002028A6F
:0C028A00787FE4F6D8FD75814B02001E61
:00000001FF
