:0300000002196D75
:0C196D00787FE4F6D8FD7581210219B4E2
:1019F900204C5F5F5F20425F5F5F20525F5F5F2027
:101A090000202020696E7075742064697374202029
:101A190020002564002020202020202020202020B4
:101A2900202020202000523D25362E3266004C3DD4
:0E1A390025362E326600423D25362E326600DE
:101BAE00822E00008201000082040000825100009B
:041BBE00824F000A48
:071B6500121C4E7FC87E0038
:101B6C007D737C00ED1D70011C144C70F7EF1F7021
:061B7C00011E144E70EA88
:011B82002240
:101BD800438902E4F58CF58AD2AFD2A9D28CD28897
:031BE800D2A8225E
:03000B00021B993C
:101B9900C0E0C0D075D000C0007848E204F2D0009F
:051BA900D0D0D0E032B5
:03000300021A4797
:0B1A4700C0E0C0D075D000C000C00798
:101A520030092E7848E2FFC39435500AEFC3942030
:101A620040047800E4F27800E2240DF8EFF27848BE
:101A7200E4F27800E204F2E2B4210CD20BE4F28048
:071A8200067848E4F2D209E6
:091A8900D007D000D0D0D0E0322B
:101B0A007E01E4FDE4FC740D2EF8E2D39405400452
:101B1A00EF4480FFECC394075004EFC313FF0E0C8D
:101B2A00ECB408E274302DF8EFF2E4FF0DEDB404E2
:031B3A00D3D20AF9
:011B3D002285
:091C2A00D294C293C292D291221D
:091C3300C294D293D292C2912214
:091C3C00C294C293C292D291221B
:091C4500C292C291D294C2932212
:091C4E00C292C291C294C2932219
:10001600121BD8121C1D121ACFD290D295300BFD8E
:10002600121B0AC20B300A3C7832E224F860202404
:10003600EC602C24CA601024F8601C244270231241
:100046001B65121C2A801B121B65121C338013129F
:100056001B65121C3C800B121B65121C458003128B
:100066001C4EC20A7851E2FE08E2FFD39403EE6406
:100076008094804003020407EF4E700C7BFF7A19D0
:1000860079F97D01FF121A927BFF7A1A790AE4FD4B
:10009600FF121A921218AD7E00784FEEF208EFF2B8
:1000A600640D70C07852E22401F218E23400F208BE
:1000B600E26401700218E260030201C8784DF2089A
:1000C6007402F2C3784EE2940518E264809480408C
:1000D600030201C81218AD784FE4F208EFF2784D2A
:1000E600E2FA08E2FB64024A702A08E2FE08E2FF2E
:1000F600D39400EE64809480401AEF940AEE6480F4
:10010600948050107C007D641213D4782FE22FF275
:1001160018E23EF2EB64034A702B784FE2FE08E2E7
:10012600FFD39400EE64809480401AEF940AEE6444
:1001360080948050107C007D0A1213D4782FE22F11
:10014600F218E23EF2784EE26404700218E270247D
:10015600784FE2FE08E2FFD39400EE64809480407C
:1001660013EF940AEE648094805009782FE22FF200
:1001760018E23EF2784FE2FE08E2FFC3940AEE640C
:100186008094805035785674FFF208741AF2087419
:100196001BF208EEF208EFF27BFE7A0079031214E6
:1001A6009B784D08E2FF7803E2FB7D01121B837802
:1001B6004EE22401F218E23400F27F32121BC3022F
:1001C60000C97852E26402700218E260030202DC9F
:1001D600784DF2087407F2C3784EE2940A18E26486
:1001E60080948040030202DC1218AD784FE4F208D6
:1001F600EFF2784DE2FA08E2FB64074A702A08E259
:10020600FE08E2FFD39400EE64809480401AEF94D7
:100216000AEE6480948050107C007D641213D478BA
:1002260002E22FF218E23EF2EB64084A702B784F96
:10023600E2FE08E2FFD39400EE64809480401AEF59
:10024600940AEE6480948050107C007D0A1213D4C8
:100256007802E22FF218E23EF2784EE2640970026A
:1002660018E27024784FE2FE08E2FFD39400EE64B1
:100276008094804013EF940AEE648094805009784D
:1002860002E22FF218E23EF2784FE2FE08E2FFC3E6
:10029600940AEE648094805035785674FFF20874A0
:1002A6001AF208741BF208EEF208EFF27BFE7A00EF
:1002B600790312149B784D08E2FF7803E2FB7D0177
:1002C600121B83784EE22401F218E23400F27F32E8
:1002D600121BC30201DD7852E26403700218E26069
:1002E6000302006A7851F2087404F2784DE4F208C9
:1002F600740CF2C3784EE2940F18E2648094804046
:10030600030203F81218AD784FE4F208EFF2784DC5
:10031600E2FA08E2FB640C4A702A08E2FE08E2FFF1
:10032600D39400EE64809480401AEF940AEE6480C1
:10033600948050107C007D641213D47805E22FF26D
:1003460018E23EF2EB640D4A702B784FE2FE08E2AB
:10035600FFD39400EE64809480401AEF940AEE6412
:1003660080948050107C007D0A1213D47805E22F09
:10037600F218E23EF2784EE2640E700218E2702441
:10038600784FE2FE08E2FFD39400EE64809480404A
:1003960013EF940AEE6480948050097805E22FF2F8
:1003A60018E23EF2784FE2FE08E2FFC3940AEE64DA
:1003B6008094805035785674FFF208741AF20874E7
:1003C6001BF208EEF208EFF27BFE7A0079031214B4
:1003D6009B784D08E2FF7803E2FB7D01121B8378D0
:1003E6004EE22401F218E23400F27F32121BC302FD
:1003F60002F97BFF7A1A791EE4FDFF121A920200B7
:100406006AD2B67F0A120006C2B630B7FDD28E2077
:10041600B7FDC28EAF8DEFFEAD8B7C00E42DFDECFB
:100426003EFCE412105178491213F47849E2FC08B4
:10043600E2FD08E2FE08E2FFE4FBFA796878421280
:100446000F3678491213F47849E2FC08E2FD08E217
:10045600FE08E2FF78341213F4E4F58DF58BD2B67C
:100466007F0A120006C2B630B7FDD28E20B7FDC293
:100476008EAF8DEFFEAD8B7C00E42DFDEC3EFCE4F3
:1004860012105178491213F47849E2FC08E2FD088B
:10049600E2FE08E2FFE4FBFA79687842120F36784A
:1004A600491213F47849E2FC08E2FD08E2FE08E28C
:1004B600FF78381213F4E4F58DF58BD2B67F0A1265
:1004C6000006C2B630B7FDD28E20B7FDC28EAF8D04
:1004D600EFFEAD8B7C00E42DFDEC3EFCE4121051EA
:1004E60078491213F47849E2FC08E2FD08E2FE08B6
:1004F600E2FFE4FBFA79687842120F367849121364
:10050600F47849E2FC08E2FD08E2FE08E2FF783CE6
:100516001213F4E4F58DF58BD2B67F0A120006C2EB
:10052600B630B7FDD28E20B7FDC28EAF8DEFFEADD1
:100536008B7C00E42DFDEC3EFCE412105178491250
:1005460013F47849E2FC08E2FD08E2FE08E2FFE463
:10055600FBFA79687842120F3678491213F4784913
:10056600E2FC08E2FD08E2FE08E2FF78401213F41E
:10057600E4F58DF58BD2B67F0A120006C2B630B707
:10058600FDD28E20B7FDC28EAF8DEFFEAD8B7C0007
:10059600E42DFDEC3EFCE412105178491213F47878
:1005A60049E2FC08E2FD08E2FE08E2FFE4FBFA7914
:1005B600687842120F3678491213F47849E2FC083B
:1005C600E2FD08E2FE08E2FF78441213F4E4F58D3A
:1005D600F58B784DF208F2E4784FF208F2784DE2A6
:1005E600FE08E2FFC374049FFFE49EFEC37850E258
:1005F6009FEE6480F5F018E2648095F040030206F1
:100606009D08E2FF25E025E02438F8E2FB08E2F940
:1006160008E2FA08E2CBF8C000EF25E025E0243432
:10062600F8E2FC08E2FD08E2FE08E2FFD000120F45
:10063600D35056784F08E2FB25E025E02434F8E253
:10064600FC08E2FD08E2FE08E2FF78491213F4EB2B
:1006560025E025E02438F8E2FC08E2FD08E2FE0881
:10066600E2FF784F08E2FB25E025E02434F8121378
:10067600F47849E2FC08E2FD08E2FE08E2FFEB2519
:10068600E025E02438F81213F47850E22401F21839
:10069600E23400F20205E3784EE22401F218E23475
:1006A60000F208E26404700218E260030205DD78D5
:1006B6003CE2FC08E2FD08E2FE08E2FF7838E2FBD5
:1006C60008E2F908E2FA08E2CBF8120E427840E2B4
:1006D600FB08E2F908E2FA08E2CBF8120E42C0047F
:1006E600C005C006C007E4FBFA79807840C00078F0
:1006F60044E2FC08E2FD08E2FE08E2FFD000120F29
:1007060036D003D002D001D000120E42784912131F
:10071600F47804E2FC08E2FDEC1210517849E2FBA1
:1007260008E2F908E2FA08E2CBF8120FD35007C242
:10073600A27FFA121BC3D2A2785674FFF208741A6B
:10074600F208742FF27849E2FC08E2FD08E2FE089E
:10075600E2FF78591213F47BFE7A00790612149B95
:100766007BFE7A0079067D01E4FF121A92D2A07F01
:100776000A120006C2A030A1FDD28E20A1FDC28EB3
:10078600AF8DEFFEAD8B7C00E42DFDEC3EFCE4125C
:10079600105178491213F47849E2FC08E2FD08E2A8
:1007A600FE08E2FFE4FBFA79687842120F367849D0
:1007B6001213F47849E2FC08E2FD08E2FE08E2FFC3
:1007C60078341213F4E4F58DF58BD2A07F0A12006B
:1007D60006C2A030A1FDD28E20A1FDC28EAF8DEF44
:1007E600FEAD8B7C00E42DFDEC3EFCE4121051784E
:1007F600491213F47849E2FC08E2FD08E2FE08E239
:10080600FFE4FBFA79687842120F3678491213F43E
:100816007849E2FC08E2FD08E2FE08E2FF783812B9
:1008260013F4E4F58DF58BD2A07F0A120006C2A060
:1008360030A1FDD28E20A1FDC28EAF8DEFFEAD8B15
:100846007C00E42DFDEC3EFCE412105178491213B5
:10085600F47849E2FC08E2FD08E2FE08E2FFE4FB68
:10086600FA79687842120F3678491213F47849E219
:10087600FC08E2FD08E2FE08E2FF783C1213F4E40D
:10088600F58DF58BD2A07F0A120006C2A030A1FD1D
:10089600D28E20A1FDC28EAF8DEFFEAD8B7C00E423
:1008A6002DFDEC3EFCE412105178491213F4784900
:1008B600E2FC08E2FD08E2FE08E2FFE4FBFA7968E2
:1008C6007842120F3678491213F47849E2FC08E2AE
:1008D600FD08E2FE08E2FF78401213F4E4F58DF518
:1008E6008BD2A07F0A120006C2A030A1FDD28E20B4
:1008F600A1FDC28EAF8DEFFEAD8B7C00E42DFDEC2D
:100906003EFCE412105178491213F47849E2FC08CF
:10091600E2FD08E2FE08E2FFE4FBFA79687842129B
:100926000F3678491213F47849E2FC08E2FD08E232
:10093600FE08E2FF78441213F4E4F58DF58B784D4A
:10094600F208F2E4784FF208F2784DE2FE08E2FF90
:10095600C374099FFFE49EFEC37850E29FEE648055
:10096600F5F018E2648095F04003020A0908E2FFF8
:1009760025E025E02438F8E2FB08E2F908E2FA0867
:10098600E2CBF8C000EF25E025E02434F8E2FC08CD
:10099600E2FD08E2FE08E2FFD000120FD3505678BF
:1009A6004F08E2FB25E025E02434F8E2FC08E2FDEE
:1009B60008E2FE08E2FF78491213F4EB25E025E091
:1009C6002438F8E2FC08E2FD08E2FE08E2FF784F70
:1009D60008E2FB25E025E02434F81213F47849E216
:1009E600FC08E2FD08E2FE08E2FFEB25E025E02434
:1009F60038F81213F47850E22401F218E23400F2C7
:100A060002094F784EE22401F218E23400F208E2BD
:100A16006409700218E26003020949783CE2FC08A6
:100A2600E2FD08E2FE08E2FF7838E2FB08E2F90898
:100A3600E2FA08E2CBF8120E427840E2FB08E2F94D
:100A460008E2FA08E2CBF8120E427844E2FB08E22A
:100A5600F908E2FA08E2CBF8120E42E4FBFA7980D2
:100A66007840120F3678491213F4782EE2FC08E229
:100A7600FDEC1210517849E2FB08E2F908E2FA08A7
:100A8600E2CBF8120FD35007C2A27FFA121BC3D2D1
:100A9600A2785674FFF208741AF2087437F278498D
:100AA600E2FC08E2FD08E2FE08E2FF78591213F4C0
:100AB6007BFE7A00790612149B7BFE7A0079067D0E
:100AC600017F08121A92D2B47F0A120006C2B4300D
:100AD600B5FDD28E20B5FDC28EAF8DEFFEAD8B7CFF
:100AE60000E42DFDEC3EFCE412105178491213F49B
:100AF6007849E2FC08E2FD08E2FE08E2FFE4FBFAC0
:100B060079687842120F3678491213F47849E2FC74
:100B160008E2FD08E2FE08E2FF78341213F4E4F579
:100B26008DF58BD2B47F0A120006C2B430B5FDD261
:100B36008E20B5FDC28EAF8DEFFEAD8B7C00E42D11
:100B4600FDEC3EFCE412105178491213F47849E2A8
:100B5600FC08E2FD08E2FE08E2FFE4FBFA796878A9
:100B660042120F3678491213F47849E2FC08E2FD86
:100B760008E2FE08E2FF78381213F4E4F58DF58BEF
:100B8600D2B47F0A120006C2B430B5FDD28E20B5AB
:100B9600FDC28EAF8DEFFEAD8B7C00E42DFDEC3EED
:100BA600FCE412105178491213F47849E2FC08E289
:100BB600FD08E2FE08E2FFE4FBFA79687842120FCC
:100BC6003678491213F47849E2FC08E2FD08E2FEA1
:100BD60008E2FF783C1213F4E4F58DF58BD2B47F6E
:100BE6000A120006C2B430B5FDD28E20B5FDC28E03
:100BF600AF8DEFFEAD8B7C00E42DFDEC3EFCE412E8
:100C0600105178491213F47849E2FC08E2FD08E233
:100C1600FE08E2FFE4FBFA79687842120F3678495B
:100C26001213F47849E2FC08E2FD08E2FE08E2FF4E
:100C360078401213F4E4F58DF58BD2B47F0A1200D6
:100C460006C2B430B5FDD28E20B5FDC28EAF8DEF93
:100C5600FEAD8B7C00E42DFDEC3EFCE412105178D9
:100C6600491213F47849E2FC08E2FD08E2FE08E2C4
:100C7600FFE4FBFA79687842120F3678491213F4CA
:100C86007849E2FC08E2FD08E2FE08E2FF78441239
:100C960013F4E4F58DF58B784DF208F2E4784FF213
:100CA60008F2784DE2FE08E2FFC374099FFFE49E56
:100CB600FEC37850E29FEE6480F5F018E2648095FA
:100CC600F04003020D6208E2FF25E025E02438F833
:100CD600E2FB08E2F908E2FA08E2CBF8C000EF25E9
:100CE600E025E02434F8E2FC08E2FD08E2FE08E232
:100CF600FFD000120FD35056784F08E2FB25E025AF
:100D0600E02434F8E2FC08E2FD08E2FE08E2FF789F
:100D1600491213F4EB25E025E02438F8E2FC08E25A
:100D2600FD08E2FE08E2FF784F08E2FB25E025E039
:100D36002434F81213F47849E2FC08E2FD08E2FED6
:100D460008E2FFEB25E025E02438F81213F478508A
:100D5600E22401F218E23400F2020CA8784EE224F2
:100D660001F218E23400F208E26409700218E26047
:100D760003020CA2783CE2FC08E2FD08E2FE08E26F
:100D8600FF7838E2FB08E2F908E2FA08E2CBF8124B
:100D96000E427840E2FB08E2F908E2FA08E2CBF8F4
:100DA600120E42C004C005C006C007E4FBFA7980F3
:100DB6007840C0007844E2FC08E2FD08E2FE08E262
:100DC600FFD000120F36D003D002D001D000120E91
:100DD6004278491213F47801E2FC08E2FDEC1210A5
:100DE600517849E2FB08E2F908E2FA08E2CBF81288
:100DF6000FD35007C2A27FFA121BC3D2A278567431
:100E0600FFF208741AF208743FF27849E2FC08E22D
:100E1600FD08E2FE08E2FF78591213F47BFE7A0021
:100E2600790612149B7BFE7A007906E4FD7F041294
:050E36001A9202006A9F
:0D1C1D00438910E4F58DF58BD2ABD2AF22D8
:03001300021C5775
:071C5700C2A1C2B5C2B73201
:03000600DFFE22F8
:101BC300AE07AF061EEF600C7FF51200067FF5121D
:051BD300000680EE2277
:101C0D007580FFC2A4D2A5C2A600D2A6E58033225C
:101BEB00121C0D40FBC2A4C2A5D2A68F8000C2A6B8
:011BFB0022C7
:101BFC00121C0D40FBD2A4C2A5D2A68F8000C2A697
:011C0C0022B5
:101A92007853EFF208EDF208EBF208EAF208E9F205
:101AA2007855E2FB08E2FA08E2F912137CFB601CAB
:101AB2007853E2FF08E2FD121B837857E22401F219
:0D1AC20018E23400F27853E204F280D422DE
:101B8300AE07ED7005EE24808003EE24C0FF121B28
:061B9300EBAF03021BFC96
:101ACF007F38121BEB7F05121BC37F38121BEB7F76
:101ADF0005121BC37F38121BEB7F05121BC37F3808
:101AEF00121BEB7F08121BEB7F01121BEB7F061201
:0B1AFF001BEB1F121BC37F0C021BEB34
:1018AD007590FFC2932097083097FD7E007F01222F
:1018BD002096083096FD7E007F04222095083095F5
:1018CD00FD7E007F07222094083094FD7E007F0B63
:1018DD00227590FFC2922097083097FD7E007F02FF
:1018ED00222096083096FD7E007F05222095083037
:1018FD0095FD7E007F08222094073094FDE4FEFFC5
:10190D00227590FFC2912097083097FD7E007F03CE
:10191D00222096083096FD7E007F06222095083005
:10192D0095FD7E007F09222094083094FD7E007F76
:10193D000C227590FFC2902097083097FD7E007F96
:10194D000D222096083096FD7E007F0E22209508F0
:10195D003095FD7E007F0F227590FF7E007F0A225D
:100E3B000210BFE86480F8E933E83360110460F016
:100E4B00ED33EC337009E8FCE9FDEAFEEBFF22041D
:100E5B0060DED3EB9FEA9EE99DE8C2E78CF0C2F718
:100E6B0095F0400CE8CCF8E9CDF9EACEFAEBCFFBE4
:100E7B0012108A85D0F05804700320D5B3E80470A3
:100E8B00075002B2D50210C992D5EC0460F7E4CC3E
:100E9B00C0E0C398F8603B94186008400DD0E0FBAD
:100EAB000210A1E4FBFAC9FC8028E830E406E4C98F
:100EBB00FBE4CAFCE830E305E4C9CACBFCE8540701
:100ECB006010F8C3E913F9EA13FAEB13FBEC13FC0C
:100EDB00D8F130F52FC3E49CFCEF9BFFEE9AFEEDAF
:100EEB0099FDD0E0FBEF4E4D4C701222DB0302104C
:100EFB00C6EC2CFCEF33FFEE33FEED33FDED30E7AC
:100F0B00EB0210A1EF2BFFEE3AFEED39FDD0E0FB2B
:100F1B0050130BBB00030210C9ED13FDEE13FEEFD4
:080F2B0013FFEC13FC0210A1FE
:100F33000210C9EC5D046005E8590470030210BF98
:100F430012108A580460F6EC4860F2EC7004FDFE5F
:100F5300FF22C860DB2481C85009C3986002500691
:100F63000210C69850CAF582E9294B4A7005AB8234
:100F73000210B575F0007C1A7880C3EF9BEE9AEDF2
:100F830099400DC3EF9BFFEE9AFEED99FDE842F009
:100F9300DC23ACF0D0E0FFD0E0FED0E0FDAB82205C
:100FA300E7101BEB60BAEC2CFCEF33FFEE33FEEDE6
:100FB30033FD0210A1E803F830E705C0F075F00037
:100FC300EF2FFFEE33FEED33FD40B830E7C280AACA
:100FD30074F8CC6480CCC86480C8F58204604FC3C5
:100FE300EB9FF5F0EA9E42F0E99D42F0E89C45F064
:100FF300603C501DE5825FFFE582D313CB5BCBF4EE
:101003002B5582FB50280ABA002409B90020088016
:101013001DE5825BFBE582D313CF5FCFF4C3132FB0
:101023005582FF50090EBE00050DBD00010CC3EB38
:101033009FF5F0EA9E42F0E99D42F0E89C45F0609E
:0910430007CC4820E701B3EC22C0
:10104C0075F020800E75F010800575F0087D007E1F
:10105C00007F003392D530D5031213E6EC334010E9
:10106C00EF33FFEE33FEED33FDEC33FCD5F0ED2228
:0E107C00E5F0247EA2D513CC92E7CDCEFF2264
:10143F00E5082456F8E2050822785330070278565B
:10144F00E475F00112140002137C2000EB7F2ED202
:10145F00008018EF540F2490D43440D4FF30040B85
:10146F00EF24BFB41A0050032461FFE50960021591
:10147F0009050CE50C7002050B30070D7853E47568
:10148F00F001121400EF0213C2021B3E7403D207C5
:10149F008003E4C207F5087853121410E4F509F538
:1014AF000BF50CE50960077F2012147A80F5750A99
:1014BF00FFC201C200C202C203C205C206C20812A5
:1014CF001448FF700D3007057F0012148BAF0CAE60
:1014DF000B22B4255FC2D5C204121448FF24D0B426
:1014EF000A00501A75F00A780930D50508B6FF01C1
:1014FF0006C6A426F620D5047002D20380D924CFC5
:10150F00B41A00EF5004C2E5D204021777D201805B
:10151F00C6D20080C0D20280BCD2D580BAD205809C
:10152F00B47F2012147A2002077401B5090040F12C
:10153F0012143FFF12147A0214B2D208D206809509
:10154F0012143FFB12143FFA12143FF94A4B700664
:10155F00796E7A187BFF20022EE509602A7E008EB5
:10156F008275830012139560060EEE650A70F0C245
:10157F00D5EBC0E0EAC0E0E9C0E0EE1217D7D0E04B
:10158F00F9D0E0FAD0E0FB12137CFF60AAEBC0E0C9
:10159F00EAC0E0E9C0E012147AD0E02401F9D0E00B
:1015AF003400FAD0E0FBE50A0460DCD50AD9808765
:1015BF00D20280A21217BA60F7E50A700104121066
:1015CF00D4A90A600DE50A600914F50A121861EF33
:1015DF0060F3EA30E702F404C3995077EAF4250A7E
:1015EF000430E701E404F50A800D1217BA60C1EA6E
:1015FF00050A250A1210D4EA7869F230E701E425CA
:10160F000A04D50A04200501141217D7E4C0E0120A
:10161F0018617869E2601320E70714F212146280F0
:10162F002204F2D0E014C0E07F00121462E50A60D9
:10163F0007121459150A800B300503121459D0E004
:10164F000214B2D0E00480C51217BA60A0E50A04F4
:10165F001210D47869EAF2E50A2005026001042429
:0C166F00041217D774FF04C0E0121861C9
:10167B00121462E50A2005026003121459D0E0B57A
:10168B000AE87F4512146C7869E27F2B30E7047F00
:10169B002DF404C0E012147AD0E075F00A84C0F087
:1016AB00121463D0E01214630214B2791080027921
:1016BB0008C206C2088008D2D5790A8004790AC20A
:1016CB00D5E50A047002F50AE4FAFDFEFF12143F99
:1016DB00FC7B0820011312143FFD7B1030000A1213
:1016EB00143FFE12143FFF7B20EC3382D592D55072
:1016FB0013C3E43000069FFFE49EFEE42001039D2C
:10170B00FDE49CFCE4CBF8C201EC700CCFCECDCC4D
:10171B00E824F8F870F38017C3EF33FFEE33FEEDD8
:10172B0033FDEC33FCEB33FB994002FB0FD8E9EBB9
:10173B00300105F8D0E0C448B201C0E00AEC4D4ED0
:10174B004F78207B0070C2EAB50A0040BCC0E012A3
:10175B0017D9D0F0D0E0200104C4C0E0C4B201C05E
:10176B00F0121463D0F0D5F0EB0214B21214191569
:10177B004F5316B65815204C151C4216BA4F16C2AD
:10178B004416C24915354316C85515F94616574523
:10179B0015C347188E5015242D15282E154B2B15B8
:1017AB002C2315492018772A14E44800001543E52B
:1017BB000AB4FF03750A0612143FFC12143FFD1204
:1017CB00143FFE12143FFF7862021103790AA2D56F
:1017DB00200314300509B910020404B9080104A24E
:1017EB00D52006025001042002689202B509005070
:1017FB0034C0E07F203003197F30A20272067205DD
:10180B00500F121830C202C206C205C2087F3080C8
:10181B000F300503E9C0E012147A300503D0E0F96C
:10182B00D0E0B509CC3005177F30B9100C12147A03
:10183B007F583004077F788003B9080312147A307D
:10184B0002057F2D02147A7F202008F87F2B2006BB
:10185B00F322920280CF7F00B4070050052462F878
:10186B00E2FF22286E756C6C2900D20112143F30F6
:10187B0001F8C201780930D50108F60214E42D50A5
:10188B0043495812143F2403B405004001E4901857
:10189B00899312146B743A12146BD20375090402F8
:0218AB0016B66F
:10108A00E9D2E7C933E833F892D5EDD2E7CD33ECAC
:07109A0033FC5002B2D52225
:1010A100EC30E7100FBF000C0EBE00080DBD0004B0
:1010B1000BEB6014A2D5EB13FCED92E7FD2274FF5C
:1010C100FCFDFEFF22E480F8A2D574FF13FC7D80B5
:0310D100E480EFC9
:1010D400F920E72824F950037907E4F42402FB18E3
:1010E400DBFDE224FB5014E9600DE4F218E204F2A3
:0F10F400B40A08E4F2D9F57401F20A22C2D52237
:10110300ED33EC3392D5FA602AB4FF33EDC2E77BBB
:10111300FF60067A117928E4227A11793120D50407
:101123007A11792C224E614E002B494E46002D49EF
:101133004E4600E47A08F208DAFC7B00740722E8E2
:10114300C0E0ECC0E0EDC0E0EEC0E0EFC0E0EA7567
:10115300F010A4CAABF075F04DA42BFBE435F0FC02
:10116300EA2410FAEB34C5FBEC34D9FCEDC2E7FFFB
:1011730075F056A4F42411C5F0F434C58FF0A42AF5
:10118300E5F03BE43CF220E71412133CD0E0FFD03F
:10119300E0FED0E0FDD0E0FC120F368014F4041220
:1011A300133CD0E0FFD0E0FED0E0FDD0E0FC121213
:1011B30006D0E0F8E2FAEDD2E7CD33EC332482FB3C
:1011C300E4C3CF33CFCE33CECD33CD33DBF37B0785
:1011D30075F00A846004F2081B0AE5F0F2088FF048
:1011E300740AA4FFACF08EF0740AA42CFEACF05089
:1011F300010C8DF0740AA42CFDE435F0F208DBDE5B
:031203007407224B
:10120600EC4D6011E8497017ED33EC3304600DE4E2
:10121600FCFFFEFD22E933E8330470F80210BF122A
:10122600108A58046009E4CC24815006285009022B
:1012360010C92840030210C6C0E0EB4A7044B980CA
:1012460006D0E0FB0210B5EF4E701CBD8008EBFF28
:10125600EAFEE9FD80EBE98DF0A4FEE5F00212EF6F
:10126600E9CDF9EAFEEBFFEF89F0A4FCE5F0CE89C3
:10127600F0A42EFFE435F0CD89F0A42DFEE435F080
:101286008067EF4E7005BD80D780C3EF8BF0A4ACAE
:10129600F0EE8BF0A42CFCE435F0F8EF8AF0A42CE9
:1012A600E5F038FCE433CB8DF0A42CFCE5F03BF8FC
:1012B600EE8AF0A42CFCE5F038F8E433CF89F0A4EC
:1012C6002CFCE5F038CF3400CE89F0A42FFFE5F0F2
:1012D6003EFEE433C98DF0A42EFEE5F039CD8AF04A
:1012E600A42FFFE5F03EFEE43DFD33D0E0FB5007C2
:1012F6000BBB000F0210C9EC2CFCEF33FFEE33FEE4
:06130600ED33FD0210A111
:10130C003F8000004120000042C80000447A0000E9
:10131C00461C400047C35000497424004B1896806B
:10132C004CBEBC205A0E1BCA6753C21C749DC5AE62
:10133C00FB60065407601C232312136AEB543860BD
:10134C0009121356121365121206ECF8EDF9EEFAA7
:10135C00EFCB22EB12136580F1543803241C90134D
:10136C000CFE93FC0EEE93FD0EEE930ECE93FF222D
:10197900020016E493A3F8E493A34003F68001F26E
:1019890008DFF48029E493A3F85407240CC8C3336F
:10199900C4540F4420C8834004F456800146F6DF3E
:1019A900E4800B0102040810204080901BAEE47E05
:1019B900019360BCA3FF543F30E509541FFEE49333
:1019C900A360010ECF54C025E060A840B8E493A3FA
:1019D900FAE493A3F8E493A3C8C582C8CAC583CA25
:1019E900F0A3C8C582C8CAC583CADFE9DEE780BEDD
:011BC2000022
:10137C00BB010689828A83E0225002E722BBFE026F
:09138C00E32289828A83E49322A2
:10139500BB010CE58229F582E5833AF583E022500D
:1013A50006E92582F8E622BBFE06E92582F8E22257
:0D13B500E58229F582E5833AF583E4932271
:1013C200BB010689828A83F0225002F722BBFE010A
:0213D200F32204
:1013D400EF8DF0A4A8F0CF8CF0A428CE8DF0A42E2D
:0213E400FE22E7
:0E13E600C3E49FFFE49EFEE49DFDE49CFC2218
:0C13F400ECF208EDF208EEF208EFF22235
:10140000FAE2FB0808E2F925F0F218E2CA3AF22201
:09141000EBF208EAF208E9F2220D
:10141900D083D082F8E4937012740193700DA3A362
:1014290093F8740193F5828883E473740293686076
:06143900EFA3A3A380DF76
:101B3E00EFB40A07740D121B49740A309811A89954
:101B4E00B8130CC2983098FDA899C298B811F63007
:071B5E0099FDC299F59922DF
:00000001FF
