:03000000021C3CA3
:0C1C3C00787FE4F6D8FD7581210219FDC7
:071B7400121C6C7FC87E000B
:101B7B007D737C00ED1D70011C144C70F7EF1F7012
:061B8B00011E144E70EA79
:011B91002231
:101BEA00758902E4F58CF58AD2AFD2A9D28CD28853
:031BFA00D2A8224C
:03000B00021BC015
:101BC000C0E0C0D075D000C0007826E204F2D0009A
:051BD000D0D0D0E0328E
:03000300021A5688
:0B1A5600C0E0C0D075D000C000C00789
:101A610030092E7826E2FFC39435500AEFC3942043
:101A710040047800E4F27800E22401F8EFF27826DD
:101A8100E4F27800E204F2E2B4210CD20BE4F28039
:071A9100067826E4F2D209F9
:091A9800D007D000D0D0D0E0321C
:101B19007E01E4FDE4FC74012EF8E2D3940540044F
:101B2900EF4480FFECC394075004EFC313FF0E0C7E
:101B3900ECB408E274222DF8EFF2E4FF0DEDB404E1
:031B4900D3D20AEA
:011B4C002276
:091C4800D294C293C292D29122FF
:091C5100C294D293D292C29122F6
:091C5A00C294C293C292D29122FD
:091C6300C292C291D294C29322F4
:091C6C00C292C291C294C29322FB
:1019FD00121BEA121C2F121ADED290D295300B4414
:101A0D00121B19C20B300A3C7824E224F860202402
:101A1D00EC602C24CA601024F8601C244270231240
:101A2D001B74121C48801B121B74121C5180131244
:101A3D001B74121C5A800B121B74121C6380031230
:091A4D001C6CC20A12001680B4E0
:03000600DFFE22F8
:101BD500AE07AF061EEF600C7FF51200067FF5120B
:051BE500000680EE2265
:101C1F007580FFC2A4D2A5C2A600D2A6E58033224A
:101BFD00121C1F40FBC2A4C2A5D2A68F8000C2A694
:011C0D0022B4
:101C0E00121C1F40FBD2A4C2A5D2A68F8000C2A672
:011C1E0022A3
:101AA100785EEFF208EDF208EBF208EAF208E9F2EB
:101AB1007860E2FB08E2FA08E2F91214DEFB601C2E
:101AC100785EE2FF08E2FD121BAA7862E22401F2CD
:0D1AD10018E23400F2785EE204F280D422C4
:101BAA00AE07ED7005EE24808003EE24C0FF121B01
:061BBA00FDAF03021C0E4A
:101ADE007F38121BFD7F05121BD57F38121BFD7F31
:101AEE0005121BD57F38121BFD7F05121BD57F38C3
:101AFE00121BFD7F08121BFD7F01121BFD7F0612BC
:0B1B0E001BFD1F121BD57F0C021BFDEE
:101B9200523D25362E3266004C3D25362E326600E9
:081BA200423D25362E3266009B
:0D1C2F00438910E4F58DF58BD2ABD2AF22C6
:06001600121C2F121ADE7D
:10001C00D2B47F0A120006C2B430B5FDD28E20B520
:10002C00FDC28EAF8DEFFEAD8B7C00E42DFDEC3E62
:10003C00FCE41211B378561215447856E2FC08E22F
:10004C00FD08E2FE08E2FFE4FBFA79687842121040
:10005C009878561215447856E2FC08E2FD08E2FE48
:10006C0008E2FF7832121544E4F58DF58BD2B47F9B
:10007C000A120006C2B430B5FDD28E20B5FDC28E78
:10008C00AF8DEFFEAD8B7C00E42DFDEC3EFCE4125D
:10009C0011B378561215447856E2FC08E2FD08E2DA
:1000AC00FE08E2FFE4FBFA79687842121098785661
:1000BC001215447856E2FC08E2FD08E2FE08E2FF65
:1000CC007836121544E4F58DF58BD2B47F0A120004
:1000DC0006C2B430B5FDD28E20B5FDC28EAF8DEF09
:1000EC00FEAD8B7C00E42DFDEC3EFCE41211B378EC
:1000FC00561215447856E2FC08E2FD08E2FE08E2CE
:10010C00FFE4FBFA7968784212109878561215447D
:10011C007856E2FC08E2FD08E2FE08E2FF783A12AB
:10012C001544E4F58DF58BD2B47F0A120006C2B4E7
:10013C0030B5FDD28E20B5FDC28EAF8DEFFEAD8BEE
:10014C007C00E42DFDEC3EFCE41211B37856121544
:10015C00447856E2FC08E2FD08E2FE08E2FFE4FB0C
:10016C00FA7968784212109878561215447856E24B
:10017C00FC08E2FD08E2FE08E2FF783E121544E4BA
:10018C00F58DF58BD2B47F0A120006C2B430B5FDE2
:10019C00D28E20B5FDC28EAF8DEFFEAD8B7C00E410
:1001AC002DFDEC3EFCE41211B37856121544785632
:1001BC00E2FC08E2FD08E2FE08E2FFE4FBFA7968E3
:1001CC00784212109878561215447856E2FC08E2E0
:1001DC00FD08E2FE08E2FF7842121544E4F58DF5C5
:1001EC008BD2B47F0A120006C2B430B5FDD28E2079
:1001FC00B5FDC28EAF8DEFFEAD8B7C00E42DFDEC1A
:10020C003EFCE41211B378561215447856E2FC0801
:10021C00E2FD08E2FE08E2FFE4FBFA79687842129C
:10022C00109878561215447856E2FC08E2FD08E264
:10023C00FE08E2FF7846121544E4F58DF58BD2B436
:10024C007F0A120006C2B430B5FDD28E20B5FDC2B5
:10025C008EAF8DEFFEAD8B7C00E42DFDEC3EFCE40F
:10026C001211B378561215447856E2FC08E2FD08D8
:10027C00E2FE08E2FFE4FBFA796878421210987803
:10028C00561215447856E2FC08E2FD08E2FE08E23C
:10029C00FF784A121544E4F58DF58BD2B47F0A121F
:1002AC000006C2B430B5FDD28E20B5FDC28EAF8D26
:1002BC00EFFEAD8B7C00E42DFDEC3EFCE41211B3A3
:1002CC0078561215447856E2FC08E2FD08E2FE0866
:1002DC00E2FFE4FBFA79687842121098785612150E
:1002EC00447856E2FC08E2FD08E2FE08E2FF784E94
:1002FC00121544E4F58DF58BD2B47F0A120006C2B8
:10030C00B430B5FDD28E20B5FDC28EAF8DEFFEADF3
:10031C008B7C00E42DFDEC3EFCE41211B3785612FC
:10032C0015447856E2FC08E2FD08E2FE08E2FFE420
:10033C00FBFA796878421210987856121544785660
:10034C00E2FC08E2FD08E2FE08E2FF7852121544D6
:10035C00E4F58DF58BD2B47F0A120006C2B430B529
:10036C00FDD28E20B5FDC28EAF8DEFFEAD8B7C0025
:10037C00E42DFDEC3EFCE41211B3785612154478D2
:10038C0056E2FC08E2FD08E2FE08E2FFE4FBFA7923
:10039C0068784212109878561215447856E2FC0888
:1003AC00E2FD08E2FE08E2FF7856121544E4F58DF2
:1003BC00F58B785AF208F2E4785CF208F2785AE29B
:1003CC00FE08E2FFC374099FFFE49EFEC3785DE262
:1003DC009FEE6480F5F018E2648095F0400302040F
:1003EC008308E2FF25E025E02436F8E2FB08E2F979
:1003FC0008E2FA08E2CBF8C000EF25E025E0243251
:10040C00F8E2FC08E2FD08E2FE08E2FFD00012115F
:10041C00355056785C08E2FB25E025E02432F8E202
:10042C00FC08E2FD08E2FE08E2FF782E121544EB10
:10043C0025E025E02436F8E2FC08E2FD08E2FE089F
:10044C00E2FF785C08E2FB25E025E02432F8121587
:10045C0044782EE2FC08E2FD08E2FE08E2FFEB2500
:10046C00E025E02436F8121544785DE22401F218F8
:10047C00E23400F20203C9785BE22401F218E234A0
:10048C0000F208E26409700218E260030203C37808
:10049C003EE2FC08E2FD08E2FE08E2FF783AE2FBED
:1004AC0008E2F908E2FA08E2CBF8120FA47842E26B
:1004BC00FB08E2F908E2FA08E2CBF8120FA478463E
:1004CC00E2FB08E2F908E2FA08E2CBF8120FA47892
:1004DC004AE2FB08E2F908E2FA08E2CBF8120FA4B0
:1004EC00784EE2FB08E2F908E2FA08E2CBF8120FC8
:1004FC00A4E4FBFA79C0784012109878561215448F
:10050C00786174FFF208741BF2087492F27856E268
:10051C00FC08E2FD08E2FE08E2FF78641215447B59
:10052C00FE7A0079271215EB7BFE7A0079277D0184
:10053C00E4FF121AA17FF4121BD5D2A07F0A12007D
:10054C0006C2A030A1FDD28E20A1FDC28EAF8DEFD0
:10055C00FEAD8B7C00E42DFDEC3EFCE41211B37877
:10056C00561215447856E2FC08E2FD08E2FE08E259
:10057C00FFE4FBFA79687842121098785612154409
:10058C007856E2FC08E2FD08E2FE08E2FF7832123F
:10059C001544E4F58DF58BD2A07F0A120006C2A09B
:1005AC0030A1FDD28E20A1FDC28EAF8DEFFEAD8BA2
:1005BC007C00E42DFDEC3EFCE41211B378561215D0
:1005CC00447856E2FC08E2FD08E2FE08E2FFE4FB98
:1005DC00FA7968784212109878561215447856E2D7
:1005EC00FC08E2FD08E2FE08E2FF7836121544E44E
:1005FC00F58DF58BD2A07F0A120006C2A030A1FDAA
:10060C00D28E20A1FDC28EAF8DEFFEAD8B7C00E4AF
:10061C002DFDEC3EFCE41211B378561215447856BD
:10062C00E2FC08E2FD08E2FE08E2FFE4FBFA79686E
:10063C00784212109878561215447856E2FC08E26B
:10064C00FD08E2FE08E2FF783A121544E4F58DF558
:10065C008BD2A07F0A120006C2A030A1FDD28E2040
:10066C00A1FDC28EAF8DEFFEAD8B7C00E42DFDECB9
:10067C003EFCE41211B378561215447856E2FC088D
:10068C00E2FD08E2FE08E2FFE4FBFA796878421228
:10069C00109878561215447856E2FC08E2FD08E2F0
:1006AC00FE08E2FF783E121544E4F58DF58BD2A0DE
:1006BC007F0A120006C2A030A1FDD28E20A1FDC27D
:1006CC008EAF8DEFFEAD8B7C00E42DFDEC3EFCE49B
:1006DC001211B378561215447856E2FC08E2FD0864
:1006EC00E2FE08E2FFE4FBFA79687842121098788F
:1006FC00561215447856E2FC08E2FD08E2FE08E2C8
:10070C00FF7842121544E4F58DF58BD2A07F0A12C6
:10071C000006C2A030A1FDD28E20A1FDC28EAF8DED
:10072C00EFFEAD8B7C00E42DFDEC3EFCE41211B32E
:10073C0078561215447856E2FC08E2FD08E2FE08F1
:10074C00E2FFE4FBFA796878421210987856121599
:10075C00447856E2FC08E2FD08E2FE08E2FF784627
:10076C00121544E4F58DF58BD2A07F0A120006C257
:10077C00A030A1FDD28E20A1FDC28EAF8DEFFEADBB
:10078C008B7C00E42DFDEC3EFCE41211B378561288
:10079C0015447856E2FC08E2FD08E2FE08E2FFE4AC
:1007AC00FBFA7968784212109878561215447856EC
:1007BC00E2FC08E2FD08E2FE08E2FF784A1215446A
:1007CC00E4F58DF58BD2A07F0A120006C2A030A1F1
:1007DC00FDD28E20A1FDC28EAF8DEFFEAD8B7C00C5
:1007EC00E42DFDEC3EFCE41211B37856121544785E
:1007FC0056E2FC08E2FD08E2FE08E2FFE4FBFA79AF
:10080C0068784212109878561215447856E2FC0813
:10081C00E2FD08E2FE08E2FF784E121544E4F58D85
:10082C00F58BD2A07F0A120006C2A030A1FDD28E99
:10083C0020A1FDC28EAF8DEFFEAD8B7C00E42DFDB3
:10084C00EC3EFCE41211B378561215447856E2FCD7
:10085C0008E2FD08E2FE08E2FFE4FBFA7968784260
:10086C0012109878561215447856E2FC08E2FD08EE
:10087C00E2FE08E2FF7852121544E4F58DF58BD2B6
:10088C00A07F0A120006C2A030A1FDD28E20A1FDCD
:10089C00C28EAF8DEFFEAD8B7C00E42DFDEC3EFCEB
:1008AC00E41211B378561215447856E2FC08E2FDB6
:1008BC0008E2FE08E2FFE4FBFA796878421210982D
:1008CC0078561215447856E2FC08E2FD08E2FE0860
:1008DC00E2FF7856121544E4F58DF58B785AF20840
:1008EC00F2E4785CF208F2785AE2FE08E2FFC37494
:1008FC00099FFFE49EFEC3785DE29FEE6480F5F0F5
:10090C0018E2648095F040030209AD08E2FF25E08F
:10091C0025E02436F8E2FB08E2F908E2FA08E2CB1B
:10092C00F8C000EF25E025E02432F8E2FC08E2FDF7
:10093C0008E2FE08E2FFD0001211355056785C0830
:10094C00E2FB25E025E02432F8E2FC08E2FD08E2B7
:10095C00FE08E2FF782E121544EB25E025E0243644
:10096C00F8E2FC08E2FD08E2FE08E2FF785C08E22F
:10097C00FB25E025E02432F8121544782EE2FC0821
:10098C00E2FD08E2FE08E2FFEB25E025E02436F864
:10099C00121544785DE22401F218E23400F20208E8
:1009AC00F3785BE22401F218E23400F208E2640905
:1009BC00700218E260030208ED783EE2FC08E2FDEA
:1009CC0008E2FE08E2FF783AE2FB08E2F908E2FAF4
:1009DC0008E2CBF8120FA47842E2FB08E2F908E235
:1009EC00FA08E2CBF8120FA47846E2FB08E2F90809
:1009FC00E2FA08E2CBF8120FA4784AE2FB08E2F91B
:100A0C0008E2FA08E2CBF8120FA4784EE2FB08E2F7
:100A1C00F908E2FA08E2CBF8120FA4E4FBFA79C069
:100A2C0078401210987856121544786174FFF208C9
:100A3C00741BF208749AF27856E2FC08E2FD08E2A4
:100A4C00FE08E2FF78641215447BFE7A00792712C7
:100A5C0015EB7BFE7A007927E4FD7F04121AA17F47
:100A6C00E8121BD5D2A27F0A120006C2A230A3FD47
:100A7C00D28E20A3FDC28EAF8DEFFEAD8B7C00E439
:100A8C002DFDEC3EFCE41211B37856121544785649
:100A9C00E2FC08E2FD08E2FE08E2FFE4FBFA7968FA
:100AAC00784212109878561215447856E2FC08E2F7
:100ABC00FD08E2FE08E2FF7832121544E4F58DF5EC
:100ACC008BD2A27F0A120006C2A230A3FDD28E20C6
:100ADC00A3FDC28EAF8DEFFEAD8B7C00E42DFDEC43
:100AEC003EFCE41211B378561215447856E2FC0819
:100AFC00E2FD08E2FE08E2FFE4FBFA7968784212B4
:100B0C00109878561215447856E2FC08E2FD08E27B
:100B1C00FE08E2FF7836121544E4F58DF58BD2A26F
:100B2C007F0A120006C2A230A3FDD28E20A3FDC202
:100B3C008EAF8DEFFEAD8B7C00E42DFDEC3EFCE426
:100B4C001211B378561215447856E2FC08E2FD08EF
:100B5C00E2FE08E2FFE4FBFA79687842121098781A
:100B6C00561215447856E2FC08E2FD08E2FE08E253
:100B7C00FF783A121544E4F58DF58BD2A27F0A1258
:100B8C000006C2A230A3FDD28E20A3FDC28EAF8D73
:100B9C00EFFEAD8B7C00E42DFDEC3EFCE41211B3BA
:100BAC0078561215447856E2FC08E2FD08E2FE087D
:100BBC00E2FFE4FBFA796878421210987856121525
:100BCC00447856E2FC08E2FD08E2FE08E2FF783EBB
:100BDC00121544E4F58DF58BD2A27F0A120006C2E1
:100BEC00A230A3FDD28E20A3FDC28EAF8DEFFEAD41
:100BFC008B7C00E42DFDEC3EFCE41211B378561214
:100C0C0015447856E2FC08E2FD08E2FE08E2FFE437
:100C1C00FBFA796878421210987856121544785677
:100C2C00E2FC08E2FD08E2FE08E2FF7842121544FD
:100C3C00E4F58DF58BD2A27F0A120006C2A230A376
:100C4C00FDD28E20A3FDC28EAF8DEFFEAD8B7C004E
:100C5C00E42DFDEC3EFCE41211B3785612154478E9
:100C6C0056E2FC08E2FD08E2FE08E2FFE4FBFA793A
:100C7C0068784212109878561215447856E2FC089F
:100C8C00E2FD08E2FE08E2FF7846121544E4F58D19
:100C9C00F58BD2A27F0A120006C2A230A3FDD28E1F
:100CAC0020A3FDC28EAF8DEFFEAD8B7C00E42DFD3D
:100CBC00EC3EFCE41211B378561215447856E2FC63
:100CCC0008E2FD08E2FE08E2FFE4FBFA79687842EC
:100CDC0012109878561215447856E2FC08E2FD087A
:100CEC00E2FE08E2FF784A121544E4F58DF58BD24A
:100CFC00A27F0A120006C2A230A3FDD28E20A3FD51
:100D0C00C28EAF8DEFFEAD8B7C00E42DFDEC3EFC76
:100D1C00E41211B378561215447856E2FC08E2FD41
:100D2C0008E2FE08E2FFE4FBFA79687842121098B8
:100D3C0078561215447856E2FC08E2FD08E2FE08EB
:100D4C00E2FF784E121544E4F58DF58BD2A27F0AA2
:100D5C00120006C2A230A3FDD28E20A3FDC28EAF1C
:100D6C008DEFFEAD8B7C00E42DFDEC3EFCE412110E
:100D7C00B378561215447856E2FC08E2FD08E2FE00
:100D8C0008E2FFE4FBFA7968784212109878561260
:100D9C0015447856E2FC08E2FD08E2FE08E2FF7812
:100DAC0052121544E4F58DF58BD2A27F0A1200067F
:100DBC00C2A230A3FDD28E20A3FDC28EAF8DEFFE5A
:100DCC00AD8B7C00E42DFDEC3EFCE41211B37856A7
:100DDC001215447856E2FC08E2FD08E2FE08E2FF38
:100DEC00E4FBFA7968784212109878561215447818
:100DFC0056E2FC08E2FD08E2FE08E2FF7856121506
:100E0C0044E4F58DF58B785AF208F2E4785CF2083C
:100E1C00F2785AE2FE08E2FFC374099FFFE49EFEDB
:100E2C00C3785DE29FEE6480F5F018E2648095F083
:100E3C004003020ED708E2FF25E025E02436F8E255
:100E4C00FB08E2F908E2FA08E2CBF8C000EF25E073
:100E5C0025E02432F8E2FC08E2FD08E2FE08E2FF9D
:100E6C00D0001211355056785C08E2FB25E025E0E5
:100E7C002432F8E2FC08E2FD08E2FE08E2FF782EDC
:100E8C00121544EB25E025E02436F8E2FC08E2FDDF
:100E9C0008E2FE08E2FF785C08E2FB25E025E0248E
:100EAC0032F8121544782EE2FC08E2FD08E2FE0846
:100EBC00E2FFEB25E025E02436F8121544785DE2DC
:100ECC002401F218E23400F2020E1D785BE22401D8
:100EDC00F218E23400F208E26409700218E26003CE
:100EEC00020E17783EE2FC08E2FD08E2FE08E2FF83
:100EFC00783AE2FB08E2F908E2FA08E2CBF8120FC2
:100F0C00A47842E2FB08E2F908E2FA08E2CBF81214
:100F1C000FA47846E2FB08E2F908E2FA08E2CBF803
:100F2C00120FA4784AE2FB08E2F908E2FA08E2CBD5
:100F3C00F8120FA4784EE2FB08E2F908E2FA08E294
:100F4C00CBF8120FA4E4FBFA79C078401210987811
:100F5C0056121544786174FFF208741BF20874A2DF
:100F6C00F27856E2FC08E2FD08E2FE08E2FF786443
:100F7C001215447BFE7A0079271215EB7BFE7A0062
:0E0F8C0079277D017F08121AA17FE8121BD57C
:030F9A0002001C36
:03001300021C7557
:071C7500C2A1C2A3C2B532F7
:100F9D00021221E86480F8E933E83360110460F04F
:100FAD00ED33EC337009E8FCE9FDEAFEEBFF2204BA
:100FBD0060DED3EB9FEA9EE99DE8C2E78CF0C2F7B5
:100FCD0095F0400CE8CCF8E9CDF9EACEFAEBCFFB81
:100FDD001211EC85D0F05804700320D5B3E80470DD
:100FED00075002B2D502122B92D5EC0460F7E4CC77
:100FFD00C0E0C398F8603B94186008400DD0E0FB4A
:10100D00021203E4FBFAC9FC8028E830E406E4C9C7
:10101D00FBE4CAFCE830E305E4C9CACBFCE854079D
:10102D006010F8C3E913F9EA13FAEB13FBEC13FCA8
:10103D00D8F130F52FC3E49CFCEF9BFFEE9AFEED4B
:10104D0099FDD0E0FBEF4E4D4C701222DB030212E6
:10105D0028EC2CFCEF33FFEE33FEED33FDED30E7E6
:10106D00EB021203EF2BFFEE3AFEED39FDD0E0FB64
:10107D0050130BBB000302122BED13FDEE13FEEF0D
:08108D0013FFEC13FC02120337
:1010950002122BEC5D046005E8590470030212216D
:1010A5001211EC580460F6EC4860F2EC7004FDFE99
:1010B500FF22C860DB2481C85009C398600250062E
:1010C5000212289850CAF582E9294B4A7005AB826D
:1010D50002121775F0007C1A7880C3EF9BEE9AED2B
:1010E50099400DC3EF9BFFEE9AFEED99FDE842F0A6
:1010F500DC23ACF0D0E0FFD0E0FED0E0FDAB8220F9
:10110500E7101BEB60BAEC2CFCEF33FFEE33FEED82
:1011150033FD021203E803F830E705C0F075F0006F
:10112500EF2FFFEE33FEED33FD40B830E7C280AA66
:1011350074F8CC6480CCC86480C8F58204604FC361
:10114500EB9FF5F0EA9E42F0E99D42F0E89C45F000
:10115500603C501DE5825FFFE582D313CB5BCBF48A
:101165002B5582FB50280ABA002409B900200880B3
:101175001DE5825BFBE582D313CF5FCFF4C3132F4D
:101185005582FF50090EBE00050DBD00010CC3EBD5
:101195009FF5F0EA9E42F0E99D42F0E89C45F0603B
:0911A50007CC4820E701B3EC225D
:1011AE0075F020800E75F010800575F0087D007EBC
:1011BE00007F003392D530D503121536EC33401034
:1011CE00EF33FFEE33FEED33FDEC33FCD5F0ED22C5
:0E11DE00E5F0247EA2D513CC92E7CDCEFF2201
:10158F00E5082461F8E2050822785E3007027861E9
:10159F00E475F0011215500214DE2000EB7F2ED2FD
:1015AF00008018EF540F2490D43440D4FF30040B34
:1015BF00EF24BFB41A0050032461FFE50960021540
:1015CF0009050CE50C7002050B30070D785EE4750C
:1015DF00F001121550EF021524021B4D7403D207B0
:1015EF008003E4C207F508785E121560E4F509F58B
:1015FF000BF50CE50960077F201215CA80F5750AF7
:10160F00FFC201C200C202C203C205C206C2081253
:10161F001598FF700D3007057F001215DBAF0CAE6C
:10162F000B22B4255FC2D5C204121598FF24D0B483
:10163F000A00501A75F00A780930D50508B6FF016F
:10164F0006C6A426F620D5047002D20380D924CF73
:10165F00B41A00EF5004C2E5D2040218C7D20180B9
:10166F00C6D20080C0D20280BCD2D580BAD205804B
:10167F00B47F201215CA2002077401B5090040F18A
:10168F0012158FFF1215CA021602D208D2068095C4
:10169F0012158FFB12158FFA12158FF94A4B700620
:1016AF0079BE7A197BFF20022EE509602A7E008E13
:1016BF00827583001214F760060EEE650A70F0C291
:1016CF00D5EBC0E0EAC0E0E9C0E0EE121927D0E0A8
:1016DF00F9D0E0FAD0E0FB1214DEFF60AAEBC0E015
:1016EF00EAC0E0E9C0E01215CAD0E02401F9D0E069
:1016FF003400FAD0E0FBE50A0460DCD50AD9808714
:10170F00D20280A212190A60F7E50A7001041212C0
:10171F0036A90A600DE50A600914F50A1219B1EF2E
:10172F0060F3EA30E702F404C3995077EAF4250A2C
:10173F000430E701E404F50A800D12190A60C1EACA
:10174F00050A250A121236EA7874F230E701E42509
:10175F000A04D50A0420050114121927E4C0E01267
:10176F0019B17874E2601320E70714F21215B280F2
:10177F002204F2D0E014C0E07F001215B2E50A6037
:10178F00071215A9150A800B3005031215A9D0E011
:10179F00021602D0E00480C512190A60A0E50A04FF
:1017AF001212367874EAF2E50A2005026001042469
:0C17BF000412192774FF04C0E01219B1D5
:1017CB001215B2E50A20050260031215A9D0E0B587
:1017DB000AE87F451215BC7874E27F2B30E7047F53
:1017EB002DF404C0E01215CAD0E075F00A84C0F0E5
:1017FB001215B3D0E01215B30216027910800279DC
:10180B0008C206C2088008D2D5790A8004790AC2B8
:10181B00D5E50A047002F50AE4FAFDFEFF12158FF6
:10182B00FC7B0820011312158FFD7B1030000A1270
:10183B00158FFE12158FFF7B20EC3382D592D5507E
:10184B0013C3E43000069FFFE49EFEE42001039DDA
:10185B00FDE49CFCE4CBF8C201EC700CCFCECDCCFC
:10186B00E824F8F870F38017C3EF33FFEE33FEED87
:10187B0033FDEC33FCEB33FB994002FB0FD8E9EB68
:10188B00300105F8D0E0C448B201C0E00AEC4D4E7F
:10189B004F78207B0070C2EAB50A0040BCC0E01252
:1018AB001929D0F0D0E0200104C4C0E0C4B201C0BB
:1018BB00F01215B3D0F0D5F0EB0216021215691623
:1018CB009F5318065816704C166C42180A4F181274
:1018DB004418124916854318185517494617A7453A
:1018EB0017134719DE5016742D16782E169B2B16D0
:1018FB007C2316992019C72A16344800001693E545
:10190B000AB4FF03750A0612158FFC12158FFD1210
:10191B00158FFE12158FFF786D021265790AA2D50D
:10192B00200314300509B910020404B9080104A2FC
:10193B00D52006025001042002689202B50900501E
:10194B0034C0E07F203003197F30A202720672058B
:10195B00500F121980C202C206C205C2087F308026
:10196B000F300503E9C0E01215CA300503D0E0F9CA
:10197B00D0E0B509CC3005177F30B9100C1215CA61
:10198B007F583004077F788003B908031215CA30DB
:10199B0002057F2D0215CA7F202008F87F2B200619
:1019AB00F322920280CF7F00B407005005246DF81C
:1019BB00E2FF22286E756C6C2900D20112158F3054
:1019CB0001F8C201780930D50108F60216342D5002
:1019DB0043495812158F2403B405004001E49019B4
:1019EB00D9931215BB743A1215BBD20375090402B5
:0219FB001806CC
:1011EC00E9D2E7C933E833F892D5EDD2E7CD33EC49
:0711FC0033FC5002B2D522C2
:10120300EC30E7100FBF000C0EBE00080DBD00044C
:101213000BEB6014A2D5EB13FCED92E7FD2274FFF8
:10122300FCFDFEFF22E480F8A2D574FF13FC7D8051
:03123300E480EF65
:10123600F920E72824F950037907E4F42402FB187F
:10124600DBFDE224FB5014E9600DE4F218E204F23F
:0F125600B40A08E4F2D9F57401F20A22C2D522D3
:10126500ED33EC3392D5FA602AB4FF33EDC2E77B58
:10127500FF60067A12798AE4227A12799320D504DE
:101285007A12798E224E614E002B494E46002D4929
:101295004E4600E47A08F208DAFC7B00740722E87F
:1012A500C0E0ECC0E0EDC0E0EEC0E0EFC0E0EA7504
:1012B500F010A4CAABF075F04DA42BFBE435F0FC9F
:1012C500EA2410FAEB34C5FBEC34D9FCEDC2E7FF98
:1012D50075F056A4F42411C5F0F434C58FF0A42A92
:1012E500E5F03BE43CF220E71412149ED0E0FFD079
:1012F500E0FED0E0FDD0E0FC1210988014F404125A
:10130500149ED0E0FFD0E0FED0E0FDD0E0FC12134B
:1013150068D0E0F8E2FAEDD2E7CD33EC332482FB76
:10132500E4C3CF33CFCE33CECD33CD33DBF37B0721
:1013350075F00A846004F2081B0AE5F0F2088FF0E4
:10134500740AA4FFACF08EF0740AA42CFEACF05025
:10135500010C8DF0740AA42CFDE435F0F208DBDEF7
:03136500740722E8
:10136800EC4D6011E8497017ED33EC3304600DE47F
:10137800FCFFFEFD22E933E8330470F80212211263
:1013880011EC58046009E4CC248150062850090265
:10139800122B284003021228C0E0EB4A7044B9809F
:1013A80006D0E0FB021217EF4E701CBD8008EBFF61
:1013B800EAFEE9FD80EBE98DF0A4FEE5F0021451A8
:1013C800E9CDF9EAFEEBFFEF89F0A4FCE5F0CE8960
:1013D800F0A42EFFE435F0CD89F0A42DFEE435F01D
:1013E8008067EF4E7005BD80D780C3EF8BF0A4AC4B
:1013F800F0EE8BF0A42CFCE435F0F8EF8AF0A42C86
:10140800E5F038FCE433CB8DF0A42CFCE5F03BF898
:10141800EE8AF0A42CFCE5F038F8E433CF89F0A488
:101428002CFCE5F038CF3400CE89F0A42FFFE5F08E
:101438003EFEE433C98DF0A42EFEE5F039CD8AF0E6
:10144800A42FFFE5F03EFEE43DFD33D0E0FB50075E
:101458000BBB000F02122BEC2CFCEF33FFEE33FE1C
:06146800ED33FD0212034A
:10146E003F8000004120000042C80000447A000086
:10147E00461C400047C35000497424004B18968008
:10148E004CBEBC205A0E1BCA6753C21C749DC5AEFF
:10149E00FB60065407601C23231214CCEB543860F7
:1014AE00091214B81214C7121368ECF8EDF9EEFA1B
:1014BE00EFCB22EB1214C780F1543803241C901486
:1014CE006EFE93FC0EEE93FD0EEE930ECE93FF2268
:1014DE00BB010689828A83E0225002E722BBFE020C
:0914EE00E32289828A83E493223F
:1014F700BB010CE58229F582E5833AF583E02250AA
:1015070006E92582F8E622BBFE06E92582F8E222F3
:0D151700E58229F582E5833AF583E493220D
:10152400BB010689828A83F0225002F722BBFE01A6
:02153400F322A0
:0E153600C3E49FFFE49EFEE49DFDE49CFC22C6
:0C154400ECF208EDF208EEF208EFF222E3
:10155000FAE2FB0808E2F925F0F218E2CA3AF222B0
:09156000EBF208EAF208E9F222BC
:10156900D083D082F8E4937012740193700DA3A311
:1015790093F8740193F5828883E473740293686025
:06158900EFA3A3A380DF25
:101B4D00EFB40A07740D121B58740A309811A89936
:101B5D00B8130CC2983098FDA899C298B811F630F8
:071B6D0099FDC299F59922D0
:00000001FF
