:030000000216F8ED
:0C16F800787FE4F6D8FD75816302173F8F
:1019BF00121851121ACE121A821212371200161260
:0419CF00156880F522
:101638007590FFC2932097083097FD7E007F0122A6
:101648002096083096FD7E007F042220950830956C
:10165800FD7E007F07222094083094FD7E007F0BDA
:10166800227590FFC2922097083097FD7E007F0276
:10167800222096083096FD7E007F052220950830AE
:1016880095FD7E007F08222094073094FDE4FEFF3C
:10169800227590FFC2912097083097FD7E007F0346
:1016A800222096083096FD7E007F0622209508307D
:1016B80095FD7E007F09222094083094FD7E007FEE
:1016C8000C227590FFC2902097083097FD7E007F0E
:1016D8000D222096083096FD7E007F0E2220950868
:1016E8003095FD7E007F0F227590FF7E007F0A22D5
:1017D700204C5F5F5F20425F5F5F20525F5F5F204B
:1017E70000202020696E707574206469737420204E
:1017F7002000202020202020202020202020202002
:0E180700202000303132333435363738390086
:04000E00021E0000CE
:10123700E51D640B451C702EFB7A00791175270498
:10124700FD7FA012188C7B007A0079087527047D32
:10125700047FA012188C7B007A0079097527047D1A
:10126700087FA012188CE51D640C451C7034FB7AAE
:10127700007911752704FD7FA01217847B007A007F
:1012870079087527047D047FA01217847B007A00F4
:1012970079097527047D087FA0121784751E0075CC
:1012A7001F04C3E51F9403E51E6480948040030276
:1012B7001565E51F451E700C7BFF7A1779D77D01F1
:1012C700FF1218C67BFF7A1779E8E4FDFF1218C6EC
:1012D700121638751C008F1DE51D640D451C70C264
:1012E700051FE51F7002051E6401451E60030213FA
:1012F700B9F512751302C3E5139405E512648094DA
:101307008040030213B9121638751C008F1DE512B1
:10131700706DE51324FD602714604524027060D3C7
:10132700E51D9400E51C648094804053E51D940AF4
:10133700E51C648094805047E51D75F064801ED3DA
:10134700E51D9400E51C648094804033E51D940AF4
:10135700E51C648094805027E51D75F00AA4801B66
:10136700D3E51D9400E51C648094804012E51D942C
:101377000AE51C648094805006E51D2511F511C30C
:10138700E51D940AE51C64809480501EAF13740A0F
:10139700251DF5827418351CF583E493FB7D011236
:1013A700197C0513E513700205127F321219AA0280
:1013B70012FDE51F6402451E6003021485F51275D0
:1013C7001307C3E513940AE512648094804003026F
:1013D7001485121638751C008F1DE512706DE51304
:1013E70024F8602714604524027060D3E51D94003B
:1013F700E51C648094804053E51D940AE51C6480D5
:1014070094805047E51D75F064801ED3E51D940058
:10141700E51C648094804033E51D940AE51C6480D4
:1014270094805027E51D75F00AA4801BD3E51D9411
:1014370000E51C648094804012E51D940AE51C6455
:101447008094805006E51D2508F508C3E51D940A1C
:10145700E51C64809480501EAF13740A251DF58225
:101467007418351CF583E493FB7D0112197C051371
:10147700E513700205127F321219AA0213C9E51F7C
:101487006403451E60030212A9F51E751F04F512B9
:1014970075130CC3E513940FE51264809480400321
:1014A700021556121638751C008F1DE512706DE572
:1014B7001324F3602714604524027060D3E51D945C
:1014C70000E51C648094804053E51D940AE51C6484
:1014D7008094805047E51D75F064801ED3E51D9408
:1014E70000E51C648094804033E51D940AE51C6484
:1014F7008094805027E51D75F00AA4801BD3E51D55
:101507009400E51C648094804012E51D940AE51C54
:10151700648094805006E51D2509F509C3E51D94EF
:101527000AE51C64809480501EAF13740A251DF5CC
:10153700827418351CF583E493FB7D0112197C0531
:1015470013E513700205127F321219AA02149A7B4F
:10155700FF7A1779F9E4FDFF1218C60212A9AF093D
:011567002261
:10196400523D25362E3266004C3D25362E32660019
:08197400423D25362E326600CB
:03001300020003E5
:07000300C2A1C2B5C2B73271
:0B1ACE00438910E4F58DF58BD2AB22AC
:10001600D2B67F0A121AE2C2B630B7FDD28E20B728
:10002600FDC28EAF8DEFFEAD8B7C00E42DFDEC3E68
:10003600FCE41209DC8F598E588D578C56E4FBFA76
:10004600796878421208C18F598E588D578C568F11
:10005600258E248D238C22E4F58DF58BD2B67F0A6E
:10006600121AE2C2B630B7FDD28E20B7FDC28EAFED
:100076008DEFFEAD8B7C00E42DFDEC3EFCE4120919
:10008600DC8F598E588D578C56E4FBFA7968784286
:100096001208C18F598E588D578C568F298E288DF0
:1000A600278C26E4F58DF58BD2B67F0A121AE2C2AA
:1000B600B630B7FDD28E20B7FDC28EAF8DEFFEAD46
:1000C6008B7C00E42DFDEC3EFCE41209DC8F598E9E
:1000D600588D578C56E4FBFA796878421208C18F1E
:1000E600598E588D578C568F2D8E2C8D2B8C2AE43D
:1000F600F58DF58BD2B67F0A121AE2C2B630B7FD7D
:10010600D28E20B7FDC28EAF8DEFFEAD8B7C00E4A4
:100116002DFDEC3EFCE41209DC8F598E588D578C70
:1001260056E4FBFA796878421208C18F598E588DC9
:10013600578C568F318E308D2F8C2EE4F58DF58BA6
:10014600D2B67F0A121AE2C2B630B7FDD28E20B7F7
:10015600FDC28EAF8DEFFEAD8B7C00E42DFDEC3E37
:10016600FCE41209DC8F598E588D578C56E4FBFA45
:10017600796878421208C18F598E588D578C568FE0
:10018600358E348D338C32E4F58DF58BF512F513FF
:10019600E4F514F515C374049513FFE49512FEC334
:1001A600E5159FEE6480F8E514648098506AAF15F3
:1001B600EF25E025E02426F8120D79C000EF25E0B2
:1001C60025E02422F8120D6DD00012095E503EABD8
:1001D60015EB25E025E02422F8120D6D8F398E38B7
:1001E6008D378C36EB25E025E02426F8120D6DEBD5
:1001F60025E025E02422F8120D86AF39AE38AD375A
:10020600AC36EB25E025E02426F8120D860515E52B
:10021600157002051402019B0513E5137002051201
:10022600640445126003020196AF2DAE2CAD2BACD3
:100236002AAB29AA28A927A8261207CDAB31AA30AE
:10024600A92FA82E1207CDE4FBFA794078401208B0
:10025600C18F598E588D578C56AC09EC1209E1ABFB
:1002660059AA58A957A85612095E5007C2A27FFA82
:100276001219AAD2A2753DFF753E19753F648559BC
:10028600438558428557418556407B007A00790A56
:10029600120E247B007A00790A7D01E4FF1218C64B
:1002A600D2A07F0A121AE2C2A030A1FDD28E20A1EE
:1002B600FDC28EAF8DEFFEAD8B7C00E42DFDEC3ED6
:1002C600FCE41209DC8F5D8E5C8D5B8C5AE4FBFAD4
:1002D600796878421208C18F5D8E5C8D5B8C5A8F6F
:1002E600258E248D238C22E4F58DF58BD2A07F0AF2
:1002F600121AE2C2A030A1FDD28E20A1FDC28EAF9D
:100306008DEFFEAD8B7C00E42DFDEC3EFCE4120986
:10031600DC8F5D8E5C8D5B8C5AE4FBFA79687842E3
:100326001208C18F5D8E5C8D5B8C5A8F298E288D4D
:10033600278C26E4F58DF58BD2A07F0A121AE2C22D
:10034600A030A1FDD28E20A1FDC28EAF8DEFFEADF5
:100356008B7C00E42DFDEC3EFCE41209DC8F5D8E07
:100366005C8D5B8C5AE4FBFA796878421208C18F7F
:100376005D8E5C8D5B8C5A8F2D8E2C8D2B8C2AE49A
:10038600F58DF58BD2A07F0A121AE2C2A030A1FD2C
:10039600D28E20A1FDC28EAF8DEFFEAD8B7C00E428
:1003A6002DFDEC3EFCE41209DC8F5D8E5C8D5B8CD2
:1003B6005AE4FBFA796878421208C18F5D8E5C8D2B
:1003C6005B8C5A8F318E308D2F8C2EE4F58DF58B0C
:1003D600D2A07F0A121AE2C2A030A1FDD28E20A1BD
:1003E600FDC28EAF8DEFFEAD8B7C00E42DFDEC3EA5
:1003F600FCE41209DC8F5D8E5C8D5B8C5AE4FBFAA3
:10040600796878421208C18F5D8E5C8D5B8C5A8F3D
:10041600358E348D338C32E4F58DF58BF512F5136C
:10042600E4F514F515C374049513FFE49512FEC3A1
:10043600E5159FEE6480F8E514648098506AAF1560
:10044600EF25E025E02426F8120D79C000EF25E01F
:1004560025E02422F8120D6DD00012095E503EAB45
:1004660015EB25E025E02422F8120D6D8F398E3824
:100476008D378C36EB25E025E02426F8120D6DEB42
:1004860025E025E02422F8120D86AF39AE38AD37C7
:10049600AC36EB25E025E02426F8120D860515E599
:1004A600157002051402042B0513E51370020512DC
:1004B600640445126003020426AF2DAE2CAD2BACAE
:1004C6002AAB29AA28A927A8261207CDAB31AA301C
:1004D600A92FA82E1207CDE4FBFA7940784012081E
:1004E600C18F5D8E5C8D5B8C5AAC11EC1209E1AB51
:1004F6005DAA5CA95BA85A12095E5007C2A27FFAE0
:100506001219AAD2A2753DFF753E19753F6C855D1D
:1005160043855C42855B41855A407B007A00790AB7
:10052600120E247B007A00790A7D017F081218C614
:10053600D2B47F0A121AE2C2B430B5FDD28E20B50B
:10054600FDC28EAF8DEFFEAD8B7C00E42DFDEC3E43
:10055600FCE41209DC8F618E608D5F8C5EE4FBFA31
:10056600796878421208C18F618E608D5F8C5E8FCC
:10057600258E248D238C22E4F58DF58BD2B47F0A4B
:10058600121AE2C2B430B5FDD28E20B5FDC28EAFCE
:100596008DEFFEAD8B7C00E42DFDEC3EFCE41209F4
:1005A600DC8F618E608D5F8C5EE4FBFA7968784241
:1005B6001208C18F618E608D5F8C5E8F298E288DAB
:1005C600278C26E4F58DF58BD2B47F0A121AE2C287
:1005D600B430B5FDD28E20B5FDC28EAF8DEFFEAD27
:1005E6008B7C00E42DFDEC3EFCE41209DC8F618E71
:1005F600608D5F8C5EE4FBFA796878421208C18FE1
:10060600618E608D5F8C5E8F2D8E2C8D2B8C2AE4F7
:10061600F58DF58BD2B47F0A121AE2C2B430B5FD5D
:10062600D28E20B5FDC28EAF8DEFFEAD8B7C00E481
:100636002DFDEC3EFCE41209DC8F618E608D5F8C33
:100646005EE4FBFA796878421208C18F618E608D8C
:100656005F8C5E8F318E308D2F8C2EE4F58DF58B71
:10066600D2B47F0A121AE2C2B430B5FDD28E20B5DA
:10067600FDC28EAF8DEFFEAD8B7C00E42DFDEC3E12
:10068600FCE41209DC8F618E608D5F8C5EE4FBFA00
:10069600796878421208C18F618E608D5F8C5E8F9B
:1006A600358E348D338C32E4F58DF58BF512F513DA
:1006B600E4F514F515C374049513FFE49512FEC30F
:1006C600E5159FEE6480F8E514648098506AAF15CE
:1006D600EF25E025E02426F8120D79C000EF25E08D
:1006E60025E02422F8120D6DD00012095E503EABB3
:1006F60015EB25E025E02422F8120D6D8F398E3892
:100706008D378C36EB25E025E02426F8120D6DEBAF
:1007160025E025E02422F8120D86AF39AE38AD3734
:10072600AC36EB25E025E02426F8120D860515E506
:1007360015700205140206BB0513E51370020512B7
:100746006404451260030206B6AF2DAE2CAD2BAC89
:100756002AAB29AA28A927A8261207CDAB31AA3089
:10076600A92FA82E1207CDE4FBFA7940784012088B
:10077600C18F618E608D5F8C5EAC08EC1209E1ABB7
:1007860061AA60A95FA85E12095E5007C2A27FFA3D
:100796001219AAD2A2753DFF753E19753F7485617F
:1007A60043856042855F41855E407B007A00790A19
:1007B600120E247B007A00790AE4FD7F040218C633
:101A72007580FFC2A4D2A5C2A600D2A6E5803322F9
:101A1D00121A7240FBC2A4C2A5D2A68F8000C2A624
:011A2D002296
:101A2E00121A7240FBD2A4C2A5D2A68F8000C2A603
:011A3E002285
:1018C6008F3A8D3B8B3C8A3D893EAB3CAA3DA93E77
:1018D600120D07FB6016AD3BAF3A12197C74012559
:0D18E6003EF53EE4353DF53D053A80DE223D
:10197C00AE07AC03ED7005EE24808003EE24C0FFAF
:08198C00121A1DAF04021A2E0D
:101851007F38121A1D7F051219AA7F38121A1D7FAF
:10186100051219AA7F38121A1D7F051219AA7F388D
:10187100121A1D7F08121A1D7F01121A1D7F0612EE
:0B1881001A1D1F1219AA7F0C021A1D6D
:031AE200DFFE2202
:1019AA00AE07AF061EEF600C7FF5121AE27FF51242
:0519BA001AE280EE229C
:10199400D2B100D2B00000000000C2B100000000CB
:0619A40000C2B0000022A9
:101A3F00C2B100D2B00000000000D2B1000000001F
:011A4F002274
:10181500E4FEEFA806088002C333D8FC30E704D203
:10182500B18002C2B100D2B00000000000C2B00E0B
:10183500BE08DF0000D2B10000D2B000000030B118
:0B18450004C2098002D209C2B00000FA
:011850002275
:10194000E4FFD2B1FE00C2B00000000000D2B0003F
:1019500000EF25E0FF30B1010F00000EBE08E6C227
:03196000B00000D4
:011963002261
:101A5000C2B1000000D2B00000000000C2B000001F
:011A60002263
:101A6100D2B1000000D2B00000000000C2B00000FE
:011A71002252
:02188C00AE07A5
:10188E00121994121815200902C322AF0512181549
:10189E00200902C322E4FDEDC395275016120D0751
:1018AE00FF121815200902C322740129F9E43AFA2D
:0718BE000D80E4121A3FD374
:0118C5002200
:02178400AC07B0
:10178600121994121815200902C322AF0512181552
:10179600200902C322121994EC04FF12181520091D
:1017A60002C322E4FDE52714FFEDC39F501412196E
:1017B60040EF120D4D121A50740129F9E43AFA0D50
:1017C60080E3121940EF120D4D121A61121A3FD31F
:0117D60022F0
:0F1A9200C3EF9563EE95624003D29422C2942273
:0F1AA100C3EF9563EE95624003D29322C2932266
:0F1AB000C3EF9563EE95624003D29222C2922259
:0F1ABF00C3EF9563EE95624003D29122C291224C
:1019D3007F057E00121A92C293D295C292121ABF49
:0319E300D290227D
:1019E600C2947F077E00121AA1D295121AB0C29134
:0319F600D290226A
:1019F900C294C293C295C2927F057E00121ABFD2C9
:021A0900902229
:101A0B007F057E00121A92C293D295C292C291C2E6
:021A1B00902217
:091AD900C294C293C292C2912290
:101A8200438901758CFF758A38D2A9D2AFD28C22D4
:03000B0002191ABD
:10191A00C0E0C0D0758CFF758A380563E563700234
:10192A000562D39464E562940040067562007563AB
:06193A0000D0D0D0E03225
:10156800E4FFFE7DB07C40AB59AA58A957A8561293
:10157800095E4014E4FFFE7DB07C40AB5DAA5CA927
:101588005BA85A12095E50081219D37FF41219AADF
:10159800AF5DAE5CAD5BAC5AAB59AA58A957A8561B
:1015A80012095E60244022121A0B7FF41219AAE471
:1015B800FFFEFD7C41AB61AA60A95FA85E12095ECF
:1015C800602C402A1219E680251219F97FF41219A5
:1015D800AAE4FFFEFD7C41AB61AA60A95FA85E1288
:1015E800095E600A40081219E67FF41219AAE4FF9E
:1015F800FE7DC07C40AB59AA58A957A85612095E6F
:10160800502DE4FFFE7DC07C40AB5DAA5CA95BA8C1
:101618005A12095E5019E4FFFE7DA07C40AB61AA16
:1016280060A95FA85E12095E5005121AD980BF2210
:1007C600020A4AE86480F8E933E83360110460F00D
:1007D600ED33EC337009E8FCE9FDEAFEEBFF220499
:1007E60060DED3EB9FEA9EE99DE8C2E78CF0C2F794
:1007F60095F0400CE8CCF8E9CDF9EACEFAEBCFFB60
:10080600120A1585D0F05804700320D5B3E8047099
:10081600075002B2D5020A5492D5EC0460F7E4CC34
:10082600C0E0C398F8603B94186008400DD0E0FB28
:10083600020A2CE4FBFAC9FC8028E830E406E4C985
:10084600FBE4CAFCE830E305E4C9CACBFCE854077C
:100856006010F8C3E913F9EA13FAEB13FBEC13FC87
:10086600D8F130F52FC3E49CFCEF9BFFEE9AFEED2A
:1008760099FDD0E0FBEF4E4D4C701222DB03020ACD
:1008860051EC2CFCEF33FFEE33FEED33FDED30E79C
:10089600EB020A2CEF2BFFEE3AFEED39FDD0E0FB22
:1008A60050130BBB0003020A54ED13FDEE13FEEFCB
:0808B60013FFEC13FC020A2CF5
:1008BE00020A54EC5D046005E859047003020A4A0A
:1008CE00120A15580460F6EC4860F2EC7004FDFE56
:1008DE00FF22C860DB2481C85009C398600250060D
:1008EE00020A519850CAF582E9294B4A7005AB822B
:1008FE00020A4075F0007C1A7880C3EF9BEE9AEDE9
:10090E0099400DC3EF9BFFEE9AFEED99FDE842F084
:10091E00DC23ACF0D0E0FFD0E0FED0E0FDAB8220D7
:10092E00E7101BEB60BAEC2CFCEF33FFEE33FEED61
:10093E0033FD020A2CE803F830E705C0F075F0002D
:10094E00EF2FFFEE33FEED33FD40B830E7C280AA45
:10095E0074F8CC6480CCC86480C8F58204604FC340
:10096E00EB9FF5F0EA9E42F0E99D42F0E89C45F0DF
:10097E00603C501DE5825FFFE582D313CB5BCBF469
:10098E002B5582FB50280ABA002409B90020088092
:10099E001DE5825BFBE582D313CF5FCFF4C3132F2C
:1009AE005582FF50090EBE00050DBD00010CC3EBB4
:1009BE009FF5F0EA9E42F0E99D42F0E89C45F0601A
:0909CE0007CC4820E701B3EC223C
:1009D70075F020800E75F010800575F0087D007E9B
:1009E700007F003392D530D503120D5FEC334010F2
:1009F700EF33FFEE33FEED33FDEC33FCD5F0ED22A4
:0E0A0700E5F0247EA2D513CC92E7CDCEFF22DF
:100DC800E551243DF8E6055122783A300702783D8E
:100DD800E475F001120D92020D072000EB7F2ED270
:100DE800008018EF540F2490D43440D4FF30040B03
:100DF800EF24BFB41A0050032461FFE552600215C6
:100E0800520555E5557002055430070D783AE475DA
:100E1800F001120D92EF020D4D0218F37403D20780
:100E28008003E4C207F5518B3A8A3B893CE4F552CA
:100E3800F554F555E55260077F20120E0380F575CD
:100E480053FFC201C200C202C203C205C206C208E1
:100E5800120DD1FF700D3007057F00120E14AF552B
:100E6800AE5422B4255FC2D5C204120DD1FF24D0DE
:100E7800B40A00501A75F00A785230D50508B6FF42
:100E88000106C6A426F620D5047002D20380D92410
:100E9800CFB41A00EF5004C2E5D204021101D20106
:100EA80080C6D20080C0D20280BCD2D580BAD2051A
:100EB80080B47F20120E032002077401B55200404F
:100EC800F1120DC8FF120E03020E3CD208D20680A2
:100ED80095120DC8FB120DC8FA120DC8F94A4B70CD
:100EE8000679F87A117BFF20022EE552602A7E00EF
:100EF8008E82758300120D2060060EEE655370F029
:100F0800C2D5EBC0E0EAC0E0E9C0E0EE121161D062
:100F1800E0F9D0E0FAD0E0FB120D07FF60AAEBC0C1
:100F2800E0EAC0E0E9C0E0120E03D0E02401F9D005
:100F3800E03400FAD0E0FBE5530460DCD553D980F7
:100F480087D20280A212114460F7E553700104129F
:100F58000A5FA953600DE553600914F5531211EBAC
:100F6800EF60F3EA30E702F404C3995077EAF42516
:100F7800530430E701E404F553800D12114460C1B5
:100F8800EA05532553120A5FEA7850F630E701E480
:100F9800255304D5530420050114121161E4C0E05F
:100FA8001211EB7850E6601320E70714F6120DEBE8
:100FB800802204F6D0E014C0E07F00120DEBE55368
:100FC8006007120DE21553800B300503120DE2D0B5
:100FD800E0020E3CD0E00480C512114460A0E55345
:100FE80004120A5F7850EAF6E5532005026001040E
:050FF800240412116148
:100FFD0074FF04C0E01211EB120DEBE55320050256
:10100D006003120DE2D0E0B553E87F45120DF5787F
:10101D0050E67F2B30E7047F2DF404C0E0120E0361
:10102D00D0E075F00A84C0F0120DECD0E0120DEC9A
:10103D00020E3C791080027908C206C2088008D2DF
:10104D00D5790A8004790AC2D5E553047002F553A7
:10105D00E4FAFDFEFF120DC8FC7B08200113120DF2
:10106D00C8FD7B1030000A120DC8FE120DC8FF7BA3
:10107D0020EC3382D592D55013C3E43000069FFF88
:10108D00E49EFEE42001039DFDE49CFCE4CBF8C24C
:10109D0001EC700CCFCECDCCE824F8F870F38017AE
:1010AD00C3EF33FFEE33FEED33FDEC33FCEB33FBDF
:1010BD00994002FB0FD8E9EB300105F8D0E0C448A8
:1010CD00B201C0E00AEC4D4E4F78207B0070C2EAB1
:1010DD00B5530040BCC0E0121163D0F0D0E0200148
:1010ED0004C4C0E0C4B201C0F0120DECD0F0D5F0D4
:1010FD00EB020E3C120DA20ED9531040580EAA4C05
:10110D000EA64210444F104C44104C490EBF4310D4
:10111D0052550F83460FE1450F4D471218500EAE35
:10112D002D0EB22E0ED52B0EB6230ED32012012A64
:10113D000E6E4800000ECDE553B4FF037553061235
:10114D000DC8FC120DC8FD120DC8FE120DC8FF789A
:10115D0049020A8E790AA2D5200314300509B91067
:10116D00020404B9080104A2D5200602500104208E
:10117D0002689202B552005034C0E07F203003194E
:10118D007F30A20272067205500F1211BAC202C24E
:10119D0006C205C2087F30800F300503E9C0E0129A
:1011AD000E03300503D0E0F9D0E0B552CC30051771
:1011BD007F30B9100C120E037F583004077F7880F2
:1011CD0003B90803120E033002057F2D020E037FB3
:1011DD00202008F87F2B2006F322920280CF7F007B
:1011ED00B4070050052449F8E6FF22286E756C6C93
:1011FD002900D201120DC83001F8C201785230D544
:10120D000108F6020E6E2D50434958120DC82403E5
:10121D00B405004001E490121393120DF4743A12C8
:0A122D000DF4D203755204021040C4
:100A1500E9D2E7C933E833F892D5EDD2E7CD33EC27
:070A250033FC5002B2D522A0
:100A2C00EC30E7100FBF000C0EBE00080DBD00042B
:100A3C000BEB6014A2D5EB13FCED92E7FD2274FFD7
:100A4C00FCFDFEFF22E480F8A2D574FF13FC7D8030
:030A5C00E480EF44
:100A5F00F920E72824F950037907E4F42402FB185E
:100A6F00DBFDE624FB5014E9600DE4F618E604F60E
:0F0A7F00B40A08E4F6D9F57401F60A22C2D522AA
:100A8E00ED33EC3392D5FA602AB4FF33EDC2E77B37
:100A9E00FF60067A0A79B3E4227A0A79BC20D5047B
:100AAE007A0A79B7224E614E002B494E46002D49E7
:100ABE004E4600E47A08F608DAFC7B00740722E85A
:100ACE00C0E0ECC0E0EDC0E0EEC0E0EFC0E0EA75E3
:100ADE00F010A4CAABF075F04DA42BFBE435F0FC7E
:100AEE00EA2410FAEB34C5FBEC34D9FCEDC2E7FF77
:100AFE0075F056A4F42411C5F0F434C58FF0A42A71
:100B0E00E5F03BE43CF620E714120CC7D0E0FFD032
:100B1E00E0FED0E0FDD0E0FC1208C18014F4041217
:100B2E000CC7D0E0FFD0E0FED0E0FDD0E0FC120B11
:100B3E0091D0E0F8E6FAEDD2E7CD33EC332482FB28
:100B4E00E4C3CF33CFCE33CECD33CD33DBF37B0700
:100B5E0075F00A846004F6081B0AE5F0F6088FF0BB
:100B6E00740AA4FFACF08EF0740AA42CFEACF05004
:100B7E00010C8DF0740AA42CFDE435F0F608DBDED2
:030B8E00740722C7
:100B9100EC4D6011E8497017ED33EC3304600DE45E
:100BA100FCFFFEFD22E933E8330470F8020A4A1221
:100BB1000A1558046009E4CC248150062850090222
:100BC1000A54284003020A51C0E0EB4A7044B9803C
:100BD10006D0E0FB020A40EF4E701CBD8008EBFF1F
:100BE100EAFEE9FD80EBE98DF0A4FEE5F0020C7A66
:100BF100E9CDF9EAFEEBFFEF89F0A4FCE5F0CE893F
:100C0100F0A42EFFE435F0CD89F0A42DFEE435F0FB
:100C11008067EF4E7005BD80D780C3EF8BF0A4AC29
:100C2100F0EE8BF0A42CFCE435F0F8EF8AF0A42C64
:100C3100E5F038FCE433CB8DF0A42CFCE5F03BF877
:100C4100EE8AF0A42CFCE5F038F8E433CF89F0A467
:100C51002CFCE5F038CF3400CE89F0A42FFFE5F06D
:100C61003EFEE433C98DF0A42EFEE5F039CD8AF0C5
:100C7100A42FFFE5F03EFEE43DFD33D0E0FB50073D
:100C81000BBB000F020A54EC2CFCEF33FFEE33FEDA
:060C9100ED33FD020A2C08
:100C97003F8000004120000042C80000447A000065
:100CA700461C400047C35000497424004B189680E7
:100CB7004CBEBC205A0E1BCA6753C21C749DC5AEDE
:100CC700FB60065407601C2323120CF5EB543860B5
:100CD70009120CE1120CF0120B91ECF8EDF9EEFA97
:100CE700EFCB22EB120CF080F1543803241C900C4C
:100CF70097FE93FC0EEE93FD0EEE930ECE93FF221E
:101704000219BFE493A3F8E493A34003F68001F223
:1017140008DFF48029E493A3F85407240CC8C333E6
:10172400C4540F4420C8834004F456800146F6DFB5
:10173400E4800B010204081020408090000EE47E37
:10174400019360BCA3FF543F30E509541FFEE493AA
:10175400A360010ECF54C025E060A840B8E493A371
:10176400FAE493A3F8E493A3C8C582C8CAC583CA9C
:10177400F0A3C8C582C8CAC583CADFE9DEE780BE54
:0100120000ED
:100D0700BB010689828A83E0225002E722BBFE02EA
:090D1700E32289828A83E493221D
:100D2000BB010CE58229F582E5833AF583E0225088
:100D300006E92582F8E622BBFE06E92582F8E222D2
:0D0D4000E58229F582E5833AF583E49322EC
:100D4D00BB010689828A83F0225002F722BBFE0185
:020D5D00F3227F
:0E0D5F00C3E49FFFE49EFEE49DFDE49CFC22A5
:0C0D6D00E6FC08E6FD08E6FE08E6FF22B2
:0D0D7900E6FB08E6F908E6FA08E6CBF822EA
:0C0D8600ECF608EDF608EEF608EFF62299
:100D9200FAE6FB0808E6F925F0F618E6CA3AF62262
:100DA200D083D082F8E4937012740193700DA3A3E0
:100DB20093F8740193F5828883E4737402936860F4
:060DC200EFA3A3A380DFF4
:1018F300EFB40A07740D1218FE740A309811A899F0
:10190300B8130CC2983098FDA899C298B811F63054
:0719130099FDC299F599222C
:00000001FF
