:0300000002168560
:0C168500787FE4F6D8FD7581660216CC73
:10191B00E4F545F546F547F548F549F54A1219F44E
:0E192B00121847121A40120A9912198C80F8ED
:1015C5007590FFC2932097083097FD7E007F01221A
:1015D5002096083096FD7E007F04222095083095E0
:1015E500FD7E007F07222094083094FD7E007F0B4E
:1015F500227590FFC2922097083097FD7E007F02EA
:10160500222096083096FD7E007F05222095083021
:1016150095FD7E007F08222094073094FDE4FEFFAF
:10162500227590FFC2912097083097FD7E007F03B9
:10163500222096083096FD7E007F062220950830F0
:1016450095FD7E007F09222094083094FD7E007F61
:101655000C227590FFC2902097083097FD7E007F81
:101665000D222096083096FD7E007F0E22209508DB
:101675003095FD7E007F0F227590FF7E007F0A2248
:10178D00204C5F5F5F20425F5F5F20525F5F5F2095
:10179D0000202020696E7075742064697374202098
:1017AD00200020202020202020202020202020204C
:0E17BD002020003031323334353637383900D1
:04000E00021E0000CE
:100A9900C3E51F9403E51E648094804003020D871B
:100AA900E51F451E700C7BFF7A17798D7D01FF12BA
:100AB90018827BFF7A17799EE4FDFF1218821215BE
:100AC900C5751C008F1DE51D640D451C70C2051FF1
:100AD900E51F7002051EE51E70B6E51F24FE7003B2
:100AE900020BC8147003020C9D240270A375410007
:100AF900754202C3E5429405E541648094805090B3
:100B09001215C5751C008F1DE5416003020B95E5A3
:100B19004224FD602A14605324027070D3E51D94A9
:100B290000E51C648094804063E51D940AE51C641B
:100B39008094805057AE1CAF1D7C007D648021D30A
:100B4900E51D9400E51C648094804040E51D940AED
:100B5900E51C648094805034AE1CAF1D7C007D0A76
:100B69001205AFEF251BF51BEE801DC3E51C648044
:100B790094804018E51D940AE51C64809480500C0B
:100B8900E51D251BF51BE51C351AF51AC3E51D9452
:100B99000AE51C64809480501EAF4274C0251DF57F
:100BA900827417351CF583E493FB7D01121939050D
:100BB90042E542700205417F32121951020AFC7561
:100BC9004100754207C3E542940AE5416480948077
:100BD9004003020A991215C5751C008F1DE5416075
:100BE90003020C6AE54224F8602A14605324027057
:100BF90070D3E51D9400E51C648094804063E51D75
:100C0900940AE51C648094805057AE1CAF1D7C008B
:100C19007D648021D3E51D9400E51C6480948040A7
:100C290040E51D940AE51C648094805034AE1CAFE5
:100C39001D7C007D0A1205AFEF2517F517EE801D03
:100C4900C3E51C648094804018E51D940AE51C6482
:100C5900809480500CE51D2517F517E51C3516F510
:100C690016C3E51D940AE51C64809480501EAF42AA
:100C790074C0251DF5827417351CF583E493FB7D3B
:100C8900011219390542E542700205417F321219F4
:100C990051020BCE751E00751F0475410075420C7B
:100CA900C3E542940FE541648094804003020D78C6
:100CB9001215C5751C008F1DE5416003020D45E540
:100CC9004224F3602A14605324027070D3E51D9402
:100CD90000E51C648094804063E51D940AE51C646A
:100CE9008094805057AE1CAF1D7C007D648021D359
:100CF900E51D9400E51C648094804040E51D940A3C
:100D0900E51C648094805034AE1CAF1D7C007D0AC4
:100D19001205AFEF2519F519EE801DC3E51C648096
:100D290094804018E51D940AE51C64809480500C59
:100D3900E51D2519F519E51C3518F518C3E51D94A8
:100D49000AE51C64809480501EAF4274C0251DF5CD
:100D5900827417351CF583E493FB7D01121939055B
:100D690042E542700205417F32121951020CA97BFA
:100D7900FF7A1779AFE4FDFF121882020A99E4FE9F
:020D8900FF2247
:1019E4007580FFC2A4D2A5C2A600D2A6E580332288
:1019C2001219E440FBC2A4C2A5D2A68F8000C2A60F
:0119D20022F2
:1019D3001219E440FBD2A4C2A5D2A68F8000C2A6EE
:0119E30022E1
:101882008F4B8D4C8B4D8A4E894FAB4DAA4EA94F33
:10189200120557FB6016AD4CAF4B12193974012576
:0D18A2004FF54FE4354EF54E054B80DE222C
:10193900AE07AC03ED7005EE24808003EE24C0FFF2
:081949001219C2AF040219D308
:101847007F381219C27F051219517F381219C27FCA
:10185700051219517F381219C27F051219517F38A5
:101867001219C27F081219C27F011219C27F06120C
:0B18770019C21F1219517F0C0219C288
:1018FC00523D25362E326600656572726F72004C51
:0F190C003D25362E326600423D25362E326600CE
:03001300020003E5
:07000300C2A1C2B5C2B73271
:0B1A4000438910E4F58DF58BD2AB223A
:100D8B00D2B67F0A121A54C2B630B7FDD28E20B734
:100D9B00FDC28EAF8DEFFEAD8B7C00E42DFDEC3EE6
:100DAB00FCE41203328F0B8E0A8D098C08E4FBFADC
:100DBB00796878421202178F0B8E0A8D098C088F77
:100DCB00308E2F8D2E8C2DE4F58DF58BD2B67F0AC0
:100DDB00121A54C2B630B7FDD28E20B7FDC28EAFF9
:100DEB008DEFFEAD8B7C00E42DFDEC3EFCE412039D
:100DFB00328F0B8E0A8D098C08E4FBFA79687842E6
:100E0B001202178F0B8E0A8D098C088F348E338D3F
:100E1B00328C31E4F58DF58BD2B67F0A121A54C29F
:100E2B00B630B7FDD28E20B7FDC28EAF8DEFFEADC3
:100E3B008B7C00E42DFDEC3EFCE41203328F0B8E19
:100E4B000A8D098C08E4FBFA796878421202178F35
:100E5B000B8E0A8D098C088F388E378D368C35E4C6
:100E6B00F58DF58BD2B67F0A121A54C2B630B7FD88
:100E7B00D28E20B7FDC28EAF8DEFFEAD8B7C00E422
:100E8B002DFDEC3EFCE41203328F0B8E0A8D098C88
:100E9B0008E4FBFA796878421202178F0B8E0A8DE1
:100EAB00098C088F3C8E3B8D3A8C39E4F58DF58B94
:100EBB00D2B67F0A121A54C2B630B7FDD28E20B703
:100ECB00FDC28EAF8DEFFEAD8B7C00E42DFDEC3EB5
:100EDB00FCE41203328F0B8E0A8D098C08E4FBFAAB
:100EEB00796878421202178F0B8E0A8D098C088F46
:100EFB00408E3F8D3E8C3DE4F58DF58BF541F542F3
:100F0B00E4F543F544C374049542FFE49541FEC3F5
:100F1B00E5449FEE6480F8E543648098506AAF44E3
:100F2B00EF25E025E02431F81205DBC000EF25E0CA
:100F3B0025E0242DF81205CFD0001202B4503EABA1
:100F4B0044EB25E025E0242DF81205CF8F2C8E2BBA
:100F5B008D2A8C29EB25E025E02431F81205CFEB07
:100F6B0025E025E0242DF81205E8AF2CAE2BAD2A99
:100F7B00AC29EB25E025E02431F81205E80544E522
:100F8B004470820543020F100542E5427002054191
:100F9B00640445416003020F0BAF38AE37AD36AC7E
:100FAB0035AB34AA33A932A83112001DAB3CAA3B96
:100FBB00A93AA83912001DE4FBFA794078401202D5
:100FCB00177B5A7A64798B783F12010E8F0B8E0A3E
:100FDB008D098C08AC18AD19EC120332AB0BAA0AB5
:100FEB00A909A8081202B45007C2A27FC81219514E
:100FFB00D2A2E4FFFE7DE17C43AB0BAA0AA909A8B0
:10100B00081202B4502A754EFF754F187550FC85A7
:10101B000B54850A538509528508517B007A007958
:10102B00221206867B007A0079227D01E4FF800A7A
:0E103B007BFF7A1979047D017F021218822250
:10104900D2A07F0A121A54C2A030A1FDD28E20A1CB
:10105900FDC28EAF8DEFFEAD8B7C00E42DFDEC3E25
:10106900FCE41203328F0F8E0E8D0D8C0CE4FBFA0B
:10107900796878421202178F0F8E0E8D0D8C0C8FA6
:10108900308E2F8D2E8C2DE4F58DF58BD2A07F0A15
:10109900121A54C2A030A1FDD28E20A1FDC28EAF7A
:1010A9008DEFFEAD8B7C00E42DFDEC3EFCE41203DC
:1010B900328F0F8E0E8D0D8C0CE4FBFA7968784215
:1010C9001202178F0F8E0E8D0D8C0C8F348E338D6F
:1010D900328C31E4F58DF58BD2A07F0A121A54C2F5
:1010E900A030A1FDD28E20A1FDC28EAF8DEFFEAD45
:1010F9008B7C00E42DFDEC3EFCE41203328F0F8E55
:101109000E8D0D8C0CE4FBFA796878421202178F68
:101119000F8E0E8D0D8C0C8F388E378D368C35E4F5
:10112900F58DF58BD2A07F0A121A54C2A030A1FD09
:10113900D28E20A1FDC28EAF8DEFFEAD8B7C00E477
:101149002DFDEC3EFCE41203328F0F8E0E8D0D8CBB
:101159000CE4FBFA796878421202178F0F8E0E8D14
:101169000D8C0C8F3C8E3B8D3A8C39E4F58DF58BCB
:10117900D2A07F0A121A54C2A030A1FDD28E20A19A
:10118900FDC28EAF8DEFFEAD8B7C00E42DFDEC3EF4
:10119900FCE41203328F0F8E0E8D0D8C0CE4FBFADA
:1011A900796878421202178F0F8E0E8D0D8C0C8F75
:1011B900408E3F8D3E8C3DE4F58DF58BF541F54232
:1011C900E4F543F544C374049542FFE49541FEC335
:1011D900E5449FEE6480F8E543648098506AAF4423
:1011E900EF25E025E02431F81205DBC000EF25E00A
:1011F90025E0242DF81205CFD0001202B4503EABE1
:1012090044EB25E025E0242DF81205CF8F2C8E2BF9
:101219008D2A8C29EB25E025E02431F81205CFEB46
:1012290025E025E0242DF81205E8AF2CAE2BAD2AD8
:10123900AC29EB25E025E02431F81205E80544E561
:1012490044708205430211CE0542E5427002054110
:101259006404454160030211C9AF38AE37AD36ACFD
:1012690035AB34AA33A932A83112001DAB3CAA3BD5
:10127900A93AA83912001DE4FBFA79407840120214
:10128900177B5A7A64798B783F12010E8F0F8E0E75
:101299008D0D8C0CAC1AAD1BEC120332AB0FAA0EE0
:1012A900A90DA80C1202B45007C2A27FC812195185
:1012B900D2A2E4FFFE7DE17C43AB0FAA0EA90DA8E3
:1012C9000C1202B4502A754EFF754F1975500B85D3
:1012D9000F54850E53850D52850C517B007A007988
:1012E900221206867B007A0079227D017F08800A16
:0E12F9007BFF7A1979047D017F0A1218822288
:10130700D2B47F0A121A54C2B430B5FDD28E20B5BA
:10131700FDC28EAF8DEFFEAD8B7C00E42DFDEC3E64
:10132700FCE41203328F138E128D118C10E4FBFA3A
:10133700796878421202178F138E128D118C108FD5
:10134700308E2F8D2E8C2DE4F58DF58BD2B47F0A40
:10135700121A54C2B430B5FDD28E20B5FDC28EAF7D
:101367008DEFFEAD8B7C00E42DFDEC3EFCE412031B
:10137700328F138E128D118C10E4FBFA7968784244
:101387001202178F138E128D118C108F348E338D9E
:10139700328C31E4F58DF58BD2B47F0A121A54C220
:1013A700B430B5FDD28E20B5FDC28EAF8DEFFEAD48
:1013B7008B7C00E42DFDEC3EFCE41203328F138E90
:1013C700128D118C10E4FBFA796878421202178F9C
:1013D700138E128D118C108F388E378D368C35E425
:1013E700F58DF58BD2B47F0A121A54C2B430B5FD0D
:1013F700D28E20B5FDC28EAF8DEFFEAD8B7C00E4A3
:101407002DFDEC3EFCE41203328F138E128D118CEE
:1014170010E4FBFA796878421202178F138E128D47
:10142700118C108F3C8E3B8D3A8C39E4F58DF58B02
:10143700D2B47F0A121A54C2B430B5FDD28E20B589
:10144700FDC28EAF8DEFFEAD8B7C00E42DFDEC3E33
:10145700FCE41203328F138E128D118C10E4FBFA09
:10146700796878421202178F138E128D118C108FA4
:10147700408E3F8D3E8C3DE4F58DF58BF541F54271
:10148700E4F543F544C374049542FFE49541FEC374
:10149700E5449FEE6480F8E543648098506AAF4462
:1014A700EF25E025E02431F81205DBC000EF25E049
:1014B70025E0242DF81205CFD0001202B4503EAB20
:1014C70044EB25E025E0242DF81205CF8F2C8E2B39
:1014D7008D2A8C29EB25E025E02431F81205CFEB86
:1014E70025E025E0242DF81205E8AF2CAE2BAD2A18
:1014F700AC29EB25E025E02431F81205E80544E5A1
:10150700447082054302148C0542E542700205418E
:10151700640445416003021487AF38AE37AD36AC7B
:1015270035AB34AA33A932A83112001DAB3CAA3B14
:10153700A93AA83912001DE4FBFA79407840120253
:10154700177B5A7A64798B783F12010E8F138E12AC
:101557008D118C10AC16AD17EC120332AB13AA1217
:10156700A911A8101202B45007C2A27FC8121951BC
:10157700D2A2E4FFFE7DE17C43AB13AA12A911A816
:10158700101202B4502A754EFF754F197550138506
:1015970013548512538511528510517B007A0079B7
:1015A700221206867B007A007922E4FD7F04800AF6
:0E15B7007BFF7A197904E4FD7F061218822268
:10198C00120D8B1217CB12104912180912130702E1
:02199C00171121
:031A5400DFFE2290
:10195100AE07AF061EEF600C7FF5121A547FF51229
:051961001A5480EE2283
:0F1A0400C3EF9515EE95144003D29622C2962299
:0F1A1300C3EF9515EE95144003D29522C295228C
:0F1A2200C3EF9515EE95144003D29422C294227F
:0F1A3100C3EF9515EE95144003D29322C2932272
:101966007F037E00121A04C295D297C294121A31CE
:03197600D29222E8
:10197900C2967F047E00121A13D297121A22C293BA
:03198900D29222D5
:10199E00C296C295C297C2947F047E00121A31D2AB
:0219AE00922283
:1019B0007F047E00121A04C295D297C294C293C2C9
:0219C000922271
:091A4B00C296C295C294C2932216
:1019F400438901758CFF758A38D2A9D2AFD28C2263
:03000B000218D602
:1018D600C0E0C0D0758CFF758A380515E515700215
:1018E6000514D39464E51494004006751400751528
:0618F60000D0D0D0E0326A
:1017CB00E4FFFE7DC07C40AB0BAA0AA909A8081256
:1017DB0002B44016E4FFFE7D7A7C44AB0BAA0AA947
:1017EB0009A8081202B4601540131219B07F3C12FD
:0E17FB0019511219797F19121951121A4B2225
:10180900E4FFFE7DC07C40AB0FAA0EA90DA80C1207
:1018190002B44016E4FFFE7D7A7C44AB0FAA0EA900
:101829000DA80C1202B46015401312199E7F3C12C8
:0E18390019511219797F19121951121A4B22E6
:10171100E4FFFE7DA07C40AB13AA12A911A8101210
:1017210002B4600D400B1219797F3C121951121A43
:101731004BE4FFFE7D7A7C44AB13AA12A911A810D9
:101741001202B460054003121966E4FFFE7DC07CFD
:1017510040AB0BAA0AA909A8081202B4502DE4FF54
:10176100FE7DC07C40AB0FAA0EA90DA80C1202B4DD
:101771005019E4FFFE7DA07C40AB13AA12A911A869
:0C178100101202B45005121A4B80BF2257
:100016000203A0E86480F8E933E83360110460F075
:10002600ED33EC337009E8FCE9FDEAFEEBFF220450
:1000360060DED3EB9FEA9EE99DE8C2E78CF0C2F74B
:1000460095F0400CE8CCF8E9CDF9EACEFAEBCFFB17
:1000560012036B85D0F05804700320D5B3E8047002
:10006600075002B2D50203AA92D5EC0460F7E4CC9D
:10007600C0E0C398F8603B94186008400DD0E0FBE0
:10008600020382E4FBFAC9FC8028E830E406E4C9EE
:10009600FBE4CAFCE830E305E4C9CACBFCE8540734
:1000A6006010F8C3E913F9EA13FAEB13FBEC13FC3F
:1000B600D8F130F52FC3E49CFCEF9BFFEE9AFEEDE2
:1000C60099FDD0E0FBEF4E4D4C701222DB0302038C
:1000D600A7EC2CFCEF33FFEE33FEED33FDED30E7FE
:1000E600EB020382EF2BFFEE3AFEED39FDD0E0FB8B
:1000F60050130BBB00030203AAED13FDEE13FEEF34
:0801060013FFEC13FC0203825D
:10010E00EC4D6011E8497017ED33EC3304600DE4EB
:10011E00FCFFFEFD22E933E8330470F80203A0125F
:10012E00036B58046009E4CC248150062850090260
:10013E0003AA2840030203A7C0E0EB4A7044B9802B
:10014E0006D0E0FB020396EF4E701CBD8008EBFF5D
:10015E00EAFEE9FD80EBE98DF0A4FEE5F00201F781
:10016E00E9CDF9EAFEEBFFEF89F0A4FCE5F0CE89CC
:10017E00F0A42EFFE435F0CD89F0A42DFEE435F089
:10018E008067EF4E7005BD80D780C3EF8BF0A4ACB7
:10019E00F0EE8BF0A42CFCE435F0F8EF8AF0A42CF2
:1001AE00E5F038FCE433CB8DF0A42CFCE5F03BF805
:1001BE00EE8AF0A42CFCE5F038F8E433CF89F0A4F5
:1001CE002CFCE5F038CF3400CE89F0A42FFFE5F0FB
:1001DE003EFEE433C98DF0A42EFEE5F039CD8AF053
:1001EE00A42FFFE5F03EFEE43DFD33D0E0FB5007CB
:1001FE000BBB000F0203AAEC2CFCEF33FFEE33FE19
:06020E00ED33FD02038246
:100214000203AAEC5D046005E8590470030203A01C
:1002240012036B580460F6EC4860F2EC7004FDFEB7
:10023400FF22C860DB2481C85009C39860025006BD
:100244000203A79850CAF582E9294B4A7005AB828C
:1002540002039675F0007C1A7880C3EF9BEE9AED4A
:1002640099400DC3EF9BFFEE9AFEED99FDE842F035
:10027400DC23ACF0D0E0FFD0E0FED0E0FDAB822088
:10028400E7101BEB60BAEC2CFCEF33FFEE33FEED12
:1002940033FD020382E803F830E705C0F075F0008F
:1002A400EF2FFFEE33FEED33FD40B830E7C280AAF6
:1002B40074F8CC6480CCC86480C8F58204604FC3F1
:1002C400EB9FF5F0EA9E42F0E99D42F0E89C45F090
:1002D400603C501DE5825FFFE582D313CB5BCBF41A
:1002E4002B5582FB50280ABA002409B90020088043
:1002F4001DE5825BFBE582D313CF5FCFF4C3132FDD
:100304005582FF50090EBE00050DBD00010CC3EB64
:100314009FF5F0EA9E42F0E99D42F0E89C45F060CA
:0903240007CC4820E701B3EC22EC
:10032D0075F020800E75F010800575F0087D007E4B
:10033D00007F003392D530D5031205C1EC33401048
:10034D00EF33FFEE33FEED33FDEC33FCD5F0ED2254
:0E035D00E5F0247EA2D513CC92E7CDCEFF2290
:10062A00E562244EF8E6056222784B300702784EDE
:10063A00E475F0011205F40205572000EB7F2ED273
:10064A00008018EF540F2490D43440D4FF30040BA8
:10065A00EF24BFB41A0050032461FFE5636002155A
:10066A00630566E5667002056530070D784BE4752B
:10067A00F0011205F4EF02059D0218AF7403D207C8
:10068A008003E4C207F5628B4B8A4C894DE4F5631B
:10069A00F565F566E56360077F2012066580F575E6
:1006AA0064FFC201C200C202C203C205C206C20876
:1006BA00120633FF700D3007057F00120676AF660B
:1006CA00AE6522B4255FC2D5C204120633FF24D018
:1006DA00B40A00501A75F00A786330D50508B6FFD7
:1006EA000106C6A426F620D5047002D20380D924B6
:1006FA00CFB41A00EF5004C2E5D204020963D20152
:10070A0080C6D20080C0D20280BCD2D580BAD205BF
:10071A0080B47F201206652002077401B563004089
:10072A00F112062AFF12066502069ED208D2068038
:10073A009512062AFB12062AFA12062AF94A4B7061
:10074A0006795A7A0A7BFF20022EE563602A7E0028
:10075A008E8275830012057060060EEE656470F075
:10076A00C2D5EBC0E0EAC0E0E9C0E0EE1209C3D0AE
:10077A00E0F9D0E0FAD0E0FB120557FF60AAEBC01F
:10078A00E0EAC0E0E9C0E0120665D0E02401F9D051
:10079A00E03400FAD0E0FBE5640460DCD564D9807B
:1007AA0087D20280A21209A660F7E56470010412DA
:1007BA0003B5A964600DE564600914F564120A4D75
:1007CA00EF60F3EA30E702F404C3995077EAF425BC
:1007DA00640430E701E404F564800D1209A660C1DF
:1007EA00EA056425641203B5EA7861F630E701E4A4
:1007FA00256404D56404200501141209C3E4C0E089
:10080A00120A4D7861E6601320E70714F612064DC6
:10081A00802204F6D0E014C0E07F0012064DE564A1
:10082A0060071206441564800B300503120644D093
:10083A00E002069ED0E00480C51209A660A0E56425
:10084A00041203B57861EAF6E56420050260010442
:05085A0024041209C393
:10085F0074FF04C0E0120A4D12064DE56420050234
:10086F006003120644D0E0B564E87F45120657785E
:10087F0061E67F2B30E7047F2DF404C0E01206659C
:10088F00D0E075F00A84C0F012064ED0E012064E8A
:10089F0002069E791080027908C206C2088008D22B
:1008AF00D5790A8004790AC2D5E564047002F5642B
:1008BF00E4FAFDFEFF12062AFC7B08200113120644
:1008CF002AFD7B1030000A12062AFE12062AFF7B31
:1008DF0020EC3382D592D55013C3E43000069FFF2E
:1008EF00E49EFEE42001039DFDE49CFCE4CBF8C2F2
:1008FF0001EC700CCFCECDCCE824F8F870F3801754
:10090F00C3EF33FFEE33FEED33FDEC33FCEB33FB84
:10091F00994002FB0FD8E9EB300105F8D0E0C4484D
:10092F00B201C0E00AEC4D4E4F78207B0070C2EA56
:10093F00B5640040BCC0E01209C5D0F0D0E0200182
:10094F0004C4C0E0C4B201C0F012064ED0F0D5F01E
:10095F00EB02069E120604073B5308A258070C4CE5
:10096F0007084208A64F08AE4408AE4907214308BE
:10097F00B45507E54608434507AF470A7A500710B5
:10098F002D07142E07372B0718230735200A632A44
:10099F0006D0480000072FE564B4FF037564061204
:1009AF00062AFC12062AFD12062AFE12062AFF78D4
:1009BF005A0203E4790AA2D5200314300509B910AD
:1009CF00020404B9080104A2D52006025001042034
:1009DF0002689202B563005034C0E07F20300319E3
:1009EF007F30A20272067205500F120A1CC202C299
:1009FF0006C205C2087F30800F300503E9C0E01240
:100A0F000665300503D0E0F9D0E0B563CC300517AB
:100A1F007F30B9100C1206657F583004077F78803D
:100A2F0003B908031206653002057F2D0206657FA4
:100A3F00202008F87F2B2006F322920280CF7F0020
:100A4F00B407005005245AF8E6FF22286E756C6C27
:100A5F002900D20112062A3001F8C201786330D57D
:100A6F000108F60206D02D5043495812062A2403D6
:100A7F00B405004001E4900A7593120656743A12B9
:0A0A8F000656D2037563040208A2A4
:10036B00E9D2E7C933E833F892D5EDD2E7CD33ECD8
:07037B0033FC5002B2D52251
:10038200EC30E7100FBF000C0EBE00080DBD0004DC
:100392000BEB6014A2D5EB13FCED92E7FD2274FF88
:1003A200FCFDFEFF22E480F8A2D574FF13FC7D80E1
:0303B200E480EFF5
:1003B500F920E72824F950037907E4F42402FB180F
:1003C500DBFDE624FB5014E9600DE4F618E604F6BF
:0F03D500B40A08E4F6D9F57401F60A22C2D5225B
:1003E400ED33EC3392D5FA602AB4FF33EDC2E77BE8
:1003F400FF60067A047909E4227A04791220D5048C
:100404007A04790D224E614E002B494E46002D4947
:100414004E4600E47A08F608DAFC7B00740722E80A
:10042400C0E0ECC0E0EDC0E0EEC0E0EFC0E0EA7593
:10043400F010A4CAABF075F04DA42BFBE435F0FC2E
:10044400EA2410FAEB34C5FBEC34D9FCEDC2E7FF27
:1004540075F056A4F42411C5F0F434C58FF0A42A21
:10046400E5F03BE43CF620E714120517D0E0FFD09A
:10047400E0FED0E0FDD0E0FC1202178014F4041278
:100484000517D0E0FFD0E0FED0E0FDD0E0FC120183
:100494000ED0E0F8E6FAEDD2E7CD33EC332482FB5C
:1004A400E4C3CF33CFCE33CECD33CD33DBF37B07B1
:1004B40075F00A846004F6081B0AE5F0F6088FF06C
:1004C400740AA4FFACF08EF0740AA42CFEACF050B5
:1004D400010C8DF0740AA42CFDE435F0F608DBDE83
:0304E40074072278
:1004E7003F8000004120000042C80000447A00001D
:1004F700461C400047C35000497424004B1896809F
:100507004CBEBC205A0E1BCA6753C21C749DC5AE95
:10051700FB60065407601C2323120545EB54386023
:100527000912053112054012010EECF8EDF9EEFA49
:10053700EFCB22EB12054080F1543803241C9004C2
:10054700E7FE93FC0EEE93FD0EEE930ECE93FF2285
:1016910002191BE493A3F8E493A34003F68001F23B
:1016A10008DFF48029E493A3F85407240CC8C3335A
:1016B100C4540F4420C8834004F456800146F6DF29
:1016C100E4800B010204081020408090000EE47EAB
:1016D100019360BCA3FF543F30E509541FFEE4931E
:1016E100A360010ECF54C025E060A840B8E493A3E5
:1016F100FAE493A3F8E493A3C8C582C8CAC583CA10
:10170100F0A3C8C582C8CAC583CADFE9DEE780BEC7
:0100120000ED
:10055700BB010689828A83E0225002E722BBFE02A2
:09056700E32289828A83E49322D5
:10057000BB010CE58229F582E5833AF583E0225040
:1005800006E92582F8E622BBFE06E92582F8E2228A
:0D059000E58229F582E5833AF583E49322A4
:10059D00BB010689828A83F0225002F722BBFE013D
:0205AD00F32237
:1005AF00EF8DF0A4A8F0CF8CF0A428CE8DF0A42E60
:0205BF00FE221A
:0E05C100C3E49FFFE49EFEE49DFDE49CFC224B
:0C05CF00E6FC08E6FD08E6FE08E6FF2258
:0D05DB00E6FB08E6F908E6FA08E6CBF82290
:0C05E800ECF608EDF608EEF608EFF6223F
:1005F400FAE6FB0808E6F925F0F618E6CA3AF62208
:10060400D083D082F8E4937012740193700DA3A385
:1006140093F8740193F5828883E473740293686099
:06062400EFA3A3A380DF99
:1018AF00EFB40A07740D1218BA740A309811A89978
:1018BF00B8130CC2983098FDA899C298B811F63099
:0718CF0099FDC299F5992271
:00000001FF
