:030000000217875D
:0C178700787FE4F6D8FD758164021779C4
:0E17790012168312179312124F12001680F8E8
:101585007590FFC2932097083097FD7E007F01225A
:101595002096083096FD7E007F0422209508309520
:1015A500FD7E007F07222094083094FD7E007F0B8E
:1015B500227590FFC2922097083097FD7E007F022A
:1015C500222096083096FD7E007F05222095083062
:1015D50095FD7E007F08222094073094FDE4FEFFF0
:1015E500227590FFC2912097083097FD7E007F03FA
:1015F500222096083096FD7E007F06222095083031
:1016050095FD7E007F09222094083094FD7E007FA1
:101615000C227590FFC2902097083097FD7E007FC1
:101625000D222096083096FD7E007F0E222095081B
:101635003095FD7E007F0F227590FF7E007F0A2288
:10164500204C5F5F5F20425F5F5F20525F5F5F20DE
:1016550000202020696E70757420646973742020E1
:101665002000202020202020202020202020202095
:0E16750020200030313233343536373839001A
:10124F00E4F526F527C3E5279403E526648094800B
:10125F004003021582E5274526700C7BFF7A16792D
:10126F00457D01FF1216BE7BFF7A167956E4FDFF0E
:10127F001216BE1215857522008F23E523640D45C6
:10128F002270C20527E527700205266401452660F6
:10129F000302138AF524752502C3E5259405E52479
:1012AF0064809480400302138A1215857522008F83
:1012BF0023E52564024524702CD3E5239400E52211
:1012CF0064809480401FE523940AE5226480948013
:1012DF005013AE227C007D64120D65EF250DF50DC8
:1012EF00EE350CF50CE52564034524702ED3E5236C
:1012FF009400E522648094804021E523940AE5223E
:10130F00648094805015AE22AF237C007D0A120DAD
:10131F0065EF250DF50DEE350CF50CE5256404454F
:10132F00247025D3E5239400E5226480948040182F
:10133F00E523940AE52264809480500CE523250D63
:10134F00F50DE522350CF50CC3E523940AE522646F
:10135F00809480501EAF2574782523F5827416353E
:10136F0022F583E493FB7D0112172A0525E52570ED
:10137F000205247F321217420212A8E527640245A4
:10138F0026600302147CF524752507C3E525940A0E
:10139F00E52464809480400302147C121585752225
:1013AF00008F23E52564074524702CD3E523940093
:1013BF00E52264809480401FE523940AE52264802F
:1013CF0094805013AE227C007D64120D65EF2509C9
:1013DF00F509EE3508F508E52564084524702ED388
:1013EF00E5239400E522648094804021E523940A4C
:1013FF00E522648094805015AE22AF237C007D0AD5
:10140F00120D65EF2509F509EE3508F508E5256498
:10141F000945247025D3E5239400E5226480948048
:10142F004018E523940AE52264809480500CE5234C
:10143F002509F509E5223508F508C3E523940AE5E2
:10144F002264809480501EAF2574782523F5827412
:10145F00163522F583E493FB7D0112172A0525E546
:10146F0025700205247F3212174202139AE5276472
:10147F000345266003021254F526752704F52475DB
:10148F00250CC3E525940FE5246480948040030266
:10149F0015731215857522008F23E525640C4524DD
:1014AF00702CD3E5239400E52264809480401FE5DF
:1014BF0023940AE522648094805013AE227C007D31
:1014CF0064120D65EF250BF50BEE350AF50AE525D0
:1014DF00640D4524702ED3E5239400E52264809497
:1014EF00804021E523940AE522648094805015AE54
:1014FF0022AF237C007D0A120D65EF250BF50BEE55
:10150F00350AF50AE525640E45247025D3E52394A5
:10151F0000E522648094804018E523940AE5226454
:10152F00809480500CE523250BF50BE522350AF549
:10153F000AC3E523940AE52264809480501EAF25E8
:10154F0074782523F58274163522F583E493FB7D99
:10155F000112172A0525E525700205247F3212177F
:10156F00420214917BFF7A167967E4FDFF1216BED3
:05157F00021254AF0B45
:011584002244
:10171200523D25362E3266004C3D25362E3266006D
:08172200423D25362E3266001F
:0300130002179E33
:07179E00C2A1C2B5C2B732BF
:0B179300438910E4F58DF58BD2AB22EA
:10001600D2B67F0A1217A5C2B630B7FDD28E20B768
:10002600FDC28EAF8DEFFEAD8B7C00E42DFDEC3E68
:10003600FCE41209E28F258E248D238C22E4FBFA40
:10004600796878421208C78F258E248D238C228FDB
:10005600298E288D278C26E4F58DF58BD2B67F0A5E
:100066001217A5C2B630B7FDD28E20B7FDC28EAF2D
:100076008DEFFEAD8B7C00E42DFDEC3EFCE4120919
:10008600E28F258E248D238C22E4FBFA7968784250
:100096001208C78F258E248D238C228F2D8E2C8DB2
:1000A6002B8C2AE4F58DF58BD2B67F0A1217A5C2E2
:1000B600B630B7FDD28E20B7FDC28EAF8DEFFEAD46
:1000C6008B7C00E42DFDEC3EFCE41209E28F258ECC
:1000D600248D238C22E4FBFA796878421208C78FB4
:1000E600258E248D238C228F318E308D2F8C2EE4FD
:1000F600F58DF58BD2B67F0A1217A5C2B630B7FDBD
:10010600D28E20B7FDC28EAF8DEFFEAD8B7C00E4A4
:100116002DFDEC3EFCE41209E28F258E248D238C06
:1001260022E4FBFA796878421208C78F258E248D5F
:10013600238C228F358E348D338C32E4F58DF58BFE
:10014600D2B67F0A1217A5C2B630B7FDD28E20B737
:10015600FDC28EAF8DEFFEAD8B7C00E42DFDEC3E37
:10016600FCE41209E28F258E248D238C22E4FBFA0F
:10017600796878421208C78F258E248D238C228FAA
:10018600398E388D378C36E4F58DF58BF53EF53F97
:10019600E4F540F541C37404953FFFE4953EFEC384
:1001A600E5419FEE6480F8E540648098506AAF416F
:1001B600EF25E025E0242AF8120D91C000EF25E096
:1001C60025E02426F8120D85D000120964503EABB6
:1001D60041EB25E025E02426F8120D858F3D8E3C67
:1001E6008D3B8C3AEB25E025E0242AF8120D85EBB1
:1001F60025E025E02426F8120D9EAF3DAE3CAD3B32
:10020600AC3AEB25E025E0242AF8120D9E0541E5DF
:10021600417002054002019B053FE53F7002053E25
:100226006404453E6003020196AF31AE30AD2FAC9B
:100236002EAB2DAA2CA92BA82A1207D3AB35AA348C
:10024600A933A8321207D3E4FBFA794078401208A2
:10025600C78F258E248D238C22AC0AAD0BEC120998
:10026600E2AB25AA24A923A8221209645007C2A238
:100276007FFA121742D2A2754CFF754D17754E12B2
:1002860085255285245185235085224F7B007A008F
:100296007942120E3C7B007A0079427D01E4FF121E
:1002A60016BED2A07F0A1217A5C2A030A1FDD28E1B
:1002B60020A1FDC28EAF8DEFFEAD8B7C00E42DFD3F
:1002C600EC3EFCE41209E28F258E248D238C22E479
:1002D600FBFA796878421208C78F258E248D238C05
:1002E600228F298E288D278C26E4F58DF58BD2A0BA
:1002F6007F0A1217A5C2A030A1FDD28E20A1FDC291
:100306008EAF8DEFFEAD8B7C00E42DFDEC3EFCE464
:100316001209E28F258E248D238C22E4FBFA79685C
:1003260078421208C78F258E248D238C228F2D8E1E
:100336002C8D2B8C2AE4F58DF58BD2A07F0A121713
:10034600A5C2A030A1FDD28E20A1FDC28EAF8DEF39
:10035600FEAD8B7C00E42DFDEC3EFCE41209E28F41
:10036600258E248D238C22E4FBFA796878421208C4
:10037600C78F258E248D238C228F318E308D2F8C26
:100386002EE4F58DF58BD2A07F0A1217A5C2A030F8
:10039600A1FDD28E20A1FDC28EAF8DEFFEAD8B7C6E
:1003A60000E42DFDEC3EFCE41209E28F258E248D3F
:1003B600238C22E4FBFA796878421208C78F258ECF
:1003C600248D238C228F358E348D338C32E4F58D3B
:1003D600F58BD2A07F0A1217A5C2A030A1FDD28E3E
:1003E60020A1FDC28EAF8DEFFEAD8B7C00E42DFD0E
:1003F600EC3EFCE41209E28F258E248D238C22E448
:10040600FBFA796878421208C78F258E248D238CD3
:10041600228F398E388D378C36E4F58DF58BF53E87
:10042600F53FE4F540F541C37404953FFFE4953E7E
:10043600FEC3E5419FEE6480F8E540648098506A0B
:10044600AF41EF25E025E0242AF8120D91C000EF18
:1004560025E025E02426F8120D85D0001209645007
:100466003EAB41EB25E025E02426F8120D858F3DB5
:100476008E3C8D3B8C3AEB25E025E0242AF8120DC4
:1004860085EB25E025E02426F8120D9EAF3DAE3C17
:10049600AD3BAC3AEB25E025E0242AF8120D9E058B
:1004A60041E5417002054002042D053FE53F70021B
:1004B600053E6404453E6003020428AF31AE30AD0C
:1004C6002FAC2EAB2DAA2CA92BA82A1207D3AB35FD
:1004D600AA34A933A8321207D3E4FBFA794078404C
:1004E6001208C78F258E248D238C22AC0CAD0DEC03
:1004F6001209E2AB25AA24A923A8221209645007EF
:10050600C2A27FFA121742D2A2754CFF754D17751B
:100516004E1A85255285245185235085224F7B000E
:100526007A007942120E3C7B007A0079427D017F87
:10053600081216BED2B47F0A1217A5C2B430B5FD92
:10054600D28E20B5FDC28EAF8DEFFEAD8B7C00E462
:100556002DFDEC3EFCE41209E28F258E248D238CC2
:1005660022E4FBFA796878421208C78F258E248D1B
:10057600238C228F298E288D278C26E4F58DF58BEA
:10058600D2B47F0A1217A5C2B430B5FDD28E20B5FB
:10059600FDC28EAF8DEFFEAD8B7C00E42DFDEC3EF3
:1005A600FCE41209E28F258E248D238C22E4FBFACB
:1005B600796878421208C78F258E248D238C228F66
:1005C6002D8E2C8D2B8C2AE4F58DF58BD2B47F0ADB
:1005D6001217A5C2B430B5FDD28E20B5FDC28EAFBE
:1005E6008DEFFEAD8B7C00E42DFDEC3EFCE41209A4
:1005F600E28F258E248D238C22E4FBFA79687842DB
:100606001208C78F258E248D238C228F318E308D34
:100616002F8C2EE4F58DF58BD2B47F0A1217A5C266
:10062600B430B5FDD28E20B5FDC28EAF8DEFFEADD6
:100636008B7C00E42DFDEC3EFCE41209E28F258E56
:10064600248D238C22E4FBFA796878421208C78F3E
:10065600258E248D238C228F358E348D338C32E477
:10066600F58DF58BD2B47F0A1217A5C2B430B5FD4D
:10067600D28E20B5FDC28EAF8DEFFEAD8B7C00E431
:100686002DFDEC3EFCE41209E28F258E248D238C91
:1006960022E4FBFA796878421208C78F258E248DEA
:1006A600238C228F398E388D378C36E4F58DF58B79
:1006B600F53EF53FE4F540F541C37404953FFFE48C
:1006C600953EFEC3E5419FEE6480F8E54064809860
:1006D600506AAF41EF25E025E0242AF8120D91C0BB
:1006E60000EF25E025E02426F8120D85D00012093A
:1006F60064503EAB41EB25E025E02426F8120D853B
:100706008F3D8E3C8D3B8C3AEB25E025E0242AF884
:10071600120D85EB25E025E02426F8120D9EAF3D4F
:10072600AE3CAD3BAC3AEB25E025E0242AF8120DB1
:100736009E0541E541700205400206BF053FE53FC3
:100746007002053E6404453E60030206BAAF31AE50
:1007560030AD2FAC2EAB2DAA2CA92BA82A1207D36D
:10076600AB35AA34A933A8321207D3E4FBFA794091
:1007760078401208C78F258E248D238C22AC08ADB5
:1007860009EC1209E2AB25AA24A923A822120964BE
:100796005007C2A27FFA121742D2A2754CFF754DBE
:1007A60017754E2285255285245185235085224F63
:1007B6007B007A007942120E3C7B007A007942E493
:0607C600FD7F040216BED7
:100003007580FFC2A4D2A5C2A600D2A6E580332282
:1017570012000340FBC2A4C2A5D2A68F8000C2A676
:01176700225F
:1017680012000340FBD2A4C2A5D2A68F8000C2A655
:01177800224E
:1016BE008F498D4A8B4B8A4C894DAB4BAA4CA94D09
:1016CE00120D0DFB6016AD4AAF4912172A74012593
:0D16DE004DF54DE4354CF54C054980DE22FC
:10172A00AE07AC03ED7005EE24808003EE24C0FF03
:08173A00121757AF04021768F3
:101683007F381217577F051217427F381217577F7B
:10169300051217427F381217577F051217427F38FA
:1016A3001217577F081217577F011217577F061219
:0B16B30017571F1217427F0C02175739
:0317A500DFFE2242
:10174200AE07AF061EEF600C7FF51217A57FF512EC
:0517520017A580EE2246
:1007CC00020A50E86480F8E933E83360110460F001
:1007DC00ED33EC337009E8FCE9FDEAFEEBFF220493
:1007EC0060DED3EB9FEA9EE99DE8C2E78CF0C2F78E
:1007FC0095F0400CE8CCF8E9CDF9EACEFAEBCFFB5A
:10080C00120A1B85D0F05804700320D5B3E804708D
:10081C00075002B2D5020A5A92D5EC0460F7E4CC28
:10082C00C0E0C398F8603B94186008400DD0E0FB22
:10083C00020A32E4FBFAC9FC8028E830E406E4C979
:10084C00FBE4CAFCE830E305E4C9CACBFCE8540776
:10085C006010F8C3E913F9EA13FAEB13FBEC13FC81
:10086C00D8F130F52FC3E49CFCEF9BFFEE9AFEED24
:10087C0099FDD0E0FBEF4E4D4C701222DB03020AC7
:10088C0057EC2CFCEF33FFEE33FEED33FDED30E790
:10089C00EB020A32EF2BFFEE3AFEED39FDD0E0FB16
:1008AC0050130BBB0003020A5AED13FDEE13FEEFBF
:0808BC0013FFEC13FC020A32E9
:1008C400020A5AEC5D046005E859047003020A50F8
:1008D400120A1B580460F6EC4860F2EC7004FDFE4A
:1008E400FF22C860DB2481C85009C3986002500607
:1008F400020A579850CAF582E9294B4A7005AB821F
:10090400020A4675F0007C1A7880C3EF9BEE9AEDDC
:1009140099400DC3EF9BFFEE9AFEED99FDE842F07E
:10092400DC23ACF0D0E0FFD0E0FED0E0FDAB8220D1
:10093400E7101BEB60BAEC2CFCEF33FFEE33FEED5B
:1009440033FD020A32E803F830E705C0F075F00021
:10095400EF2FFFEE33FEED33FD40B830E7C280AA3F
:1009640074F8CC6480CCC86480C8F58204604FC33A
:10097400EB9FF5F0EA9E42F0E99D42F0E89C45F0D9
:10098400603C501DE5825FFFE582D313CB5BCBF463
:100994002B5582FB50280ABA002409B9002008808C
:1009A4001DE5825BFBE582D313CF5FCFF4C3132F26
:1009B4005582FF50090EBE00050DBD00010CC3EBAE
:1009C4009FF5F0EA9E42F0E99D42F0E89C45F06014
:0909D40007CC4820E701B3EC2236
:1009DD0075F020800E75F010800575F0087D007E95
:1009ED00007F003392D530D503120D77EC334010D4
:1009FD00EF33FFEE33FEED33FDEC33FCD5F0ED229E
:0E0A0D00E5F0247EA2D513CC92E7CDCEFF22D9
:100DE000E560244CF8E60560227849300702784C2B
:100DF000E475F001120DAA020D0D2000EB7F2ED23A
:100E0000008018EF540F2490D43440D4FF30040BEA
:100E1000EF24BFB41A0050032461FFE5616002159E
:100E2000610564E5647002056330070D7849E47577
:100E3000F001120DAAEF020D530216EB7403D20754
:100E40008003E4C207F5608B498A4A894BE4F56167
:100E5000F563F564E56160077F20120E1B80F57570
:100E600062FFC201C200C202C203C205C206C208BA
:100E7000120DE9FF700D3007057F00120E2CAF64D4
:100E8000AE6322B4255FC2D5C204120DE9FF24D09F
:100E9000B40A00501A75F00A786130D50508B6FF1B
:100EA0000106C6A426F620D5047002D20380D924F8
:100EB000CFB41A00EF5004C2E5D204021119D201D6
:100EC00080C6D20080C0D20280BCD2D580BAD20502
:100ED00080B47F20120E1B2002077401B561004010
:100EE000F1120DE0FF120E1B020E54D208D2068042
:100EF00095120DE0FB120DE0FA120DE0F94A4B706D
:100F00000679107A127BFF20022EE561602A7E00AE
:100F10008E82758300120D2660060EEE656270F0FB
:100F2000C2D5EBC0E0EAC0E0E9C0E0EE121179D032
:100F3000E0F9D0E0FAD0E0FB120D0DFF60AAEBC0A3
:100F4000E0EAC0E0E9C0E0120E1BD0E02401F9D0D5
:100F5000E03400FAD0E0FBE5620460DCD562D980C1
:100F600087D20280A212115C60F7E5627001041260
:100F70000A65A962600DE562600914F56212120348
:100F8000EF60F3EA30E702F404C3995077EAF425FE
:100F9000620430E701E404F562800D12115C60C167
:100FA000EA05622562120A65EA785FF630E701E435
:100FB000256204D5620420050114121179E4C0E011
:100FC000121203785FE6601320E70714F6120E038F
:100FD000802204F6D0E014C0E07F00120E03E56228
:100FE0006007120DFA1562800B300503120DFAD05E
:100FF000E0020E54D0E00480C512115C60A0E562EE
:1010000004120A65785FEAF6E562200502600104D1
:05101000240412117917
:1010150074FF04C0E0121203120E03E562200502FC
:101025006003120DFAD0E0B562E87F45120E0D7827
:101035005FE67F2B30E7047F2DF404C0E0120E1B22
:10104500D0E075F00A84C0F0120E04D0E0120E0450
:10105500020E54791080027908C206C2088008D2AF
:10106500D5790A8004790AC2D5E562047002F56271
:10107500E4FAFDFEFF120DE0FC7B08200113120DC2
:10108500E0FD7B1030000A120DE0FE120DE0FF7B43
:1010950020EC3382D592D55013C3E43000069FFF70
:1010A500E49EFEE42001039DFDE49CFCE4CBF8C234
:1010B50001EC700CCFCECDCCE824F8F870F3801796
:1010C500C3EF33FFEE33FEED33FDEC33FCEB33FBC7
:1010D500994002FB0FD8E9EB300105F8D0E0C44890
:1010E500B201C0E00AEC4D4E4F78207B0070C2EA99
:1010F500B5620040BCC0E012117BD0F0D0E0200109
:1011050004C4C0E0C4B201C0F0120E04D0F0D5F0A2
:10111500EB020E54120DBA0EF1531058580EC24C74
:101125000EBE42105C4F1064441064490ED7431044
:101135006A550F9B460FF9450F65471230500EC68D
:101145002D0ECA2E0EED2B0ECE230EEB2012192AD4
:101155000E864800000EE5E562B4FF0375620612CF
:101165000DE0FC120DE0FD120DE0FE120DE0FF7822
:1011750058020A94790AA2D5200314300509B9103A
:10118500020404B9080104A2D52006025001042076
:1011950002689202B561005034C0E07F2030031927
:1011A5007F30A20272067205500F1211D2C202C21E
:1011B50006C205C2087F30800F300503E9C0E01282
:1011C5000E1B300503D0E0F9D0E0B561CC30051732
:1011D5007F30B9100C120E1B7F583004077F7880C2
:1011E50003B90803120E1B3002057F2D020E1B7F6B
:1011F500202008F87F2B2006F322920280CF7F0063
:10120500B4070050052458F8E6FF22286E756C6C6B
:101215002900D201120DE03001F8C201786130D504
:101225000108F6020E862D50434958120DE024039D
:10123500B405004001E490122B93120E0C743A127F
:0A1245000E0CD2037561040210586C
:100A1B00E9D2E7C933E833F892D5EDD2E7CD33EC21
:070A2B0033FC5002B2D5229A
:100A3200EC30E7100FBF000C0EBE00080DBD000425
:100A42000BEB6014A2D5EB13FCED92E7FD2274FFD1
:100A5200FCFDFEFF22E480F8A2D574FF13FC7D802A
:030A6200E480EF3E
:100A6500F920E72824F950037907E4F42402FB1858
:100A7500DBFDE624FB5014E9600DE4F618E604F608
:0F0A8500B40A08E4F6D9F57401F60A22C2D522A4
:100A9400ED33EC3392D5FA602AB4FF33EDC2E77B31
:100AA400FF60067A0A79B9E4227A0A79C220D50469
:100AB4007A0A79BD224E614E002B494E46002D49DB
:100AC4004E4600E47A08F608DAFC7B00740722E854
:100AD400C0E0ECC0E0EDC0E0EEC0E0EFC0E0EA75DD
:100AE400F010A4CAABF075F04DA42BFBE435F0FC78
:100AF400EA2410FAEB34C5FBEC34D9FCEDC2E7FF71
:100B040075F056A4F42411C5F0F434C58FF0A42A6A
:100B1400E5F03BE43CF620E714120CCDD0E0FFD026
:100B2400E0FED0E0FDD0E0FC1208C78014F404120B
:100B34000CCDD0E0FFD0E0FED0E0FDD0E0FC120B05
:100B440097D0E0F8E6FAEDD2E7CD33EC332482FB1C
:100B5400E4C3CF33CFCE33CECD33CD33DBF37B07FA
:100B640075F00A846004F6081B0AE5F0F6088FF0B5
:100B7400740AA4FFACF08EF0740AA42CFEACF050FE
:100B8400010C8DF0740AA42CFDE435F0F608DBDECC
:030B9400740722C1
:100B9700EC4D6011E8497017ED33EC3304600DE458
:100BA700FCFFFEFD22E933E8330470F8020A501215
:100BB7000A1B58046009E4CC248150062850090216
:100BC7000A5A284003020A57C0E0EB4A7044B9802A
:100BD70006D0E0FB020A46EF4E701CBD8008EBFF13
:100BE700EAFEE9FD80EBE98DF0A4FEE5F0020C805A
:100BF700E9CDF9EAFEEBFFEF89F0A4FCE5F0CE8939
:100C0700F0A42EFFE435F0CD89F0A42DFEE435F0F5
:100C17008067EF4E7005BD80D780C3EF8BF0A4AC23
:100C2700F0EE8BF0A42CFCE435F0F8EF8AF0A42C5E
:100C3700E5F038FCE433CB8DF0A42CFCE5F03BF871
:100C4700EE8AF0A42CFCE5F038F8E433CF89F0A461
:100C57002CFCE5F038CF3400CE89F0A42FFFE5F067
:100C67003EFEE433C98DF0A42EFEE5F039CD8AF0BF
:100C7700A42FFFE5F03EFEE43DFD33D0E0FB500737
:100C87000BBB000F020A5AEC2CFCEF33FFEE33FECE
:060C9700ED33FD020A32FC
:100C9D003F8000004120000042C80000447A00005F
:100CAD00461C400047C35000497424004B189680E1
:100CBD004CBEBC205A0E1BCA6753C21C749DC5AED8
:100CCD00FB60065407601C2323120CFBEB543860A9
:100CDD0009120CE7120CF6120B97ECF8EDF9EEFA7F
:100CED00EFCB22EB120CF680F1543803241C900C40
:100CFD009DFE93FC0EEE93FD0EEE930ECE93FF2212
:100D0D00BB010689828A83E0225002E722BBFE02E4
:090D1D00E32289828A83E4932217
:100D2600BB010CE58229F582E5833AF583E0225082
:100D360006E92582F8E622BBFE06E92582F8E222CC
:0D0D4600E58229F582E5833AF583E49322E6
:100D5300BB010689828A83F0225002F722BBFE017F
:020D6300F32279
:100D6500EF8DF0A4A8F0CF8CF0A428CE8DF0A42EA2
:020D7500FE225C
:0E0D7700C3E49FFFE49EFEE49DFDE49CFC228D
:0C0D8500E6FC08E6FD08E6FE08E6FF229A
:0D0D9100E6FB08E6F908E6FA08E6CBF822D2
:0C0D9E00ECF608EDF608EEF608EFF62281
:100DAA00FAE6FB0808E6F925F0F618E6CA3AF6224A
:100DBA00D083D082F8E4937012740193700DA3A3C8
:100DCA0093F8740193F5828883E4737402936860DC
:060DDA00EFA3A3A380DFDC
:1016EB00EFB40A07740D1216F6740A309811A89904
:1016FB00B8130CC2983098FDA899C298B811F6305F
:07170B0099FDC299F5992236
:00000001FF
