:0300000002165B8A
:0C165B00787FE4F6D8FD7581600216A2CD
:10197A001219CE12181D121A1A120A991219448033
:01198A00F864
:10159B007590FFC2932097083097FD7E007F012244
:1015AB002096083096FD7E007F042220950830950A
:1015BB00FD7E007F07222094083094FD7E007F0B78
:1015CB00227590FFC2922097083097FD7E007F0214
:1015DB00222096083096FD7E007F0522209508304C
:1015EB0095FD7E007F08222094073094FDE4FEFFDA
:1015FB00227590FFC2912097083097FD7E007F03E4
:10160B00222096083096FD7E007F0622209508301A
:10161B0095FD7E007F09222094083094FD7E007F8B
:10162B000C227590FFC2902097083097FD7E007FAB
:10163B000D222096083096FD7E007F0E2220950805
:10164B003095FD7E007F0F227590FF7E007F0A2272
:10176300204C5F5F5F20425F5F5F20525F5F5F20BF
:1017730000202020696E70757420646973742020C2
:101783002000202020202020202020202020202076
:0E1793002020003031323334353637383900FB
:10198B00021A00000216000002180000021E0000DE
:100A9900C3E51F9403E51E648094804003020D6042
:100AA900E51F451E700C7BFF7A1779637D01FF12E4
:100AB90018587BFF7A177974E4FDFF12185812153C
:100AC9009B751C008F1DE51D640D451C70C2E51F3B
:100AD9006404451E7004F51EF51F051FE51F70020D
:100AE900051EE51E70AAE51F24FE7003020BC31440
:100AF9007003020C8724027097754100754202C386
:100B0900E5429405E54164809480508412159B75F3
:100B19001C008F1DE5417071E54224FD60261460BB
:100B29004B24027064D3E51D9400E51C94004059E0
:100B3900E51D940AE51C9400504FAE1CAF1D7C00C6
:100B49007D64801DD3E51D9400E51C9400403AE5C1
:100B59001D940AE51C94005030AE1CAF1D7C007D2D
:100B69000A1205AFEF251BF51BEE8019C3E51C948E
:100B7900004016E51D940AE51C9400500CE51D255E
:100B89001BF51BE51C351AF51AC3E51D940AE51C6E
:100B99009400501EAF427496251DF5827417351CBA
:100BA900F583E493FB7D011218F10542E5427002D9
:100BB90005417F32121909020B0875410075420778
:100BC900C3E542940AE541648094804003020A998E
:100BD90012159B751C008F1DE5417071E54224F8C3
:100BE900602614604B24027064D3E51D9400E51C53
:100BF90094004059E51D940AE51C9400504FAE1C21
:100C0900AF1D7C007D64801DD3E51D9400E51C9417
:100C190000403AE51D940AE51C94005030AE1CAF23
:100C29001D7C007D0A1205AFEF2517F517EE801917
:100C3900C3E51C94004016E51D940AE51C94005078
:100C49000CE51D2517F517E51C3516F516C3E51D29
:100C5900940AE51C9400501EAF427496251DF58236
:100C69007417351CF583E493FB7D011218F10542D5
:100C7900E542700205417F32121909020BC9751E3E
:100C890000751F0475410075420CC3E542940FE5D8
:100C990041648094804003020D5112159B751C001C
:100CA9008F1DE5417071E54224F3602614604B24E1
:100CB900027064D3E51D9400E51C94004059E51DBC
:100CC900940AE51C9400504FAE1CAF1D7C007D6456
:100CD900801DD3E51D9400E51C9400403AE51D9460
:100CE9000AE51C94005030AE1CAF1D7C007D0A1231
:100CF90005AFEF2519F519EE8019C3E51C940040DD
:100D090016E51D940AE51C9400500CE51D2519F5FE
:100D190019E51C3518F518C3E51D940AE51C94005E
:100D2900501EAF427496251DF5827417351CF58344
:100D3900E493FB7D011218F10542E5427002054179
:100D49007F32121909020C937BFF7A177985E4FD2A
:080D5900FF121858020A99224A
:1019BE007580FFC2A4D2A5C2A600D2A6E5803322AE
:10199C001219BE40FBC2A4C2A5D2A68F8000C2A65B
:0119AC002218
:1019AD001219BE40FBD2A4C2A5D2A68F8000C2A63A
:0119BD002207
:101858008F458D468B478A488949AB47AA48A9498D
:10186800120557FB6016AD46AF451218F1740125F5
:0D18780049F549E43548F548054580DE2274
:1018F100AE07AC03ED7005EE24808003EE24C0FF3B
:0819010012199CAF040219AD9C
:10181D007F3812199C7F051219097F3812199C7F88
:10182D00051219097F3812199C7F051219097F3885
:10183D0012199C7F0812199C7F0112199C7F0612A8
:0B184D00199C1F1219097F0C02199C46
:1018D200523D25362E326600656572726F72004C7B
:0F18E2003D25362E326600423D25362E326600F9
:03001300020003E5
:07000300C2A1C2B5C2B73271
:0B1A1A00438910E4F58DF58BD2AB2260
:100D6100D2B67F0A12000EC2B630B7FDD28E20B7BE
:100D7100FDC28EAF8DEFFEAD8B7C00E42DFDEC3E10
:100D8100FCE41203328F0B8E0A8D098C08E4FBFA06
:100D9100796878421202178F0B8E0A8D098C088FA1
:100DA100308E2F8D2E8C2DE4F58DF58BD2B67F0AEA
:100DB10012000EC2B630B7FDD28E20B7FDC28EAF83
:100DC1008DEFFEAD8B7C00E42DFDEC3EFCE41203C7
:100DD100328F0B8E0A8D098C08E4FBFA7968784210
:100DE1001202178F0B8E0A8D098C088F348E338D6A
:100DF100328C31E4F58DF58BD2B67F0A12000EC22A
:100E0100B630B7FDD28E20B7FDC28EAF8DEFFEADED
:100E11008B7C00E42DFDEC3EFCE41203328F0B8E43
:100E21000A8D098C08E4FBFA796878421202178F5F
:100E31000B8E0A8D098C088F388E378D368C35E4F0
:100E4100F58DF58BD2B67F0A12000EC2B630B7FD12
:100E5100D28E20B7FDC28EAF8DEFFEAD8B7C00E44C
:100E61002DFDEC3EFCE41203328F0B8E0A8D098CB2
:100E710008E4FBFA796878421202178F0B8E0A8D0B
:100E8100098C088F3C8E3B8D3A8C39E4F58DF58BBE
:100E9100D2B67F0A12000EC2B630B7FDD28E20B78D
:100EA100FDC28EAF8DEFFEAD8B7C00E42DFDEC3EDF
:100EB100FCE41203328F0B8E0A8D098C08E4FBFAD5
:100EC100796878421202178F0B8E0A8D098C088F70
:100ED100408E3F8D3E8C3DE4F58DF58BF541F5421D
:100EE100E4F543F544C374049542FFE49541FEC320
:100EF100E5449FEE6480F8E543648098506AAF440E
:100F0100EF25E025E02431F81205DBC000EF25E0F4
:100F110025E0242DF81205CFD0001202B4503EABCB
:100F210044EB25E025E0242DF81205CF8F2C8E2BE4
:100F31008D2A8C29EB25E025E02431F81205CFEB31
:100F410025E025E0242DF81205E8AF2CAE2BAD2AC3
:100F5100AC29EB25E025E02431F81205E80544E54C
:100F61004470820543020EE60542E54270020541E6
:100F7100640445416003020EE1AF38AE37AD36ACD3
:100F810035AB34AA33A932A83112001DAB3CAA3BC0
:100F9100A93AA83912001DE4FBFA794078401202FF
:100FA100177B5A7A64798B783F12010E8F0B8E0A68
:100FB1008D098C08AC18AD19EC120332AB0BAA0ADF
:100FC100A909A8081202B45007C2A27FC8121909C0
:100FD100D2A2E4FFFE7DE17C43AB0BAA0AA909A8DA
:100FE100081202B4502A7548FF754918754AD2850E
:100FF1000B4E850A4D85094C85084B7B007A00799B
:10100100221206867B007A0079227D01E4FF800AA4
:0E1011007BFF7A1879DA7D017F0212185822CF
:10101F00D2A07F0A12000EC2A030A1FDD28E20A155
:10102F00FDC28EAF8DEFFEAD8B7C00E42DFDEC3E4F
:10103F00FCE41203328F0F8E0E8D0D8C0CE4FBFA35
:10104F00796878421202178F0F8E0E8D0D8C0C8FD0
:10105F00308E2F8D2E8C2DE4F58DF58BD2A07F0A3F
:10106F0012000EC2A030A1FDD28E20A1FDC28EAF04
:10107F008DEFFEAD8B7C00E42DFDEC3EFCE4120306
:10108F00328F0F8E0E8D0D8C0CE4FBFA796878423F
:10109F001202178F0F8E0E8D0D8C0C8F348E338D99
:1010AF00328C31E4F58DF58BD2A07F0A12000EC27F
:1010BF00A030A1FDD28E20A1FDC28EAF8DEFFEAD6F
:1010CF008B7C00E42DFDEC3EFCE41203328F0F8E7F
:1010DF000E8D0D8C0CE4FBFA796878421202178F93
:1010EF000F8E0E8D0D8C0C8F388E378D368C35E420
:1010FF00F58DF58BD2A07F0A12000EC2A030A1FD94
:10110F00D28E20A1FDC28EAF8DEFFEAD8B7C00E4A1
:10111F002DFDEC3EFCE41203328F0F8E0E8D0D8CE5
:10112F000CE4FBFA796878421202178F0F8E0E8D3E
:10113F000D8C0C8F3C8E3B8D3A8C39E4F58DF58BF5
:10114F00D2A07F0A12000EC2A030A1FDD28E20A124
:10115F00FDC28EAF8DEFFEAD8B7C00E42DFDEC3E1E
:10116F00FCE41203328F0F8E0E8D0D8C0CE4FBFA04
:10117F00796878421202178F0F8E0E8D0D8C0C8F9F
:10118F00408E3F8D3E8C3DE4F58DF58BF541F5425C
:10119F00E4F543F544C374049542FFE49541FEC35F
:1011AF00E5449FEE6480F8E543648098506AAF444D
:1011BF00EF25E025E02431F81205DBC000EF25E034
:1011CF0025E0242DF81205CFD0001202B4503EAB0B
:1011DF0044EB25E025E0242DF81205CF8F2C8E2B24
:1011EF008D2A8C29EB25E025E02431F81205CFEB71
:1011FF0025E025E0242DF81205E8AF2CAE2BAD2A03
:10120F00AC29EB25E025E02431F81205E80544E58B
:10121F0044708205430211A40542E5427002054164
:10122F0064044541600302119FAF38AE37AD36AC51
:10123F0035AB34AA33A932A83112001DAB3CAA3BFF
:10124F00A93AA83912001DE4FBFA7940784012023E
:10125F00177B5A7A64798B783F12010E8F0F8E0E9F
:10126F008D0D8C0CAC1AAD1BEC120332AB0FAA0E0A
:10127F00A90DA80C1202B45007C2A27FC8121909F7
:10128F00D2A2E4FFFE7DE17C43AB0FAA0EA90DA80D
:10129F000C1202B4502A7548FF754918754AE1853A
:1012AF000F4E850E4D850D4C850C4B7B007A0079CA
:1012BF00221206867B007A0079227D017F08800A40
:0E12CF007BFF7A1879DA7D017F0A1218582207
:1012DD00D2B47F0A12000EC2B430B5FDD28E20B545
:1012ED00FDC28EAF8DEFFEAD8B7C00E42DFDEC3E8F
:1012FD00FCE41203328F138E128D118C10E4FBFA65
:10130D00796878421202178F138E128D118C108FFF
:10131D00308E2F8D2E8C2DE4F58DF58BD2B47F0A6A
:10132D0012000EC2B430B5FDD28E20B5FDC28EAF07
:10133D008DEFFEAD8B7C00E42DFDEC3EFCE4120345
:10134D00328F138E128D118C10E4FBFA796878426E
:10135D001202178F138E128D118C108F348E338DC8
:10136D00328C31E4F58DF58BD2B47F0A12000EC2AA
:10137D00B430B5FDD28E20B5FDC28EAF8DEFFEAD72
:10138D008B7C00E42DFDEC3EFCE41203328F138EBA
:10139D00128D118C10E4FBFA796878421202178FC6
:1013AD00138E128D118C108F388E378D368C35E44F
:1013BD00F58DF58BD2B47F0A12000EC2B430B5FD97
:1013CD00D28E20B5FDC28EAF8DEFFEAD8B7C00E4CD
:1013DD002DFDEC3EFCE41203328F138E128D118C19
:1013ED0010E4FBFA796878421202178F138E128D72
:1013FD00118C108F3C8E3B8D3A8C39E4F58DF58B2D
:10140D00D2B47F0A12000EC2B430B5FDD28E20B513
:10141D00FDC28EAF8DEFFEAD8B7C00E42DFDEC3E5D
:10142D00FCE41203328F138E128D118C10E4FBFA33
:10143D00796878421202178F138E128D118C108FCE
:10144D00408E3F8D3E8C3DE4F58DF58BF541F5429B
:10145D00E4F543F544C374049542FFE49541FEC39E
:10146D00E5449FEE6480F8E543648098506AAF448C
:10147D00EF25E025E02431F81205DBC000EF25E073
:10148D0025E0242DF81205CFD0001202B4503EAB4A
:10149D0044EB25E025E0242DF81205CF8F2C8E2B63
:1014AD008D2A8C29EB25E025E02431F81205CFEBB0
:1014BD0025E025E0242DF81205E8AF2CAE2BAD2A42
:1014CD00AC29EB25E025E02431F81205E80544E5CB
:1014DD0044708205430214620542E54270020541E3
:1014ED0064044541600302145DAF38AE37AD36ACD0
:1014FD0035AB34AA33A932A83112001DAB3CAA3B3F
:10150D00A93AA83912001DE4FBFA7940784012027D
:10151D00177B5A7A64798B783F12010E8F138E12D6
:10152D008D118C10AC16AD17EC120332AB13AA1241
:10153D00A911A8101202B45007C2A27FC81219092E
:10154D00D2A2E4FFFE7DE17C43AB13AA12A911A840
:10155D00101202B4502A7548FF754918754AE9856D
:10156D00134E85124D85114C85104B7B007A0079F9
:10157D00221206867B007A007922E4FD7F04800A20
:0E158D007BFF7A1879DAE4FD7F0612185822E7
:10194400120D611217A112101F1217DF1212DD02FD
:0219540016E794
:03000E00DFFE22F0
:10190900AE07AF061EEF600C7FF512000E7FF512D1
:05191900000E80EE222B
:0F19DE00C3EF9515EE95144003D29622C29622C0
:0F19ED00C3EF9515EE95144003D29522C29522B3
:0F19FC00C3EF9515EE95144003D29422C29422A6
:0F1A0B00C3EF9515EE95144003D29322C2932298
:10191E007F037E001219DEC295D297C294121A0B63
:03192E00D2922230
:10193100C2967F047E001219EDD2971219FCC29350
:03194100D292221D
:10195600C296C295C297C2947F047E00121A0BD219
:021966009222CB
:101968007F047E001219DEC295D297C294C293C238
:021978009222B9
:091A2500C296C295C294C293223C
:1019CE00438901758CFF758A38D2A9D2AFD28C2289
:03000B000218AC2C
:1018AC00C0E0C0D0758CFF758A380515E51570023F
:1018BC000514D39464E51494004006751400751552
:0618CC0000D0D0D0E03294
:1017A100E4FFFE7DE07C40AB0BAA0AA909A8081260
:1017B10002B44016E4FFFE7D7A7C44AB0BAA0AA971
:1017C10009A8081202B4601540131219687F3C126F
:0E17D10019091219317F19121909121A25224D
:1017DF00E4FFFE7DE07C40AB0FAA0EA90DA80C1212
:1017EF0002B44016E4FFFE7D7A7C44AB0FAA0EA92B
:1017FF000DA80C1202B4601540131219567F3C123B
:0E180F0019091219317F19121909121A25220E
:1016E700E4FFFE7DA07C40AB13AA12A911A810123B
:1016F70002B4600D400B1219317F3C121909121AFE
:1017070025E4FFFE7D7A7C44AB13AA12A911A81029
:101717001202B46005400312191EE4FFFE7DE07C4F
:1017270040AB0BAA0AA909A8081202B4502DE4FF7E
:10173700FE7DE07C40AB0FAA0EA90DA80C1202B4E7
:101747005019E4FFFE7DA07C40AB13AA12A911A893
:0C175700101202B45005121A2580BF22A7
:100016000203A0E86480F8E933E83360110460F075
:10002600ED33EC337009E8FCE9FDEAFEEBFF220450
:1000360060DED3EB9FEA9EE99DE8C2E78CF0C2F74B
:1000460095F0400CE8CCF8E9CDF9EACEFAEBCFFB17
:1000560012036B85D0F05804700320D5B3E8047002
:10006600075002B2D50203AA92D5EC0460F7E4CC9D
:10007600C0E0C398F8603B94186008400DD0E0FBE0
:10008600020382E4FBFAC9FC8028E830E406E4C9EE
:10009600FBE4CAFCE830E305E4C9CACBFCE8540734
:1000A6006010F8C3E913F9EA13FAEB13FBEC13FC3F
:1000B600D8F130F52FC3E49CFCEF9BFFEE9AFEEDE2
:1000C60099FDD0E0FBEF4E4D4C701222DB0302038C
:1000D600A7EC2CFCEF33FFEE33FEED33FDED30E7FE
:1000E600EB020382EF2BFFEE3AFEED39FDD0E0FB8B
:1000F60050130BBB00030203AAED13FDEE13FEEF34
:0801060013FFEC13FC0203825D
:10010E00EC4D6011E8497017ED33EC3304600DE4EB
:10011E00FCFFFEFD22E933E8330470F80203A0125F
:10012E00036B58046009E4CC248150062850090260
:10013E0003AA2840030203A7C0E0EB4A7044B9802B
:10014E0006D0E0FB020396EF4E701CBD8008EBFF5D
:10015E00EAFEE9FD80EBE98DF0A4FEE5F00201F781
:10016E00E9CDF9EAFEEBFFEF89F0A4FCE5F0CE89CC
:10017E00F0A42EFFE435F0CD89F0A42DFEE435F089
:10018E008067EF4E7005BD80D780C3EF8BF0A4ACB7
:10019E00F0EE8BF0A42CFCE435F0F8EF8AF0A42CF2
:1001AE00E5F038FCE433CB8DF0A42CFCE5F03BF805
:1001BE00EE8AF0A42CFCE5F038F8E433CF89F0A4F5
:1001CE002CFCE5F038CF3400CE89F0A42FFFE5F0FB
:1001DE003EFEE433C98DF0A42EFEE5F039CD8AF053
:1001EE00A42FFFE5F03EFEE43DFD33D0E0FB5007CB
:1001FE000BBB000F0203AAEC2CFCEF33FFEE33FE19
:06020E00ED33FD02038246
:100214000203AAEC5D046005E8590470030203A01C
:1002240012036B580460F6EC4860F2EC7004FDFEB7
:10023400FF22C860DB2481C85009C39860025006BD
:100244000203A79850CAF582E9294B4A7005AB828C
:1002540002039675F0007C1A7880C3EF9BEE9AED4A
:1002640099400DC3EF9BFFEE9AFEED99FDE842F035
:10027400DC23ACF0D0E0FFD0E0FED0E0FDAB822088
:10028400E7101BEB60BAEC2CFCEF33FFEE33FEED12
:1002940033FD020382E803F830E705C0F075F0008F
:1002A400EF2FFFEE33FEED33FD40B830E7C280AAF6
:1002B40074F8CC6480CCC86480C8F58204604FC3F1
:1002C400EB9FF5F0EA9E42F0E99D42F0E89C45F090
:1002D400603C501DE5825FFFE582D313CB5BCBF41A
:1002E4002B5582FB50280ABA002409B90020088043
:1002F4001DE5825BFBE582D313CF5FCFF4C3132FDD
:100304005582FF50090EBE00050DBD00010CC3EB64
:100314009FF5F0EA9E42F0E99D42F0E89C45F060CA
:0903240007CC4820E701B3EC22EC
:10032D0075F020800E75F010800575F0087D007E4B
:10033D00007F003392D530D5031205C1EC33401048
:10034D00EF33FFEE33FEED33FDEC33FCD5F0ED2254
:0E035D00E5F0247EA2D513CC92E7CDCEFF2290
:10062A00E55C2448F8E6055C2278453007027848FC
:10063A00E475F0011205F40205572000EB7F2ED273
:10064A00008018EF540F2490D43440D4FF30040BA8
:10065A00EF24BFB41A0050032461FFE55D60021560
:10066A005D0560E5607002055F30070D7845E47549
:10067A00F0011205F4EF02059D0218857403D207F2
:10068A008003E4C207F55C8B458A468947E4F55D39
:10069A00F55FF560E55D60077F2012066580F575F8
:1006AA005EFFC201C200C202C203C205C206C2087C
:1006BA00120633FF700D3007057F00120676AF6011
:1006CA00AE5F22B4255FC2D5C204120633FF24D01E
:1006DA00B40A00501A75F00A785D30D50508B6FFDD
:1006EA000106C6A426F620D5047002D20380D924B6
:1006FA00CFB41A00EF5004C2E5D204020963D20152
:10070A0080C6D20080C0D20280BCD2D580BAD205BF
:10071A0080B47F201206652002077401B55D00408F
:10072A00F112062AFF12066502069ED208D2068038
:10073A009512062AFB12062AFA12062AF94A4B7061
:10074A0006795A7A0A7BFF20022EE55D602A7E002E
:10075A008E8275830012057060060EEE655E70F07B
:10076A00C2D5EBC0E0EAC0E0E9C0E0EE1209C3D0AE
:10077A00E0F9D0E0FAD0E0FB120557FF60AAEBC01F
:10078A00E0EAC0E0E9C0E0120665D0E02401F9D051
:10079A00E03400FAD0E0FBE55E0460DCD55ED98087
:1007AA0087D20280A21209A660F7E55E70010412E0
:1007BA0003B5A95E600DE55E600914F55E120A4D87
:1007CA00EF60F3EA30E702F404C3995077EAF425BC
:1007DA005E0430E701E404F55E800D1209A660C1EB
:1007EA00EA055E255E1203B5EA785BF630E701E4B6
:1007FA00255E04D55E04200501141209C3E4C0E095
:10080A00120A4D785BE6601320E70714F612064DCC
:10081A00802204F6D0E014C0E07F0012064DE55EA7
:10082A006007120644155E800B300503120644D099
:10083A00E002069ED0E00480C51209A660A0E55E2B
:10084A00041203B5785BEAF6E55E2005026001044E
:05085A0024041209C393
:10085F0074FF04C0E0120A4D12064DE55E2005023A
:10086F006003120644D0E0B55EE87F451206577864
:10087F005BE67F2B30E7047F2DF404C0E0120665A2
:10088F00D0E075F00A84C0F012064ED0E012064E8A
:10089F0002069E791080027908C206C2088008D22B
:1008AF00D5790A8004790AC2D5E55E047002F55E37
:1008BF00E4FAFDFEFF12062AFC7B08200113120644
:1008CF002AFD7B1030000A12062AFE12062AFF7B31
:1008DF0020EC3382D592D55013C3E43000069FFF2E
:1008EF00E49EFEE42001039DFDE49CFCE4CBF8C2F2
:1008FF0001EC700CCFCECDCCE824F8F870F3801754
:10090F00C3EF33FFEE33FEED33FDEC33FCEB33FB84
:10091F00994002FB0FD8E9EB300105F8D0E0C4484D
:10092F00B201C0E00AEC4D4E4F78207B0070C2EA56
:10093F00B55E0040BCC0E01209C5D0F0D0E0200188
:10094F0004C4C0E0C4B201C0F012064ED0F0D5F01E
:10095F00EB02069E120604073B5308A258070C4CE5
:10096F0007084208A64F08AE4408AE4907214308BE
:10097F00B45507E54608434507AF470A7A500710B5
:10098F002D07142E07372B0718230735200A632A44
:10099F0006D0480000072FE55EB4FF03755E061210
:1009AF00062AFC12062AFD12062AFE12062AFF78D4
:1009BF00540203E4790AA2D5200314300509B910B3
:1009CF00020404B9080104A2D52006025001042034
:1009DF0002689202B55D005034C0E07F20300319E9
:1009EF007F30A20272067205500F120A1CC202C299
:1009FF0006C205C2087F30800F300503E9C0E01240
:100A0F000665300503D0E0F9D0E0B55DCC300517B1
:100A1F007F30B9100C1206657F583004077F78803D
:100A2F0003B908031206653002057F2D0206657FA4
:100A3F00202008F87F2B2006F322920280CF7F0020
:100A4F00B4070050052454F8E6FF22286E756C6C2D
:100A5F002900D20112062A3001F8C201785D30D583
:100A6F000108F60206D02D5043495812062A2403D6
:100A7F00B405004001E4900A7593120656743A12B9
:0A0A8F000656D203755D040208A2AA
:10036B00E9D2E7C933E833F892D5EDD2E7CD33ECD8
:07037B0033FC5002B2D52251
:10038200EC30E7100FBF000C0EBE00080DBD0004DC
:100392000BEB6014A2D5EB13FCED92E7FD2274FF88
:1003A200FCFDFEFF22E480F8A2D574FF13FC7D80E1
:0303B200E480EFF5
:1003B500F920E72824F950037907E4F42402FB180F
:1003C500DBFDE624FB5014E9600DE4F618E604F6BF
:0F03D500B40A08E4F6D9F57401F60A22C2D5225B
:1003E400ED33EC3392D5FA602AB4FF33EDC2E77BE8
:1003F400FF60067A047909E4227A04791220D5048C
:100404007A04790D224E614E002B494E46002D4947
:100414004E4600E47A08F608DAFC7B00740722E80A
:10042400C0E0ECC0E0EDC0E0EEC0E0EFC0E0EA7593
:10043400F010A4CAABF075F04DA42BFBE435F0FC2E
:10044400EA2410FAEB34C5FBEC34D9FCEDC2E7FF27
:1004540075F056A4F42411C5F0F434C58FF0A42A21
:10046400E5F03BE43CF620E714120517D0E0FFD09A
:10047400E0FED0E0FDD0E0FC1202178014F4041278
:100484000517D0E0FFD0E0FED0E0FDD0E0FC120183
:100494000ED0E0F8E6FAEDD2E7CD33EC332482FB5C
:1004A400E4C3CF33CFCE33CECD33CD33DBF37B07B1
:1004B40075F00A846004F6081B0AE5F0F6088FF06C
:1004C400740AA4FFACF08EF0740AA42CFEACF050B5
:1004D400010C8DF0740AA42CFDE435F0F608DBDE83
:0304E40074072278
:1004E7003F8000004120000042C80000447A00001D
:1004F700461C400047C35000497424004B1896809F
:100507004CBEBC205A0E1BCA6753C21C749DC5AE95
:10051700FB60065407601C2323120545EB54386023
:100527000912053112054012010EECF8EDF9EEFA49
:10053700EFCB22EB12054080F1543803241C9004C2
:10054700E7FE93FC0EEE93FD0EEE930ECE93FF2285
:1016670002197AE493A3F8E493A34003F68001F206
:1016770008DFF48029E493A3F85407240CC8C33384
:10168700C4540F4420C8834004F456800146F6DF53
:10169700E4800B010204081020408090198BE47E3F
:1016A700019360BCA3FF543F30E509541FFEE49348
:1016B700A360010ECF54C025E060A840B8E493A30F
:1016C700FAE493A3F8E493A3C8C582C8CAC583CA3A
:1016D700F0A3C8C582C8CAC583CADFE9DEE780BEF2
:01199B00004B
:10055700BB010689828A83E0225002E722BBFE02A2
:09056700E32289828A83E49322D5
:10057000BB010CE58229F582E5833AF583E0225040
:1005800006E92582F8E622BBFE06E92582F8E2228A
:0D059000E58229F582E5833AF583E49322A4
:10059D00BB010689828A83F0225002F722BBFE013D
:0205AD00F32237
:1005AF00EF8DF0A4A8F0CF8CF0A428CE8DF0A42E60
:0205BF00FE221A
:0E05C100C3E49FFFE49EFEE49DFDE49CFC224B
:0C05CF00E6FC08E6FD08E6FE08E6FF2258
:0D05DB00E6FB08E6F908E6FA08E6CBF82290
:0C05E800ECF608EDF608EEF608EFF6223F
:1005F400FAE6FB0808E6F925F0F618E6CA3AF62208
:10060400D083D082F8E4937012740193700DA3A385
:1006140093F8740193F5828883E473740293686099
:06062400EFA3A3A380DF99
:10188500EFB40A07740D121890740A309811A899CC
:10189500B8130CC2983098FDA899C298B811F630C3
:0718A50099FDC299F599229B
:00000001FF
