:100DE200523D25362E326620434D20202020200001
:0D0E0200438901E4F58CF58AD2A9D2AF2214
:060A7F00120E02120D042C
:100A8500D2947F0A120E1BC2943095FDD28C20950C
:100A9500FDC28CAF8CEFFEAD8A7C00E42DFDEC3EF3
:100AA500FCE41202248F298E288D278C26E4FBFA7C
:100AB500796878421201098F298E288D278C268F17
:100AC5003D8E3C8D3B8C3AE4F58CF58AD2947F0AB9
:100AD500120E1BC2943095FDD28C2095FDC28CAFB1
:100AE5008CEFFEAD8A7C00E42DFDEC3EFCE41202A9
:100AF500248F2D8E2C8D2B8C2AE4FBFA7968784275
:100B05001201098F2D8E2C8D2B8C2A8F418E408DB5
:100B15003F8C3EE4F58CF58AD2947F0A120E1BC2F7
:100B2500943095FDD28C2095FDC28CAF8CEFFEAD37
:100B35008A7C00E42DFDEC3EFCE41202248F318E0C
:100B4500308D2F8C2EE4FBFA796878421201098FDB
:100B5500318E308D2F8C2E8F458E448D438C42E403
:100B6500F58CF58AD2947F0A120E1BC2943095FD3E
:100B7500D28C2095FDC28CAF8CEFFEAD8A7C00E453
:100B85002DFDEC3EFCE41202248F358E348D338C22
:100B950032E4FBFA796878421201098F358E348D7B
:100BA500338C328F498E488D478C46E4F58CF58A17
:100BB500D2947F0A120E1BC2943095FDD28C2095DB
:100BC500FDC28CAF8CEFFEAD8A7C00E42DFDEC3EC2
:100BD500FCE41202248F398E388D378C36E4FBFA0B
:100BE50079687842AF35AE34AD33AC321201098F36
:100BF500398E388D378C368F4D8E4C8D4B8C4AE423
:100C0500F58CF58AF552F553E4F554F555C374049E
:100C15009553FFE49552FEC3E5559FEE6480F8E5D4
:100C250054648098506AAF55EF25E025E0243EF8DE
:100C35001205C1C000EF25E025E0243AF81205B5FC
:100C4500D0001201A6503EAB55EB25E025E0243A35
:100C5500F81205B58F518E508D4F8C4EEB25E02542
:100C6500E0243EF81205B5EB25E025E0243AF8121C
:100C750005CEAF51AE50AD4FAC4EEB25E025E0248F
:100C85003EF81205CE0555E55570820554020C1245
:100C95000553E55370020552640445526003020C86
:100CA5000DAF45AE44AD43AC42AB41AA40A93FA808
:100CB5003E120015AB49AA48A947A846120015E4FB
:100CC500FBFA794078401201098F258E248D238CFB
:100CD500227559FF755A0D755BE28F5F8E5E8D5DCE
:100CE5008C5C7B007A00790812066C7B007A0079AF
:0C0CF50008E4FDFF120D3F7FF4120DAB70
:030D0100020A855E
:03000B00020003ED
:07000300C291C293C29532C5
:100DF2007580FFC2A4D2A5C2A600D2A6E580332286
:100DC000120DF240FBC2A4C2A5D2A68F8000C2A61B
:010DD0002200
:100DD100120DF240FBD2A4C2A5D2A68F8000C2A6FA
:010DE10022EF
:100D3F008F568D578B588A59895AAB58AA59A95A29
:100D4F0012054FFB6016AD57AF56120D9374012568
:0D0D5F005AF55AE43559F559055680DE2243
:100D9300AE07AC03ED7005EE24808003EE24C0FFA4
:080DA300120DC0AF04020DD1D6
:100D04007F38120DC07F05120DAB7F38120DC07FE6
:100D140005120DAB7F38120DC07F05120DAB7F3865
:100D2400120DC07F08120DC07F01120DC07F061284
:0B0D34000DC01F120DAB7F0C020DC0A4
:030E1B00DFFE22D5
:100DAB00AE07AF061EEF600C7FF5120E1B7FF51220
:050DBB000E1B80EE227A
:10000E00020292E86480F8E933E83360110460F08C
:10001E00ED33EC337009E8FCE9FDEAFEEBFF220458
:10002E0060DED3EB9FEA9EE99DE8C2E78CF0C2F753
:10003E0095F0400CE8CCF8E9CDF9EACEFAEBCFFB1F
:10004E0012025D85D0F05804700320D5B3E8047019
:10005E00075002B2D502029C92D5EC0460F7E4CCB4
:10006E00C0E0C398F8603B94186008400DD0E0FBE8
:10007E00020274E4FBFAC9FC8028E830E406E4C905
:10008E00FBE4CAFCE830E305E4C9CACBFCE854073C
:10009E006010F8C3E913F9EA13FAEB13FBEC13FC47
:1000AE00D8F130F52FC3E49CFCEF9BFFEE9AFEEDEA
:1000BE0099FDD0E0FBEF4E4D4C701222DB03020295
:1000CE0099EC2CFCEF33FFEE33FEED33FDED30E714
:1000DE00EB020274EF2BFFEE3AFEED39FDD0E0FBA2
:1000EE0050130BBB000302029CED13FDEE13FEEF4B
:0800FE0013FFEC13FC02027475
:1001060002029CEC5D046005E85904700302029249
:1001160012025D580460F6EC4860F2EC7004FDFED5
:10012600FF22C860DB2481C85009C39860025006CC
:100136000202999850CAF582E9294B4A7005AB82AA
:1001460002028875F0007C1A7880C3EF9BEE9AED68
:1001560099400DC3EF9BFFEE9AFEED99FDE842F044
:10016600DC23ACF0D0E0FFD0E0FED0E0FDAB822097
:10017600E7101BEB60BAEC2CFCEF33FFEE33FEED21
:1001860033FD020274E803F830E705C0F075F000AD
:10019600EF2FFFEE33FEED33FD40B830E7C280AA05
:1001A60074F8CC6480CCC86480C8F58204604FC300
:1001B600EB9FF5F0EA9E42F0E99D42F0E89C45F09F
:1001C600603C501DE5825FFFE582D313CB5BCBF429
:1001D6002B5582FB50280ABA002409B90020088052
:1001E6001DE5825BFBE582D313CF5FCFF4C3132FEC
:1001F6005582FF50090EBE00050DBD00010CC3EB74
:100206009FF5F0EA9E42F0E99D42F0E89C45F060D9
:0902160007CC4820E701B3EC22FB
:10021F0075F020800E75F010800575F0087D007E5A
:10022F00007F003392D530D5031205A7EC33401071
:10023F00EF33FFEE33FEED33FDEC33FCD5F0ED2263
:0E024F00E5F0247EA2D513CC92E7CDCEFF229F
:10061000E56D2459F8E6056D2278563007027859C1
:10062000E475F0011205DA02054F2000EB7F2ED2AF
:10063000008018EF540F2490D43440D4FF30040BC2
:10064000EF24BFB41A0050032461FFE56E60021569
:100650006E0571E5717002057030070D7856E4750E
:10066000F0011205DAEF020595020D6C7403D20752
:100670008003E4C207F56D8B568A578958E4F56EFE
:10068000F570F571E56E60077F2012064B80F575F9
:100690006FFFC201C200C202C203C205C206C20885
:1006A000120619FF700D3007057F0012065CAF714E
:1006B000AE7022B4255FC2D5C204120619FF24D041
:1006C000B40A00501A75F00A786E30D50508B6FFE6
:1006D0000106C6A426F620D5047002D20380D924D0
:1006E000CFB41A00EF5004C2E5D204020949D20186
:1006F00080C6D20080C0D20280BCD2D580BAD205DA
:1007000080B47F2012064B2002077401B56E0040B2
:10071000F1120610FF12064B020684D208D20680A0
:1007200095120610FB120610FA120610F94A4B70C9
:100730000679407A0A7BFF20022EE56E602A7E0051
:100740008E8275830012056860060EEE656F70F08C
:10075000C2D5EBC0E0EAC0E0E9C0E0EE1209A9D0E2
:10076000E0F9D0E0FAD0E0FB12054FFF60AAEBC041
:10077000E0EAC0E0E9C0E012064BD0E02401F9D085
:10078000E03400FAD0E0FBE56F0460DCD56FD9807F
:1007900087D20280A212098C60F7E56F7001041203
:1007A00002A7A96F600DE56F600914F56F120A3397
:1007B000EF60F3EA30E702F404C3995077EAF425D6
:1007C0006F0430E701E404F56F800D12098C60C1FD
:1007D000EA056F256F1202A7EA786CF630E701E4AC
:1007E000256F04D56F04200501141209A9E4C0E0A7
:1007F000120A33786CE6601320E70714F61206330A
:10080000802204F6D0E014C0E07F00120633E56FCA
:10081000600712062A156F800B30050312062AD0D6
:10082000E0020684D0E00480C512098C60A0E56F68
:10083000041202A7786CEAF6E56F20050260010455
:0508400024041209A9C7
:1008450074FF04C0E0120A33120633E56F20050277
:10085500600312062AD0E0B56FE87F4512063D78A1
:100865006CE67F2B30E7047F2DF404C0E012064BC5
:10087500D0E075F00A84C0F0120634D0E0120634D8
:10088500020684791080027908C206C2088008D25F
:10089500D5790A8004790AC2D5E56F047002F56F2F
:1008A500E4FAFDFEFF120610FC7B08200113120678
:1008B50010FD7B1030000A120610FE120610FF7B99
:1008C50020EC3382D592D55013C3E43000069FFF48
:1008D500E49EFEE42001039DFDE49CFCE4CBF8C20C
:1008E50001EC700CCFCECDCCE824F8F870F380176E
:1008F500C3EF33FFEE33FEED33FDEC33FCEB33FB9F
:10090500994002FB0FD8E9EB300105F8D0E0C44867
:10091500B201C0E00AEC4D4E4F78207B0070C2EA70
:10092500B56F0040BCC0E01209ABD0F0D0E02001AB
:1009350004C4C0E0C4B201C0F0120634D0F0D5F052
:10094500EB0206841205EA07215308885806F24C83
:1009550006EE42088C4F089444089449070743085B
:100965009A5507CB460829450795470A605006F66C
:100975002D06FA2E071D2B06FE23071B200A492AE2
:1009850006B64800000715E56FB4FF03756F06123C
:100995000610FC120610FD120610FE120610FF7856
:1009A500650202D6790AA2D5200314300509B910CB
:1009B500020404B9080104A2D5200602500104204E
:1009C50002689202B56E005034C0E07F20300319F2
:1009D5007F30A20272067205500F120A02C202C2CD
:1009E50006C205C2087F30800F300503E9C0E0125A
:1009F500064B300503D0E0F9D0E0B56ECC300517D5
:100A05007F30B9100C12064B7F583004077F788071
:100A150003B9080312064B3002057F2D02064B7FF2
:100A2500202008F87F2B2006F322920280CF7F003A
:100A3500B4070050052465F8E6FF22286E756C6C36
:100A45002900D2011206103001F8C201786E30D5A6
:100A55000108F60206B62D50434958120610240324
:100A6500B405004001E4900A5B9312063C743A1207
:0A0A7500063CD203756E04020888E7
:10025D00E9D2E7C933E833F892D5EDD2E7CD33ECE7
:07026D0033FC5002B2D52260
:10027400EC30E7100FBF000C0EBE00080DBD0004EB
:100284000BEB6014A2D5EB13FCED92E7FD2274FF97
:10029400FCFDFEFF22E480F8A2D574FF13FC7D80F0
:0302A400E480EF04
:1002A700F920E72824F950037907E4F42402FB181E
:1002B700DBFDE624FB5014E9600DE4F618E604F6CE
:0F02C700B40A08E4F6D9F57401F60A22C2D5226A
:1002D600ED33EC3392D5FA602AB4FF33EDC2E77BF7
:1002E600FF60067A0279FBE4227A03790420D504BA
:1002F6007A0279FF224E614E002B494E46002D4967
:100306004E4600E47A08F608DAFC7B00740722E819
:10031600C0E0ECC0E0EDC0E0EEC0E0EFC0E0EA75A2
:10032600F010A4CAABF075F04DA42BFBE435F0FC3D
:10033600EA2410FAEB34C5FBEC34D9FCEDC2E7FF36
:1003460075F056A4F42411C5F0F434C58FF0A42A30
:10035600E5F03BE43CF620E71412050FD0E0FFD0B1
:10036600E0FED0E0FDD0E0FC1201098014F4041296
:10037600050FD0E0FFD0E0FED0E0FDD0E0FC120398
:10038600D9D0E0F8E6FAEDD2E7CD33EC332482FBA0
:10039600E4C3CF33CFCE33CECD33CD33DBF37B07C0
:1003A60075F00A846004F6081B0AE5F0F6088FF07B
:1003B600740AA4FFACF08EF0740AA42CFEACF050C4
:1003C600010C8DF0740AA42CFDE435F0F608DBDE92
:0303D60074072287
:1003D900EC4D6011E8497017ED33EC3304600DE41E
:1003E900FCFFFEFD22E933E8330470F802029212A1
:1003F900025D58046009E4CC2481500628500902A2
:10040900029C284003020299C0E0EB4A7044B9807B
:1004190006D0E0FB020288EF4E701CBD8008EBFF9E
:10042900EAFEE9FD80EBE98DF0A4FEE5F00204C2E5
:10043900E9CDF9EAFEEBFFEF89F0A4FCE5F0CE89FE
:10044900F0A42EFFE435F0CD89F0A42DFEE435F0BB
:100459008067EF4E7005BD80D780C3EF8BF0A4ACE9
:10046900F0EE8BF0A42CFCE435F0F8EF8AF0A42C24
:10047900E5F038FCE433CB8DF0A42CFCE5F03BF837
:10048900EE8AF0A42CFCE5F038F8E433CF89F0A427
:100499002CFCE5F038CF3400CE89F0A42FFFE5F02D
:1004A9003EFEE433C98DF0A42EFEE5F039CD8AF085
:1004B900A42FFFE5F03EFEE43DFD33D0E0FB5007FD
:1004C9000BBB000F02029CEC2CFCEF33FFEE33FE5A
:0604D900ED33FD02027488
:1004DF003F8000004120000042C80000447A000025
:1004EF00461C400047C35000497424004B189680A7
:1004FF004CBEBC205A0E1BCA6753C21C749DC5AE9E
:10050F00FB60065407601C232312053DEB54386033
:10051F00091205291205381203D9ECF8EDF9EEFA94
:10052F00EFCB22EB12053880F1543803241C9004D2
:10053F00DFFE93FC0EEE93FD0EEE930ECE93FF2295
:03000000020E0FDE
:0C0E0F00787FE4F6D8FD758171020A7F3F
:10054F00BB010689828A83E0225002E722BBFE02AA
:09055F00E32289828A83E49322DD
:10056800BB010CE58229F582E5833AF583E0225048
:1005780006E92582F8E622BBFE06E92582F8E22292
:0D058800E58229F582E5833AF583E49322AC
:10059500BB010689828A83F0225002F722BBFE0145
:0205A500F3223F
:0E05A700C3E49FFFE49EFEE49DFDE49CFC2265
:0C05B500E6FC08E6FD08E6FE08E6FF2272
:0D05C100E6FB08E6F908E6FA08E6CBF822AA
:0C05CE00ECF608EDF608EEF608EFF62259
:1005DA00FAE6FB0808E6F925F0F618E6CA3AF62222
:1005EA00D083D082F8E4937012740193700DA3A3A0
:1005FA0093F8740193F5828883E4737402936860B4
:06060A00EFA3A3A380DFB3
:100D6C00EFB40A07740D120D77740A309811A89914
:100D7C00B8130CC2983098FDA899C298B811F630E7
:070D8C0099FDC299F59922BF
:00000001FF
