:10129600523D25362E3266004C3D25362E326600EE
:0812A600423D25362E326600A0
:0D12FD00438910E4F58DF58BD2ABD2AF2202
:060016001212FD12120798
:10001C00D2947F0A12131DC2943095FDD28E209576
:10002C00FDC28EAF8DEFFEAD8B7C00E42DFDEC3E62
:10003C00FCE41209AC8F298E288D278C26E4FBFA60
:10004C00796878421208918F298E288D278C268FFB
:10005C003D8E3C8D3B8C3AE4F58DF58BD2947F0A2A
:10006C0012131DC2943095FDD28E2095FDC28EAF19
:10007C008DEFFEAD8B7C00E42DFDEC3EFCE4120913
:10008C00AC8F2D8E2C8D2B8C2AE4FBFA7968784260
:10009C001208918F2D8E2C8D2B8C2A8F418E408D9A
:1000AC003F8C3EE4F58DF58BD2947F0A12131DC262
:1000BC00943095FDD28E2095FDC28EAF8DEFFEADA6
:1000CC008B7C00E42DFDEC3EFCE41209AC8F318EF0
:1000DC00308D2F8C2EE4FBFA796878421208918FC0
:1000EC00318E308D2F8C2E8F458E448D438C42E477
:1000FC00F58DF58BD2947F0A12131DC2943095FDA9
:10010C00D28E2095FDC28EAF8DEFFEAD8B7C00E4C0
:10011C002DFDEC3EFCE41209AC8F358E348D338C06
:10012C0032E4FBFA796878421208918F358E348D5F
:10013C00338C328F498E488D478C46E4F58DF58B88
:10014C00D2947F0A12131DC2943095FDD28E209545
:10015C00FDC28EAF8DEFFEAD8B7C00E42DFDEC3E31
:10016C00FCE41209AC8F398E388D378C36E4FBFAEF
:10017C0079687842AF35AE34AD33AC321208918F1A
:10018C00398E388D378C368F4D8E4C8D4B8C4AE496
:10019C00F58DF58BF552F553E4F554F555C3740410
:1001AC009553FFE49552FEC3E5559FEE6480F8E548
:1001BC0054648098506AAF55EF25E025E0243EF852
:1001CC00120D49C000EF25E025E0243AF8120D3D50
:1001DC00D00012092E503EAB55EB25E025E0243A19
:1001EC00F8120D3D8F518E508D4F8C4EEB25E02526
:1001FC00E0243EF8120D3DEB25E025E0243AF81200
:10020C000D56AF51AE50AD4FAC4EEB25E025E02472
:10021C003EF8120D560555E555708205540201A99C
:10022C000553E55370020552640445526003020104
:10023C00A4AF45AE44AD43AC42AB41AA40A93FA8E4
:10024C003E12079DAB49AA48A947A84612079DE450
:10025C00FBFA794078401208918F258E248D238CDF
:10026C00227559FF755A12755B968F5F8E5E8D5D88
:10027C008C5C7B007A007908120DF47B007A007993
:10028C00087D01E4FF1212427FF41212C6D2907F55
:10029C000A12131DC2903091FDD28E2091FDC28E98
:1002AC00AF8DEFFEAD8B7C00E42DFDEC3EFCE4123B
:1002BC0009AC8F298E288D278C26E4FBFA79687877
:1002CC00421208918F298E288D278C268F3D8E3CCB
:1002DC008D3B8C3AE4F58DF58BD2907F0A12131D71
:1002EC00C2903091FDD28E2091FDC28EAF8DEFFE6B
:1002FC00AD8B7C00E42DFDEC3EFCE41209AC8F2DA3
:10030C008E2C8D2B8C2AE4FBFA796878421208919A
:10031C008F2D8E2C8D2B8C2A8F418E408D3F8C3EB9
:10032C00E4F58DF58BD2907F0A12131DC29030919B
:10033C00FDD28E2091FDC28EAF8DEFFEAD8B7C0079
:10034C00E42DFDEC3EFCE41209AC8F318E308D2F88
:10035C008C2EE4FBFA796878421208918F318E303A
:10036C008D2F8C2E8F458E448D438C42E4F58DF56C
:10037C008BD2907F0A12131DC2903091FDD28E2029
:10038C0091FDC28EAF8DEFFEAD8B7C00E42DFDECAC
:10039C003EFCE41209AC8F358E348D338C32E4FB89
:1003AC00FA796878421208918F358E348D338C32FD
:1003BC008F498E488D478C46E4F58DF58BD2907F16
:1003CC000A12131DC2903091FDD28E2091FDC28E67
:1003DC00AF8DEFFEAD8B7C00E42DFDEC3EFCE4120A
:1003EC0009AC8F398E388D378C36E4FBFA79687806
:1003FC0042AF35AE34AD33AC321208918F398E38F2
:10040C008D378C368F4D8E4C8D4B8C4AE4F58DF59B
:10041C008BF552F553E4F554F555C374049553FF1D
:10042C00E49552FEC3E5559FEE6480F8E554648074
:10043C0098506AAF55EF25E025E0243EF8120D499F
:10044C00C000EF25E025E0243AF8120D3DD0001253
:10045C00092E503EAB55EB25E025E0243AF8120D61
:10046C003D8F518E508D4F8C4EEB25E025E0243E78
:10047C00F8120D3DEB25E025E0243AF8120D56AFAD
:10048C0051AE50AD4FAC4EEB25E025E0243EF812BA
:10049C000D560555E555708205540204260553E5A5
:1004AC005370020552640445526003020421AF45A7
:1004BC00AE44AD43AC42AB41AA40A93FA83E1207A3
:1004CC009DAB49AA48A947A84612079DE4FBFA79B7
:1004DC004078401208918F258E248D238C227559DB
:1004EC00FF755A12755B9E8F5F8E5E8D5D8C5C7B8B
:1004FC00007A007908120DF47B007A007908E4FD8B
:10050C007F041212427FE81212C6D2927F0A121393
:10051C001DC2923093FDD28E2093FDC28EAF8DEF13
:10052C00FEAD8B7C00E42DFDEC3EFCE41209AC8F9F
:10053C00298E288D278C26E4FBFA796878421208DC
:10054C00918F298E288D278C268F3D8E3C8D3B8C50
:10055C003AE4F58DF58BD2927F0A12131DC29230BC
:10056C0093FDD28E2093FDC28EAF8DEFFEAD8B7CB2
:10057C0000E42DFDEC3EFCE41209AC8F2D8E2C8D8D
:10058C002B8C2AE4FBFA796878421208918F2D8E15
:10059C002C8D2B8C2A8F418E408D3F8C3EE4F58D1B
:1005AC00F58BD2927F0A12131DC2923093FDD28E1C
:1005BC002093FDC28EAF8DEFFEAD8B7C00E42DFD44
:1005CC00EC3EFCE41209AC8F318E308D2F8C2EE476
:1005DC00FBFA796878421208918F318E308D2F8C0E
:1005EC002E8F458E448D438C42E4F58DF58BD29243
:1005FC007F0A12131DC2923093FDD28E2093FDC23E
:10060C008EAF8DEFFEAD8B7C00E42DFDEC3EFCE45B
:10061C001209AC8F358E348D338C32E4FBFA796849
:10062C0078421208918F358E348D338C328F498EEF
:10063C00488D478C46E4F58DF58BD2927F0A1213C8
:10064C001DC2923093FDD28E2093FDC28EAF8DEFE2
:10065C00FEAD8B7C00E42DFDEC3EFCE41209AC8F6E
:10066C00398E388D378C36E4FBFA79687842AF35A1
:10067C00AE34AD33AC321208918F398E388D378C45
:10068C00368F4D8E4C8D4B8C4AE4F58DF58BF55297
:10069C00F553E4F554F555C374049553FFE49552A2
:1006AC00FEC3E5559FEE6480F8E554648098506A6B
:1006BC00AF55EF25E025E0243EF8120D49C000EFC0
:1006CC0025E025E0243AF8120D3DD00012092E50F9
:1006DC003EAB55EB25E025E0243AF8120D3D8F5149
:1006EC008E508D4F8C4EEB25E025E0243EF8120DFC
:1006FC003DEB25E025E0243AF8120D56AF51AE50F3
:10070C00AD4FAC4EEB25E025E0243EF8120D56051E
:10071C0055E555708205540206A30553E553700246
:10072C00055264044552600302069EAF45AE44ADCB
:10073C0043AC42AB41AA40A93FA83E12079DAB492E
:10074C00AA48A947A84612079DE4FBFA79407840CD
:10075C001208918F258E248D238C227559FF755A82
:10076C0012755BA68F5F8E5E8D5D8C5C7B007A0054
:10077C007908120DF47B007A0079087D017F08124C
:07078C0012427FE81212C6C1
:0307930002001C45
:03001300021316BF
:07131600C291C293C295329F
:100003007580FFC2A4D2A5C2A600D2A6E580332282
:1012DB0012000340FBC2A4C2A5D2A68F8000C2A6F7
:0112EB0022E0
:1012EC0012000340FBD2A4C2A5D2A68F8000C2A6D6
:0112FC0022CF
:101242008F568D578B588A59895AAB58AA59A95A21
:10125200120CD7FB6016AD57AF561212AE740125B1
:0D1262005AF55AE43559F559055680DE223B
:1012AE00AE07AC03ED7005EE24808003EE24C0FF84
:0812BE001212DBAF040212EC76
:101207007F381212DB7F051212C67F381212DB7F7E
:10121700051212C67F381212DB7F051212C67F38FD
:101227001212DB7F081212DB7F011212DB7F06121C
:0B12370012DB1F1212C67F0C0212DB3C
:03131D00DFFE22CE
:1012C600AE07AF061EEF600C7FF512131D7FF512F9
:0512D600131D80EE2253
:10079600020A1AE86480F8E933E83360110460F06D
:1007A600ED33EC337009E8FCE9FDEAFEEBFF2204C9
:1007B60060DED3EB9FEA9EE99DE8C2E78CF0C2F7C4
:1007C60095F0400CE8CCF8E9CDF9EACEFAEBCFFB90
:1007D6001209E585D0F05804700320D5B3E80470FB
:1007E600075002B2D5020A2492D5EC0460F7E4CC95
:1007F600C0E0C398F8603B94186008400DD0E0FB59
:100806000209FCE4FBFAC9FC8028E830E406E4C9E6
:10081600FBE4CAFCE830E305E4C9CACBFCE85407AC
:100826006010F8C3E913F9EA13FAEB13FBEC13FCB7
:10083600D8F130F52FC3E49CFCEF9BFFEE9AFEED5A
:1008460099FDD0E0FBEF4E4D4C701222DB03020AFD
:1008560021EC2CFCEF33FFEE33FEED33FDED30E7FC
:10086600EB0209FCEF2BFFEE3AFEED39FDD0E0FB83
:1008760050130BBB0003020A24ED13FDEE13FEEF2B
:0808860013FFEC13FC0209FC56
:10088E00020A24EC5D046005E859047003020A1A9A
:10089E001209E5580460F6EC4860F2EC7004FDFEB7
:1008AE00FF22C860DB2481C85009C398600250063D
:1008BE00020A219850CAF582E9294B4A7005AB828B
:1008CE00020A1075F0007C1A7880C3EF9BEE9AED49
:1008DE0099400DC3EF9BFFEE9AFEED99FDE842F0B5
:1008EE00DC23ACF0D0E0FFD0E0FED0E0FDAB822008
:1008FE00E7101BEB60BAEC2CFCEF33FFEE33FEED92
:10090E0033FD0209FCE803F830E705C0F075F0008E
:10091E00EF2FFFEE33FEED33FD40B830E7C280AA75
:10092E0074F8CC6480CCC86480C8F58204604FC370
:10093E00EB9FF5F0EA9E42F0E99D42F0E89C45F00F
:10094E00603C501DE5825FFFE582D313CB5BCBF499
:10095E002B5582FB50280ABA002409B900200880C2
:10096E001DE5825BFBE582D313CF5FCFF4C3132F5C
:10097E005582FF50090EBE00050DBD00010CC3EBE4
:10098E009FF5F0EA9E42F0E99D42F0E89C45F0604A
:09099E0007CC4820E701B3EC226C
:1009A70075F020800E75F010800575F0087D007ECB
:1009B700007F003392D530D503120D2FEC33401052
:1009C700EF33FFEE33FEED33FDEC33FCD5F0ED22D4
:0E09D700E5F0247EA2D513CC92E7CDCEFF2210
:100D9800E56D2459F8E6056D227856300702785932
:100DA800E475F001120D62020CD72000EB7F2ED201
:100DB800008018EF540F2490D43440D4FF30040B33
:100DC800EF24BFB41A0050032461FFE56E600215DA
:100DD8006E0571E5717002057030070D7856E4757F
:100DE800F001120D62EF020D1D02126F7403D2079B
:100DF8008003E4C207F56D8B568A578958E4F56E6F
:100E0800F570F571E56E60077F20120DD380F575DA
:100E18006FFFC201C200C202C203C205C206C208F5
:100E2800120DA1FF700D3007057F00120DE4AF71A0
:100E3800AE7022B4255FC2D5C204120DA1FF24D022
:100E4800B40A00501A75F00A786E30D50508B6FF56
:100E58000106C6A426F620D5047002D20380D92440
:100E6800CFB41A00EF5004C2E5D2040210D1D20167
:100E780080C6D20080C0D20280BCD2D580BAD2054A
:100E880080B47F20120DD32002077401B56E004094
:100E9800F1120D98FF120DD3020E0CD208D2068063
:100EA80095120D98FB120D98FA120D98F94A4B708D
:100EB8000679C87A117BFF20022EE56E602A7E0033
:100EC8008E82758300120CF060060EEE656F70F06E
:100ED800C2D5EBC0E0EAC0E0E9C0E0EE121131D0C3
:100EE800E0F9D0E0FAD0E0FB120CD7FF60AAEBC023
:100EF800E0EAC0E0E9C0E0120DD3D0E02401F9D067
:100F0800E03400FAD0E0FBE56F0460DCD56FD980EF
:100F180087D20280A212111460F7E56F70010412E3
:100F28000A2FA96F600DE56F600914F56F1211BBE8
:100F3800EF60F3EA30E702F404C3995077EAF42546
:100F48006F0430E701E404F56F800D12111460C1DD
:100F5800EA056F256F120A2FEA786CF630E701E48C
:100F6800256F04D56F0420050114121131E4C0E087
:100F78001211BB786CE6601320E70714F6120DBB5C
:100F8800802204F6D0E014C0E07F00120DBBE56FAC
:100F98006007120DB2156F800B300503120DB2D029
:100FA800E0020E0CD0E00480C512111460A0E56FB9
:100FB80004120A2F786CEAF6E56F20050260010436
:050FC8002404121131A8
:100FCD0074FF04C0E01211BB120DBBE56F200502CA
:100FDD006003120DB2D0E0B56FE87F45120DC578F4
:100FED006CE67F2B30E7047F2DF404C0E0120DD3A7
:100FFD00D0E075F00A84C0F0120DBCD0E0120DBC2B
:10100D00020E0C791080027908C206C2088008D23F
:10101D00D5790A8004790AC2D5E56F047002F56F9F
:10102D00E4FAFDFEFF120D98FC7B08200113120D52
:10103D0098FD7B1030000A120D98FE120D98FF7B63
:10104D0020EC3382D592D55013C3E43000069FFFB8
:10105D00E49EFEE42001039DFDE49CFCE4CBF8C27C
:10106D0001EC700CCFCECDCCE824F8F870F38017DE
:10107D00C3EF33FFEE33FEED33FDEC33FCEB33FB0F
:10108D00994002FB0FD8E9EB300105F8D0E0C448D8
:10109D00B201C0E00AEC4D4E4F78207B0070C2EAE1
:1010AD00B56F0040BCC0E0121133D0F0D0E020018C
:1010BD0004C4C0E0C4B201C0F0120DBCD0F0D5F034
:1010CD00EB020E0C120D720EA9531010580E7A4C25
:1010DD000E764210144F101C44101C490E8F4310F5
:1010ED0022550F53460FB1450F1D4711E8500E7E87
:1010FD002D0E822E0EA52B0E86230EA32011D12A86
:10110D000E3E4800000E9DE56FB4FF03756F06128D
:10111D000D98FC120D98FD120D98FE120D98FF788A
:10112D0065020A5E790AA2D5200314300509B910AB
:10113D00020404B9080104A2D520060250010420BE
:10114D0002689202B56E005034C0E07F2030031962
:10115D007F30A20272067205500F12118AC202C2AE
:10116D0006C205C2087F30800F300503E9C0E012CA
:10117D000DD3300503D0E0F9D0E0B56ECC300517B6
:10118D007F30B9100C120DD37F583004077F788053
:10119D0003B90803120DD33002057F2D020DD37F45
:1011AD00202008F87F2B2006F322920280CF7F00AB
:1011BD00B4070050052465F8E6FF22286E756C6CA7
:1011CD002900D201120D983001F8C201786E30D588
:1011DD000108F6020E3E2D50434958120D98240376
:1011ED00B405004001E49011E393120DC4743A125A
:0A11FD000DC4D203756E0402101039
:1009E500E9D2E7C933E833F892D5EDD2E7CD33EC58
:0709F50033FC5002B2D522D1
:1009FC00EC30E7100FBF000C0EBE00080DBD00045C
:100A0C000BEB6014A2D5EB13FCED92E7FD2274FF07
:100A1C00FCFDFEFF22E480F8A2D574FF13FC7D8060
:030A2C00E480EF74
:100A2F00F920E72824F950037907E4F42402FB188E
:100A3F00DBFDE624FB5014E9600DE4F618E604F63E
:0F0A4F00B40A08E4F6D9F57401F60A22C2D522DA
:100A5E00ED33EC3392D5FA602AB4FF33EDC2E77B67
:100A6E00FF60067A0A7983E4227A0A798C20D5040B
:100A7E007A0A7987224E614E002B494E46002D4947
:100A8E004E4600E47A08F608DAFC7B00740722E88A
:100A9E00C0E0ECC0E0EDC0E0EEC0E0EFC0E0EA7513
:100AAE00F010A4CAABF075F04DA42BFBE435F0FCAE
:100ABE00EA2410FAEB34C5FBEC34D9FCEDC2E7FFA7
:100ACE0075F056A4F42411C5F0F434C58FF0A42AA1
:100ADE00E5F03BE43CF620E714120C97D0E0FFD093
:100AEE00E0FED0E0FDD0E0FC1208918014F4041278
:100AFE000C97D0E0FFD0E0FED0E0FDD0E0FC120B72
:100B0E0061D0E0F8E6FAEDD2E7CD33EC332482FB88
:100B1E00E4C3CF33CFCE33CECD33CD33DBF37B0730
:100B2E0075F00A846004F6081B0AE5F0F6088FF0EB
:100B3E00740AA4FFACF08EF0740AA42CFEACF05034
:100B4E00010C8DF0740AA42CFDE435F0F608DBDE02
:030B5E00740722F7
:100B6100EC4D6011E8497017ED33EC3304600DE48E
:100B7100FCFFFEFD22E933E8330470F8020A1A1281
:100B810009E558046009E4CC248150062850090283
:100B91000A24284003020A21C0E0EB4A7044B980CC
:100BA10006D0E0FB020A10EF4E701CBD8008EBFF7F
:100BB100EAFEE9FD80EBE98DF0A4FEE5F0020C4AC6
:100BC100E9CDF9EAFEEBFFEF89F0A4FCE5F0CE896F
:100BD100F0A42EFFE435F0CD89F0A42DFEE435F02C
:100BE1008067EF4E7005BD80D780C3EF8BF0A4AC5A
:100BF100F0EE8BF0A42CFCE435F0F8EF8AF0A42C95
:100C0100E5F038FCE433CB8DF0A42CFCE5F03BF8A7
:100C1100EE8AF0A42CFCE5F038F8E433CF89F0A497
:100C21002CFCE5F038CF3400CE89F0A42FFFE5F09D
:100C31003EFEE433C98DF0A42EFEE5F039CD8AF0F5
:100C4100A42FFFE5F03EFEE43DFD33D0E0FB50076D
:100C51000BBB000F020A24EC2CFCEF33FFEE33FE3A
:060C6100ED33FD0209FC69
:100C67003F8000004120000042C80000447A000095
:100C7700461C400047C35000497424004B18968017
:100C87004CBEBC205A0E1BCA6753C21C749DC5AE0E
:100C9700FB60065407601C2323120CC5EB54386015
:100CA70009120CB1120CC0120B61ECF8EDF9EEFA57
:100CB700EFCB22EB120CC080F1543803241C900CAC
:100CC70067FE93FC0EEE93FD0EEE930ECE93FF227E
:0300000002130ADE
:0C130A00787FE4F6D8FD758171020016B2
:100CD700BB010689828A83E0225002E722BBFE021B
:090CE700E32289828A83E493224E
:100CF000BB010CE58229F582E5833AF583E02250B9
:100D000006E92582F8E622BBFE06E92582F8E22202
:0D0D1000E58229F582E5833AF583E493221C
:100D1D00BB010689828A83F0225002F722BBFE01B5
:020D2D00F322AF
:0E0D2F00C3E49FFFE49EFEE49DFDE49CFC22D5
:0C0D3D00E6FC08E6FD08E6FE08E6FF22E2
:0D0D4900E6FB08E6F908E6FA08E6CBF8221A
:0C0D5600ECF608EDF608EEF608EFF622C9
:100D6200FAE6FB0808E6F925F0F618E6CA3AF62292
:100D7200D083D082F8E4937012740193700DA3A310
:100D820093F8740193F5828883E473740293686024
:060D9200EFA3A3A380DF24
:10126F00EFB40A07740D12127A740A309811A89904
:10127F00B8130CC2983098FDA899C298B811F630DF
:07128F0099FDC299F59922B7
:00000001FF
