:101C0000204C5F5F5F20425F5F5F20525F5F5F201D
:101C100000202020696E7075742064697374202020
:101C200020002020202020202020202020202020D4
:101C3000202000523D25362E3266004C3D25362EA2
:101C4000326600423D25362E326600303132333462
:061C50003536373839007B
:101CFD0002310000022200000224000002610000F7
:041D0D00025B000A6B
:0D1D4900438910E4F58DF58BD2ABD2AF22AB
:10001600121D49121C56D3E5629403E5616480946F
:1000260080400302034AE5624561700C7BFF7A1C3F
:1000360079007D01FF121C917BFF7A1C7911E4FD8A
:10004600FF121C91121AB4755B008F5CE55C640D9F
:10005600455B70C20562E562700205616401456137
:100066006003020152F55D755E02C3E55E9405E527
:100076005D648094804003020152121AB4755B00DD
:100086008F5CE55E6402455D702CD3E55C9400E50B
:100096005B64809480401FE55C940AE55B64809411
:1000A600805013AE5B7C007D641215CAEF2532F5D5
:1000B60032EE3531F531E55E6403455D702ED3E5EC
:1000C6005C9400E55B648094804021E55C940AE5DD
:1000D6005B648094805015AE5BAF5C7C007D0A1239
:1000E60015CAEF2532F532EE3531F531E55E640499
:1000F600455D7025D3E55C9400E55B6480948040A3
:1001060018E55C940AE55B64809480500CE55C25F8
:1001160032F532E55B3531F531C3E55C940AE55BD2
:1001260064809480501EAF5E744B255CF582741C0F
:10013600355BF583E493FB7D01121CE5055EE55E08
:100146007002055D7F32121D12020070E5626402C4
:1001560045616003020244F55D755E07C3E55E9482
:100166000AE55D648094804003020244121AB47565
:100176005B008F5CE55E6407455D702CD3E55C949F
:1001860000E55B64809480401FE55C940AE55B644F
:100196008094805013AE5B7C007D641215CAEF25F7
:1001A60023F523EE3522F522E55E6408455D702EC3
:1001B600D3E55C9400E55B648094804021E55C9423
:1001C6000AE55B648094805015AE5BAF5C7C007D75
:1001D6000A1215CAEF2523F523EE3522F522E55E30
:1001E6006409455D7025D3E55C9400E55B64809405
:1001F600804018E55C940AE55B64809480500CE5C9
:100206005C2523F523E55B3522F522C3E55C940ADC
:10021600E55B64809480501EAF5E744B255CF5826E
:10022600741C355BF583E493FB7D01121CE5055ECA
:10023600E55E7002055D7F32121D12020162E56203
:1002460064034561600302001CF561756204F55D97
:10025600755E0CC3E55E940FE55D64809480400393
:1002660002033B121AB4755B008F5CE55E640C45B5
:100276005D702CD3E55C9400E55B64809480401F40
:10028600E55C940AE55B648094805013AE5B7C0069
:100296007D641215CAEF2525F525EE3524F524E5EE
:1002A6005E640D455D702ED3E55C9400E55B64806D
:1002B60094804021E55C940AE55B64809480501547
:1002C600AE5BAF5C7C007D0A1215CAEF2525F525CD
:1002D600EE3524F524E55E640E455D7025D3E55CB8
:1002E6009400E55B648094804018E55C940AE55BC5
:1002F60064809480500CE55C2525F525E55B352466
:10030600F524C3E55C940AE55B64809480501EAFD7
:100316005E744B255CF582741C355BF583E493FBB8
:100326007D01121CE5055EE55E7002055D7F3212F9
:100336001D120202597BFF7A1C7922E4FDFF121C72
:100346009102001CD2B67F0A121D5DC2B630B7FDFF
:10035600D28E20B7FDC28EAF8DEFFEAD8B7C00E452
:100366002DFDEC3EFCE41212478F5A8E598D588CA7
:1003760057E4FBFA7968784212112C8F5A8E598D00
:10038600588C578F368E358D348C33E4F58DF58B3E
:10039600D2B67F0A121D5DC2B630B7FDD28E20B727
:1003A600FDC28EAF8DEFFEAD8B7C00E42DFDEC3EE5
:1003B600FCE41212478F5A8E598D588C57E4FBFA7B
:1003C6007968784212112C8F5A8E598D588C578F16
:1003D6003A8E398D388C37E4F58DF58BD2B67F0A97
:1003E600121D5DC2B630B7FDD28E20B7FDC28EAFEC
:1003F6008DEFFEAD8B7C00E42DFDEC3EFCE412128D
:10040600478F5A8E598D588C57E4FBFA7968784293
:1004160012112C8F5A8E598D588C578F3E8E3D8DCA
:100426003C8C3BE4F58DF58BD2B67F0A121D5DC27E
:10043600B630B7FDD28E20B7FDC28EAF8DEFFEADC2
:100446008B7C00E42DFDEC3EFCE41212478F5A8EA5
:10045600598D588C57E4FBFA7968784212112C8F23
:100466005A8E598D588C578F428E418D408C3FE461
:10047600F58DF58BD2B67F0A121D5DC2B630B7FD7B
:10048600D28E20B7FDC28EAF8DEFFEAD8B7C00E421
:100496002DFDEC3EFCE41212478F5A8E598D588C76
:1004A60057E4FBFA7968784212112C8F5A8E598DCF
:1004B600588C578F468E458D448C43E4F58DF58BCD
:1004C600D2B67F0A121D5DC2B630B7FDD28E20B7F6
:1004D600FDC28EAF8DEFFEAD8B7C00E42DFDEC3EB4
:1004E600FCE41212478F5A8E598D588C57E4FBFA4A
:1004F6007968784212112C8F5A8E598D588C578FE5
:100506004A8E498D488C47E4F58DF58BD2B67F0A25
:10051600121D5DC2B630B7FDD28E20B7FDC28EAFBA
:100526008DEFFEAD8B7C00E42DFDEC3EFCE412125B
:10053600478F5A8E598D588C57E4FBFA7968784262
:1005460012112C8F5A8E598D588C578F4E8E4D8D79
:100556004C8C4BE4F58DF58BD2B67F0A121D5DC22D
:10056600B630B7FDD28E20B7FDC28EAF8DEFFEAD91
:100576008B7C00E42DFDEC3EFCE41212478F5A8E74
:10058600598D588C57E4FBFA7968784212112C8FF2
:100596005A8E598D588C578F528E518D508C4FE4F0
:1005A600F58DF58BD2B67F0A121D5DC2B630B7FD4A
:1005B600D28E20B7FDC28EAF8DEFFEAD8B7C00E4F0
:1005C6002DFDEC3EFCE41212478F5A8E598D588C45
:1005D60057E4FBFA7968784212112C8F5A8E598D9E
:1005E600588C578F568E558D548C53E4F58DF58B5C
:1005F600D2B67F0A121D5DC2B630B7FDD28E20B7C5
:10060600FDC28EAF8DEFFEAD8B7C00E42DFDEC3E82
:10061600FCE41212478F5A8E598D588C57E4FBFA18
:100626007968784212112C8F5A8E598D588C578FB3
:100636005A8E598D588C57E4F58DF58BF55DF55E20
:10064600E4F55FF560C37409955EFFE4955DFEC34E
:10065600E5609FEE6480F8E55F648098506AAF605D
:10066600EF25E025E02437F81215F6C000EF25E067
:1006760025E02433F81215EAD0001211C9503EAB1A
:1006860060EB25E025E02433F81215EA8F308E2F33
:100696008D2E8C2DEB25E025E02437F81215EAEB9C
:1006A60025E025E02433F8121603AF30AE2FAD2E29
:1006B600AC2DEB25E025E02437F81216030560E59E
:1006C600607002055F02064B055EE55E7002055D21
:1006D6006409455D6003020646AF3EAE3DAD3CACE7
:1006E6003BAB3AAA39A938A837121038AB42AA410F
:1006F600A940A83F121038AB46AA45A944A8431200
:100706001038AB4AAA49A948A847121038AB4EAAD6
:100716004DA94CA84B121038AB52AA51A950A84F5C
:10072600121038AB56AA55A954A853121038E4FB38
:10073600FAF9784112112C8F5A8E598D588C57AC74
:1007460024AD25EC1212478F308E2F8D2E8C2DABBB
:100756005AAA59A958A8571211C95007C2A27FFA16
:10076600121D12D2A27566FF75671C756833855A0D
:100776006C85596B85586A8557697B007A0079269E
:100786001216A17B007A0079267D01E4FF121C91E6
:10079600D2A07F0A121D5DC2A030A1FDD28E20A17B
:1007A600FDC28EAF8DEFFEAD8B7C00E42DFDEC3EE1
:1007B600FCE41212478F5A8E598D588C57E4FBFA77
:1007C6007968784212112C8F5A8E598D588C578F12
:1007D600368E358D348C33E4F58DF58BD2A07F0AB9
:1007E600121D5DC2A030A1FDD28E20A1FDC28EAF2A
:1007F6008DEFFEAD8B7C00E42DFDEC3EFCE4121289
:10080600478F5A8E598D588C57E4FBFA796878428F
:1008160012112C8F5A8E598D588C578F3A8E398DCE
:10082600388C37E4F58DF58BD2A07F0A121D5DC298
:10083600A030A1FDD28E20A1FDC28EAF8DEFFEAD00
:100846008B7C00E42DFDEC3EFCE41212478F5A8EA1
:10085600598D588C57E4FBFA7968784212112C8F1F
:100866005A8E598D588C578F3E8E3D8D3C8C3BE46D
:10087600F58DF58BD2A07F0A121D5DC2A030A1FDB9
:10088600D28E20A1FDC28EAF8DEFFEAD8B7C00E433
:100896002DFDEC3EFCE41212478F5A8E598D588C72
:1008A60057E4FBFA7968784212112C8F5A8E598DCB
:1008B600588C578F428E418D408C3FE4F58DF58BD9
:1008C600D2A07F0A121D5DC2A030A1FDD28E20A14A
:1008D600FDC28EAF8DEFFEAD8B7C00E42DFDEC3EB0
:1008E600FCE41212478F5A8E598D588C57E4FBFA46
:1008F6007968784212112C8F5A8E598D588C578FE1
:10090600468E458D448C43E4F58DF58BD2A07F0A47
:10091600121D5DC2A030A1FDD28E20A1FDC28EAFF8
:100926008DEFFEAD8B7C00E42DFDEC3EFCE4121257
:10093600478F5A8E598D588C57E4FBFA796878425E
:1009460012112C8F5A8E598D588C578F4A8E498D7D
:10095600488C47E4F58DF58BD2A07F0A121D5DC247
:10096600A030A1FDD28E20A1FDC28EAF8DEFFEADCF
:100976008B7C00E42DFDEC3EFCE41212478F5A8E70
:10098600598D588C57E4FBFA7968784212112C8FEE
:100996005A8E598D588C578F4E8E4D8D4C8C4BE4FC
:1009A600F58DF58BD2A07F0A121D5DC2A030A1FD88
:1009B600D28E20A1FDC28EAF8DEFFEAD8B7C00E402
:1009C6002DFDEC3EFCE41212478F5A8E598D588C41
:1009D60057E4FBFA7968784212112C8F5A8E598D9A
:1009E600588C578F528E518D508C4FE4F58DF58B68
:1009F600D2A07F0A121D5DC2A030A1FDD28E20A119
:100A0600FDC28EAF8DEFFEAD8B7C00E42DFDEC3E7E
:100A1600FCE41212478F5A8E598D588C57E4FBFA14
:100A26007968784212112C8F5A8E598D588C578FAF
:100A3600568E558D548C53E4F58DF58BD2A07F0AD6
:100A4600121D5DC2A030A1FDD28E20A1FDC28EAFC7
:100A56008DEFFEAD8B7C00E42DFDEC3EFCE4121226
:100A6600478F5A8E598D588C57E4FBFA796878422D
:100A760012112C8F5A8E598D588C578F5A8E598D2C
:100A8600588C57E4F58DF58BF55DF55EE4F55FF56D
:100A960060C37409955EFFE4955DFEC3E5609FEE55
:100AA6006480F8E55F648098506AAF60EF25E025C2
:100AB600E02437F81215F6C000EF25E025E02433D0
:100AC600F81215EAD0001211C9503EAB60EB25E0D2
:100AD60025E02433F81215EA8F308E2F8D2E8C2DBB
:100AE600EB25E025E02437F81215EAEB25E025E0B2
:100AF6002433F8121603AF30AE2FAD2EAC2DEB25F6
:100B0600E025E02437F81216030560E5607002055B
:100B16005F020A97055EE55E7002055D6409455D44
:100B26006003020A92AF3EAE3DAD3CAC3BAB3AAA87
:100B360039A938A837121038AB42AA41A940A83FB4
:100B4600121038AB46AA45A944A843121038AB4A3E
:100B5600AA49A948A847121038AB4EAA4DA94CA8D5
:100B66004B121038AB52AA51A950A84F121038ABED
:100B760056AA55A954A853121038E4FBFAF978413D
:100B860012112C8F5A8E598D588C57AC31AD32ECD0
:100B96001212478F308E2F8D2E8C2DAB5AAA59A943
:100BA60058A8571211C95007C2A27FFA121D12D2B5
:100BB600A27566FF75671C75683B855A6C85596B0F
:100BC60085586A8557697B007A0079261216A17BBB
:100BD600007A0079267D017F08121C91D2B47F0A23
:100BE600121D5DC2B430B5FDD28E20B5FDC28EAFEA
:100BF6008DEFFEAD8B7C00E42DFDEC3EFCE4121285
:100C0600478F5A8E598D588C57E4FBFA796878428B
:100C160012112C8F5A8E598D588C578F368E358DD2
:100C2600348C33E4F58DF58BD2B47F0A121D5DC288
:100C3600B430B5FDD28E20B5FDC28EAF8DEFFEADC0
:100C46008B7C00E42DFDEC3EFCE41212478F5A8E9D
:100C5600598D588C57E4FBFA7968784212112C8F1B
:100C66005A8E598D588C578F3A8E398D388C37E479
:100C7600F58DF58BD2B47F0A121D5DC2B430B5FD79
:100C8600D28E20B5FDC28EAF8DEFFEAD8B7C00E41B
:100C96002DFDEC3EFCE41212478F5A8E598D588C6E
:100CA60057E4FBFA7968784212112C8F5A8E598DC7
:100CB600588C578F3E8E3D8D3C8C3BE4F58DF58BE5
:100CC600D2B47F0A121D5DC2B430B5FDD28E20B5F6
:100CD600FDC28EAF8DEFFEAD8B7C00E42DFDEC3EAC
:100CE600FCE41212478F5A8E598D588C57E4FBFA42
:100CF6007968784212112C8F5A8E598D588C578FDD
:100D0600428E418D408C3FE4F58DF58BD2B47F0A3F
:100D1600121D5DC2B430B5FDD28E20B5FDC28EAFB8
:100D26008DEFFEAD8B7C00E42DFDEC3EFCE4121253
:100D3600478F5A8E598D588C57E4FBFA796878425A
:100D460012112C8F5A8E598D588C578F468E458D81
:100D5600448C43E4F58DF58BD2B47F0A121D5DC237
:100D6600B430B5FDD28E20B5FDC28EAF8DEFFEAD8F
:100D76008B7C00E42DFDEC3EFCE41212478F5A8E6C
:100D8600598D588C57E4FBFA7968784212112C8FEA
:100D96005A8E598D588C578F4A8E498D488C47E408
:100DA600F58DF58BD2B47F0A121D5DC2B430B5FD48
:100DB600D28E20B5FDC28EAF8DEFFEAD8B7C00E4EA
:100DC6002DFDEC3EFCE41212478F5A8E598D588C3D
:100DD60057E4FBFA7968784212112C8F5A8E598D96
:100DE600588C578F4E8E4D8D4C8C4BE4F58DF58B74
:100DF600D2B47F0A121D5DC2B430B5FDD28E20B5C5
:100E0600FDC28EAF8DEFFEAD8B7C00E42DFDEC3E7A
:100E1600FCE41212478F5A8E598D588C57E4FBFA10
:100E26007968784212112C8F5A8E598D588C578FAB
:100E3600528E518D508C4FE4F58DF58BD2B47F0ACE
:100E4600121D5DC2B430B5FDD28E20B5FDC28EAF87
:100E56008DEFFEAD8B7C00E42DFDEC3EFCE4121222
:100E6600478F5A8E598D588C57E4FBFA7968784229
:100E760012112C8F5A8E598D588C578F568E558D30
:100E8600548C53E4F58DF58BD2B47F0A121D5DC2E6
:100E9600B430B5FDD28E20B5FDC28EAF8DEFFEAD5E
:100EA6008B7C00E42DFDEC3EFCE41212478F5A8E3B
:100EB600598D588C57E4FBFA7968784212112C8FB9
:100EC6005A8E598D588C578F5A8E598D588C57E497
:100ED600F58DF58BF55DF55EE4F55FF560C3740998
:100EE600955EFFE4955DFEC3E5609FEE6480F8E5E0
:100EF6005F648098506AAF60EF25E025E02437F8FC
:100F06001215F6C000EF25E025E02433F81215EAA5
:100F1600D0001211C9503EAB60EB25E025E024332A
:100F2600F81215EA8F308E2F8D2E8C2DEB25E025AD
:100F3600E02437F81215EAEB25E025E02433F81211
:100F46001603AF30AE2FAD2EAC2DEB25E025E024F9
:100F560037F81216030560E5607002055F020EE3BE
:100F6600055EE55E7002055D6409455D6003020E7F
:100F7600DEAF3EAE3DAD3CAC3BAB3AAA39A938A894
:100F860037121038AB42AA41A940A83F121038AB1D
:100F960046AA45A944A843121038AB4AAA49A9480B
:100FA600A847121038AB4EAA4DA94CA84B121038C0
:100FB600AB52AA51A950A84F121038AB56AA55A940
:100FC60054A853121038E4FBFAF9784112112C8F09
:100FD6005A8E598D588C57AC22AD23EC1212478F7E
:100FE600308E2F8D2E8C2DAB5AAA59A958A8571280
:100FF60011C95007C2A27FFA121D12D2A27566FF4E
:1010060075671C756843855A6C85596B85586A8562
:1010160057697B007A0079261216A17B007A00793F
:0B10260026E4FD7F04121C9102001C58
:03001300021D5675
:071D5600C2A1C2B5C2B73201
:100003007580FFC2A4D2A5C2A600D2A6E580332282
:101D270012000340FBC2A4C2A5D2A68F8000C2A6A0
:011D37002289
:101D380012000340FBD2A4C2A5D2A68F8000C2A67F
:011D48002278
:101C91008F638D648B658A668967AB65AA66A96760
:101CA100121572FB6016AD64AF63121CE574012559
:0D1CB10067F567E43566F566056380DE22A1
:101CE500AE07AC03ED7005EE24808003EE24C0FF43
:081CF500121D27AF04021D3887
:101C56007F38121D277F05121D127F38121D277F20
:101C660005121D127F38121D277F05121D127F389F
:101C7600121D277F08121D277F01121D277F0612BE
:0B1C86001D271F121D127F0C021D27DE
:031D5D00DFFE2284
:101D1200AE07AF061EEF600C7FF5121D5D7FF51258
:051D22001D5D80EE22B2
:101AB4007590FFC2932097083097FD7E007F012226
:101AC4002096083096FD7E007F04222095083095EC
:101AD400FD7E007F07222094083094FD7E007F0B5A
:101AE400227590FFC2922097083097FD7E007F02F6
:101AF400222096083096FD7E007F0522209508302E
:101B040095FD7E007F08222094073094FDE4FEFFBB
:101B1400227590FFC2912097083097FD7E007F03C5
:101B2400222096083096FD7E007F062220950830FC
:101B340095FD7E007F09222094083094FD7E007F6D
:101B44000C227590FFC2902097083097FD7E007F8D
:101B54000D222096083096FD7E007F0E22209508E7
:101B64003095FD7E007F0F227590FF7E007F0A2254
:101031000212B5E86480F8E933E83360110460F026
:10104100ED33EC337009E8FCE9FDEAFEEBFF220425
:1010510060DED3EB9FEA9EE99DE8C2E78CF0C2F720
:1010610095F0400CE8CCF8E9CDF9EACEFAEBCFFBEC
:1010710012128085D0F05804700320D5B3E80470B3
:10108100075002B2D50212BF92D5EC0460F7E4CC4E
:10109100C0E0C398F8603B94186008400DD0E0FBB5
:1010A100021297E4FBFAC9FC8028E830E406E4C99F
:1010B100FBE4CAFCE830E305E4C9CACBFCE8540709
:1010C1006010F8C3E913F9EA13FAEB13FBEC13FC14
:1010D100D8F130F52FC3E49CFCEF9BFFEE9AFEEDB7
:1010E10099FDD0E0FBEF4E4D4C701222DB03021252
:1010F100BCEC2CFCEF33FFEE33FEED33FDED30E7BE
:10110100EB021297EF2BFFEE3AFEED39FDD0E0FB3B
:1011110050130BBB00030212BFED13FDEE13FEEFE4
:0811210013FFEC13FC0212970E
:101129000212BFEC5D046005E8590470030212B5B0
:10113900121280580460F6EC4860F2EC7004FDFE6F
:10114900FF22C860DB2481C85009C3986002500699
:101159000212BC9850CAF582E9294B4A7005AB8244
:101169000212AB75F0007C1A7880C3EF9BEE9AED02
:1011790099400DC3EF9BFFEE9AFEED99FDE842F011
:10118900DC23ACF0D0E0FFD0E0FED0E0FDAB822064
:10119900E7101BEB60BAEC2CFCEF33FFEE33FEEDEE
:1011A90033FD021297E803F830E705C0F075F00047
:1011B900EF2FFFEE33FEED33FD40B830E7C280AAD2
:1011C90074F8CC6480CCC86480C8F58204604FC3CD
:1011D900EB9FF5F0EA9E42F0E99D42F0E89C45F06C
:1011E900603C501DE5825FFFE582D313CB5BCBF4F6
:1011F9002B5582FB50280ABA002409B9002008801F
:101209001DE5825BFBE582D313CF5FCFF4C3132FB8
:101219005582FF50090EBE00050DBD00010CC3EB40
:101229009FF5F0EA9E42F0E99D42F0E89C45F060A6
:0912390007CC4820E701B3EC22C8
:1012420075F020800E75F010800575F0087D007E27
:10125200007F003392D530D5031215DCEC334010F9
:10126200EF33FFEE33FEED33FDEC33FCD5F0ED2230
:0E127200E5F0247EA2D513CC92E7CDCEFF226C
:10164500E57A2466F8E6057A22786330070278663B
:10165500E475F00112160F0215722000EB7F2ED2F1
:10166500008018EF540F2490D43440D4FF30040B7D
:10167500EF24BFB41A0050032461FFE57B60021517
:101685007B057EE57E7002057D30070D7863E47588
:10169500F00112160FEF0215B8021CBE7403D20733
:1016A5008003E4C207F57A8B638A648965E4F57B78
:1016B500F57DF57EE57B60077F2012168080F57548
:1016C5007CFFC201C200C202C203C205C206C20833
:1016D50012164EFF700D3007057F00121691AF7E72
:1016E500AE7D22B4255FC2D5C20412164EFF24D0AA
:1016F500B40A00501A75F00A787B30D50508B6FF94
:101705000106C6A426F620D5047002D20380D9248A
:10171500CFB41A00EF5004C2E5D20402197ED201FB
:1017250080C6D20080C0D20280BCD2D580BAD20594
:1017350080B47F201216802002077401B57B00401B
:10174500F1121645FF1216800216B9D208D206808C
:1017550095121645FB121645FA121645F94A4B70B5
:101765000679757A1A7BFF20022EE57B602A7E00BA
:101775008E8275830012158B60060EEE657C70F007
:10178500C2D5EBC0E0EAC0E0E9C0E0EE1219DED058
:10179500E0F9D0E0FAD0E0FB121572FF60AAEBC0C9
:1017A500E0EAC0E0E9C0E0121680D0E02401F9D0FB
:1017B500E03400FAD0E0FBE57C0460DCD57CD98020
:1017C50087D20280A21219C160F7E57C700104126C
:1017D50012CAA97C600DE57C600914F57C121A68B3
:1017E500EF60F3EA30E702F404C3995077EAF42591
:1017F5007C0430E701E404F57C800D1219C160C159
:10180500EA057C257C1212CAEA7879F630E701E40C
:10181500257C04D57C04200501141219DEE4C0E002
:10182500121A687879E6601320E70714F61216682D
:10183500802204F6D0E014C0E07F00121668E57C33
:10184500600712165F157C800B30050312165FD0FA
:10185500E00216B9D0E00480C51219C160A0E57C8C
:10186500041212CA7879EAF6E57C200502600104C3
:0518750024041219DE3D
:10187A0074FF04C0E0121A68121668E57C2005029B
:10188A00600312165FD0E0B57CE87F4512167278C5
:10189A0079E67F2B30E7047F2DF404C0E01216802E
:1018AA00D0E075F00A84C0F0121669D0E012166909
:1018BA000216B9791080027908C206C2088008D2D5
:1018CA00D5790A8004790AC2D5E57C047002F57CD0
:1018DA00E4FAFDFEFF121645FC7B082001131216DE
:1018EA0045FD7B1030000A121645FE121645FF7B95
:1018FA0020EC3382D592D55013C3E43000069FFF03
:10190A00E49EFEE42001039DFDE49CFCE4CBF8C2C6
:10191A0001EC700CCFCECDCCE824F8F870F3801728
:10192A00C3EF33FFEE33FEED33FDEC33FCEB33FB59
:10193A00994002FB0FD8E9EB300105F8D0E0C44822
:10194A00B201C0E00AEC4D4E4F78207B0070C2EA2B
:10195A00B57C0040BCC0E01219E0D0F0D0E0200114
:10196A0004C4C0E0C4B201C0F0121669D0F0D5F0C8
:10197A00EB0216B912161F17565318BD5817274CE3
:10198A0017234218C14F18C94418C949173C4318AC
:10199A00CF55180046185E4517CA471A9550172B97
:1019AA002D172F2E17522B1733231750201A7E2A42
:1019BA0016EB480000174AE57CB4FF03757C061253
:1019CA001645FC121645FD121645FE121645FF78FD
:1019DA00720212F9790AA2D5200314300509B91046
:1019EA00020404B9080104A2D52006025001042009
:1019FA0002689202B57B005034C0E07F20300319A0
:101A0A007F30A20272067205500F121A37C202C242
:101A1A0006C205C2087F30800F300503E9C0E01214
:101A2A001680300503D0E0F9D0E0B57BCC3005173D
:101A3A007F30B9100C1216807F583004077F7880E7
:101A4A0003B908031216803002057F2D0216807F23
:101A5A00202008F87F2B2006F322920280CF7F00F5
:101A6A00B4070050052472F8E6FF22286E756C6CE4
:101A7A002900D2011216453001F8C201787B30D50F
:101A8A000108F60216EB2D50434958121645240355
:101A9A00B405004001E4901A9093121671743A1238
:0A1AAA001671D203757B040218BD0B
:10128000E9D2E7C933E833F892D5EDD2E7CD33ECB4
:0712900033FC5002B2D5222D
:10129700EC30E7100FBF000C0EBE00080DBD0004B8
:1012A7000BEB6014A2D5EB13FCED92E7FD2274FF64
:1012B700FCFDFEFF22E480F8A2D574FF13FC7D80BD
:0312C700E480EFD1
:1012CA00F920E72824F950037907E4F42402FB18EB
:1012DA00DBFDE624FB5014E9600DE4F618E604F69B
:0F12EA00B40A08E4F6D9F57401F60A22C2D52237
:1012F900ED33EC3392D5FA602AB4FF33EDC2E77BC4
:10130900FF60067A13791EE4227A13792720D5041F
:101319007A137922224E614E002B494E46002D49FF
:101329004E4600E47A08F608DAFC7B00740722E8E6
:10133900C0E0ECC0E0EDC0E0EEC0E0EFC0E0EA756F
:10134900F010A4CAABF075F04DA42BFBE435F0FC0A
:10135900EA2410FAEB34C5FBEC34D9FCEDC2E7FF03
:1013690075F056A4F42411C5F0F434C58FF0A42AFD
:10137900E5F03BE43CF620E714121532D0E0FFD04B
:10138900E0FED0E0FDD0E0FC12112C8014F4041230
:101399001532D0E0FFD0E0FED0E0FDD0E0FC121322
:1013A900FCD0E0F8E6FAEDD2E7CD33EC332482FB4A
:1013B900E4C3CF33CFCE33CECD33CD33DBF37B078D
:1013C90075F00A846004F6081B0AE5F0F6088FF048
:1013D900740AA4FFACF08EF0740AA42CFEACF05091
:1013E900010C8DF0740AA42CFDE435F0F608DBDE5F
:0313F90074072254
:1013FC00EC4D6011E8497017ED33EC3304600DE4EB
:10140C00FCFFFEFD22E933E8330470F80212B5123A
:10141C00128058046009E4CC24815006285009023B
:10142C0012BF2840030212BCC0E0EB4A7044B980E2
:10143C0006D0E0FB0212ABEF4E701CBD8008EBFF38
:10144C00EAFEE9FD80EBE98DF0A4FEE5F00214E57F
:10145C00E9CDF9EAFEEBFFEF89F0A4FCE5F0CE89CB
:10146C00F0A42EFFE435F0CD89F0A42DFEE435F088
:10147C008067EF4E7005BD80D780C3EF8BF0A4ACB6
:10148C00F0EE8BF0A42CFCE435F0F8EF8AF0A42CF1
:10149C00E5F038FCE433CB8DF0A42CFCE5F03BF804
:1014AC00EE8AF0A42CFCE5F038F8E433CF89F0A4F4
:1014BC002CFCE5F038CF3400CE89F0A42FFFE5F0FA
:1014CC003EFEE433C98DF0A42EFEE5F039CD8AF052
:1014DC00A42FFFE5F03EFEE43DFD33D0E0FB5007CA
:1014EC000BBB000F0212BFEC2CFCEF33FFEE33FEF4
:0614FC00ED33FD02129722
:101502003F8000004120000042C80000447A0000F1
:10151200461C400047C35000497424004B18968073
:101522004CBEBC205A0E1BCA6753C21C749DC5AE6A
:10153200FB60065407601C2323121560EB543860CD
:101542000912154C12155B1213FCECF8EDF9EEFAC8
:10155200EFCB22EB12155B80F1543803241C90155B
:1015620002FE93FC0EEE93FD0EEE930ECE93FF223F
:03000000021B746C
:0C1B7400787FE4F6D8FD75817E021BBB73
:10157200BB010689828A83E0225002E722BBFE0277
:09158200E32289828A83E49322AA
:10158B00BB010CE58229F582E5833AF583E0225015
:10159B0006E92582F8E622BBFE06E92582F8E2225F
:0D15AB00E58229F582E5833AF583E4932279
:1015B800BB010689828A83F0225002F722BBFE0112
:0215C800F3220C
:1015CA00EF8DF0A4A8F0CF8CF0A428CE8DF0A42E35
:0215DA00FE22EF
:0E15DC00C3E49FFFE49EFEE49DFDE49CFC2220
:0C15EA00E6FC08E6FD08E6FE08E6FF222D
:0D15F600E6FB08E6F908E6FA08E6CBF82265
:0C160300ECF608EDF608EEF608EFF62213
:10160F00FAE6FB0808E6F925F0F618E6CA3AF622DC
:10161F00D083D082F8E4937012740193700DA3A35A
:10162F0093F8740193F5828883E47374029368606E
:06163F00EFA3A3A380DF6E
:101CBE00EFB40A07740D121CC9740A309811A89952
:101CCE00B8130CC2983098FDA899C298B811F63086
:071CDE0099FDC299F599225E
:101B8000020016E493A3F8E493A34003F68001F265
:101B900008DFF48029E493A3F85407240CC8C33366
:101BA000C4540F4420C8834004F456800146F6DF35
:101BB000E4800B0102040810204080901CFDE47EAC
:101BC000019360BCA3FF543F30E509541FFEE4932A
:101BD000A360010ECF54C025E060A840B8E493A3F1
:101BE000FAE493A3F8E493A3C8C582C8CAC583CA1C
:101BF000F0A3C8C582C8CAC583CADFE9DEE780BED4
:011D110000D1
:00000001FF
